:020000040000FA
:0600000042EF15F01200B2
:020006001200E6
:0600080026EF00F01200DB
:02000E000000F0
:080010000000000000000000E8
:0600180029EF04F01200C4
:02001E000300DD
:100020000E000000D60100000A0000007C2B00003A
:10003000000F00000E000000BA2A000000010000BE
:04004000C2000000FA
:0C004400D08EF28CF28E1200E9CFE4FFA7
:10005000EACFE4FFF3CFE4FFF4CFE4FFE652D9CFD9
:10006000E6FFDACFE6FFE1CFD9FFE2CFDAFF070EF6
:10007000E12402E3E168E652E16EDE6ADD6A030E26
:10008000DB6A040EDB6A050EDB6A060EDB6AA1A2E0
:10009000CAD30101895101E1A3D001018851070AA6
:1000A0001DE0010A19E0030A15E0010A11E0070A40
:1000B0000DE0010A09E0030A05E0010A01E010D0A1
:1000C00082940FD082960DD082980BD0829A09D05C
:1000D000809C07D0809E05D0829003D0829201D070
:1000E00000D00101896B04680568066A076A700E12
:1000F0000C6E170E0D6E0E6A0F6A01018851E96EC3
:10010000EA6AD890E936EA36400EE926010EEA227C
:10011000EECF10F0EFCF11F0126A136A10500C5CA2
:10012000086E11500D58096E12500E580A6E135079
:100130000F580B6E0850045C006E09500558016E94
:100140000A500658026E0B500758036E030E00C08B
:10015000DBFF040E01C0DBFF030EDBCF00F0040E5B
:10016000DBCF01F001C000F0016A0050B36EFF0E5A
:10017000E76E030EDBCF00F0040EDBCF01F0E7509B
:100180000016016A0050B26E700E046E170E056EF6
:10019000066A076A01018851E96EEA6AD890E93671
:1001A000EA36400EE926010EEA22EECF08F0EFCF44
:1001B00009F00A6A0B6A0850045C006E0950055881
:1001C000016E0A500658026E0B500758036E00501D
:1001D0000101D62701500101D7230101882B21D32A
:1001E000080E0101885D01E3CED201018851EA6A5F
:1001F000080FE96E010EEA22EF5001E0C1D20101C1
:100200008851EA6A800FE96E010EEA22EF5001E19F
:1002100018D101018851E96EEA6AD890E936EA36C8
:10022000300EE926010EEA22EECF00F0EFCF01F00A
:1002300001018851E96EEA6AD890E936EA36100E73
:10024000E926010EEA22EECF02F0EFCF03F00250D2
:10025000005C0350015826E201018851EA6A800FD0
:10026000E96E010EEA22EF5080081CE2010188517C
:10027000EA6A800FE96E010EEA22EF50800F040D4A
:10028000F350006E016A01018851E96EEA6AD89064
:10029000E936EA36300EE926010EEA220050EE2653
:1002A0000150ED2201018851E96EEA6AD890E936E1
:1002B000EA36300EE926010EEA22EECF00F0EFCF4B
:1002C00001F001018851E96EEA6AD890E936EA3610
:1002D000200EE926010EEA22EECF02F0EFCF03F066
:1002E0000050025C015003582AE201018851EA6A79
:1002F000800FE96E010EEA22EFCF04F0800E045C5D
:100300001EE2800E026E01018851EA6A800FE96EDA
:10031000010EEA22EF50025C040DF350006E016AF8
:1003200001018851E96EEA6AD890E936EA36300E62
:10033000E926010EEA220050EE5E0150ED5A01015D
:100340008851E96EEA6AD890E936EA36300EE92635
:10035000010EEA22EECF00F0EFCF01F0010188514B
:10036000E96EEA6AD890E936EA36200EE926010EEF
:10037000EA22EECF02F0EFCF03F00250005C035010
:1003800001581EE201018851E96EEA6AD890E93607
:10039000EA36200EE926010EEA22EECF00F0EFCF7A
:1003A00001F001018851E96EEA6AD890E936EA362F
:1003B000300EE926010EEA2200C0EEFF01C0EDFF7B
:1003C00001018851E96EEA6AD890E936EA36300EC2
:1003D000E926010EEA22EECF00F0EFCF01F0010195
:1003E0008851E96EEA6AD890E936EA36100EE926B5
:1003F000010EEA22EECF02F0EFCF03F00050025CD4
:10040000015003581EE201018851E96EEA6AD89052
:10041000E936EA36100EE926010EEA22EECF00F0A8
:10042000EFCF01F001018851E96EEA6AD890E93610
:10043000EA36300EE926010EEA2200C0EEFF01C0C6
:10044000EDFF01018851EA6A8A0FE96E010EEA2286
:10045000EF0401E00CD101018851E96EEA6AD890FD
:10046000E936EA36300EE926010EEA22EECF02F036
:10047000EFCF03F001018851E96EEA6AD890E936BE
:10048000EA36400EE926010EEA22EE50025C006ECA
:10049000EE500358016E00C0DEFF01C0DDFFDECF6D
:1004A00000F0DDCF01F001018851EA6A700FE96EBA
:1004B000010EEA22EF50026E036A03500118E8AE03
:1004C00002D0013404D00050025C015003580AE20B
:1004D00001018851EA6A700FE96E010EEA22EF50BD
:1004E000DE6EDD6ADECF00F0DDCF01F00101885164
:1004F000EA6A780FE96E010EEA22EF50026E036A93
:10050000026C031E000E032201500318E8AE02D055
:10051000033404D00250005C0350015812E2010180
:100520008851EA6A780FE96E010EEA22EF50006EF8
:10053000016A006C011E000E012200C0DEFF01C036
:10054000DDFFDECF00F0DDCF01F001018851E96E63
:10055000EA6AD890E936EA36400EE926010EEA2228
:100560000050EE260150ED2201018851E96EEA6A41
:10057000D890E936EA36400EE926010EEA22EECF9F
:1005800000F0EFCF01F001018851E96EEA6AD890DE
:10059000E936EA36500EE926010EEA22EECF02F0E5
:1005A000EFCF03F00050025C015003581EE201013E
:1005B0008851E96EEA6AD890E936EA36500EE926A3
:1005C000010EEA22EECF00F0EFCF01F001018851D9
:1005D000E96EEA6AD890E936EA36400EE926010E5D
:1005E000EA2200C0EEFF01C0EDFF01018851E96E73
:1005F000EA6AD890E936EA36400EE926010EEA2288
:10060000EECF00F0EFCF01F001018851E96EEA6A08
:10061000D890E936EA36600EE926010EEA22EECFDE
:1006200002F0EFCF03F00250005C035001581EE2CD
:1006300001018851E96EEA6AD890E936EA36600E1F
:10064000E926010EEA22EECF00F0EFCF01F0010122
:100650008851E96EEA6AD890E936EA36400EE92612
:10066000010EEA2200C0EEFF01C0EDFF1ED0010125
:100670008851E96EEA6AD890E936EA36300EE92602
:10068000010EEA22EECF00F0EFCF01F00101885118
:10069000E96EEA6AD890E936EA36400EE926010E9C
:1006A000EA2200C0EEFF01C0EDFF01018851070AF8
:1006B0001DE0010A19E0030A15E0010A11E0070A2A
:1006C0000DE0010A09E0030A05E0010A01E010D08B
:1006D00082840FD082860DD082880BD0828A09D086
:1006E000808C07D0808E05D0828003D0828201D09A
:1006F00000D001018851E96EEA6AD890E936EA36FD
:10070000400EE926010EEA22EECF00F0EFCF01F015
:10071000FF0ED8800056FF0E0156030E00C0DBFF0F
:10072000040E01C0DBFF030EDBCF00F0040EDBCFB5
:1007300001F001C000F0016A0050B36EFF0EE76ED9
:10074000030EDBCF00F0040EDBCF01F0E750001604
:10075000016A0050B26E01018851E96EEA6AD890D0
:10076000E936EA36400EE926010EEA22EE50010192
:10077000D627EE500101D7230101010E896F03D066
:100780000101882B2DD5010189514BE10101886BB5
:1007900004680568066A076A500E0C6EC30E0D6E7B
:1007A0000E6A0F6AD6C110F0D7C111F0126A136A2F
:1007B00010500C5C086E11500D58096E12500E58F6
:1007C0000A6E13500F580B6E0850045C006E0950EF
:1007D0000558016E0A500658026E0B500758036EFA
:1007E000030E00C0DBFF040E01C0DBFF030EDBCFF6
:1007F00000F0040EDBCF01F001C000F0016A0050F0
:10080000B36EFF0EE76E030EDBCF00F0040EDBCFFE
:1008100001F0E7500016016A0050B26E0101D66B7C
:10082000D76BA19201D0FFD7070EE15C02E2E16A2B
:10083000E552E16EE552E5CFDAFFE7CFD9FFE552A9
:10084000E5CFF4FFE5CFF3FFE5CFEAFFE5CFE9FF22
:100850001100E9CFE4FFEACFE4FFF6CFE4FFF7CFE2
:10086000E4FFF5CFE4FFF3CFE4FFF4CFE4FFFACFEA
:10087000E4FF00EE26F0100EE80403E3EECFE4FF01
:10088000FBD700EE14F0120EE80403E3EECFE4FF12
:10089000FBD7E652D9CFE6FFDACFE6FFE1CFD9FFAB
:1008A000E2CFDAFFE652E652E652A1AA9DEF09F046
:1008B00068A081EF09F068BAF3D26ACFD8F167BCBB
:1008C000679C0101D96B68B403D00101DA6BE7D2F0
:1008D0000101DE6BDF6B0101BF6B0101DB6B01010D
:1008E000DA51D10A01E1CBD2030A01E1C8D2010AEF
:1008F00001E1C5D2070A01E1C2D26C0A01E182D24C
:10090000010A01E17FD2030A01E17CD2010A01E17F
:1009100079D2070A01E176D2010A01E173D2030A12
:1009200001E170D20F0A01E130D2030A01E12DD2B8
:10093000010A01E12AD2070A01E127D2010A01E1F5
:1009400024D2030A01E121D2010A01E11ED2130AD5
:1009500001E116D2070A01E10ED2020A01E1F8D143
:10096000010A01E1E2D1310A01E1D4D1030A01E136
:10097000D1D1010A01E1CED1070A01E1CBD1010AAF
:1009800001E1C8D1030A01E1C5D1010A01E1C2D1E7
:100990000F0A01E1BFD1E90A01E1ABD1030A01E18C
:1009A000A8D1010A01E1A5D1070A01E1A2D1010AFA
:1009B00001E19FD1030A01E19CD1010A01E199D132
:1009C0000F0A01E196D1190A01E182D1030A01E17E
:1009D0007FD1010A01E17CD1070A01E179D1010A45
:1009E00001E176D1030A01E173D1010A01E170D17D
:1009F0000F0A01E16DD1390A01E14FD1030A01E18A
:100A00004CD1010A01E149D1070A01E146D1010AAD
:100A100001E143D1030A01E140D1010A01E13DD1E5
:100A20000F0A01E13AD1190A01E11CD1030A01E1DF
:100A300019D1010A01E116D1070A01E113D1010A16
:100A400001E110D1030A01E10DD1010A01E10AD14E
:100A50000F0A01E107D1790A01E1E9D0030A01E1B6
:100A6000E6D0010A01E1E3D0070A01E1E0D0010A82
:100A700001E1DDD0030A01E1DAD0010A01E1D7D0BA
:100A80000F0A01E1D4D01D0A01E17ED0010A52E033
:100A9000070A4DE0020A48E0010A3BE0330A34E06D
:100AA000010A2FE0030A21E0010A10E01F0A0BE00F
:100AB000010A06E00E0A01E0EDD1100E6A6EEED1D9
:100AC00000C16AFFEBD1100E6A6EE8D13F0E8114AF
:100AD000E66EE4EC0AF0E552E66E0BEC0BF0E55244
:100AE0000101016F01C16AFFD9D13F0E9314E81CC7
:100AF000E66EE4EC0AF0E5520101026F02C16AFF02
:100B0000CDD103C16AFFCAD13F0E010104156A6E3F
:100B1000C5D138EC0CF0E66E73EC0CF0E552010137
:100B2000056F05C16AFFBAD106C16AFFB7D107C117
:100B30006AFFB4D101010F51800DF3CF3BF00101E9
:100B40000E51400DF3CF3AF001010D51200DF3CFBE
:100B500039F001010C39F00B386E01010B51080D11
:100B6000F3CF37F001010A51040DF3CF36F0010144
:100B70000951E824010108113610371038103910D6
:100B80003A103B106A6E8AD101019151800DF350E9
:100B9000010802E1010E01D0000E3C6E01019051EE
:100BA000400DF350010802E1010E01D0000E3B6E32
:100BB00001018F51200DF350010802E1010E01D017
:100BC000000E3A6E01018E39F00B010802E1010EB0
:100BD00001D0000E396E01018D51080DF35001084E
:100BE00002E1010E01D0000E386E01018C51040D9E
:100BF000F350010802E1010E01D0000E376E010131
:100C00008B51E824010802E1010E01D0000E366E7E
:100C100001018A0502E1010E01D0000E36103710E5
:100C2000381039103A103B103C106A6E37D1310E33
:100C30000101DA5DE66E310E0101DA5DE96EEA6A04
:100C4000D890E936EA36300EE926010EEA22EECFD8
:100C5000E6FFEFCFE6FF6AEC12F0E552E552E5520F
:100C60006A6E1CD1410E0101DA5DE66E410E010192
:100C7000DA5DE96EEA6AD890E936EA36500EE9267E
:100C8000010EEA22EECFE6FFEFCFE6FF6AEC12F0AC
:100C9000E552E552E5526A6E01D1510E0101DA5D6D
:100CA000E66E510E0101DA5DE96EEA6AD890E93626
:100CB000EA36600EE926010EEA22EECFE6FFEFCF1C
:100CC000E6FF6AEC12F0E552E552E5526A6EE6D0B4
:100CD000610E0101DA5DEA6A700FE96E010EEA2227
:100CE000EF50E66EE66A18EC13F0E552E5526A6ED4
:100CF000D5D0710E0101DA5DEA6A780FE96E010E56
:100D0000EA22EF50E66EE66A18EC13F0E552E5527F
:100D10006A6EC4D0910E0101DA5DEA6A800FE96E55
:100D2000010EEA22EF506A6EB9D0930EE66E010E04
:100D3000E66E920EE66E010EE66EC8EC0DF0E55220
:100D4000E552E552E55293C16AFF92C1DBF1A6D0AC
:100D5000950EE66E010EE66E940EE66E010EE66EE0
:100D600084EC0FF0E552E552E552E55295C16AFF79
:100D700094C1DBF193D098C16AFF97C1DBF18ED0AB
:100D80009AC16AFF99C1DBF189D0B10E0101DA5D28
:100D9000376E010E375204E0E846FE0B3706FCE1E1
:100DA000366E0101991D361429E0B10E0101DA5D9C
:100DB000E96EEA6AD890E936EA369B0EE926010E1A
:100DC000EA22EECF36F0EFCF37F037C036F0376A91
:100DD00036506A6EB10E0101DA5DE96EEA6AD890AA
:100DE000E936EA369B0EE926010EEA22EECF36F00E
:100DF000EFCF37F036500101DB6F03D06A6A010193
:100E0000DB6B4CD0B80E0101DA5D376E010E375244
:100E100004E0E846FE0B3706FCE1366E01019A1D40
:100E2000361429E0B10E0101DA5DE96EEA6AD89064
:100E3000E936EA369B0EE926010EEA22EECF36F0BD
:100E4000EFCF37F037C036F0376A36506A6EB10EE2
:100E50000101DA5DE96EEA6AD890E936EA369B0E5E
:100E6000E926010EEA22EECF36F0EFCF37F036500A
:100E70000101DB6F03D06A6A0101DB6B0FD0D10E79
:100E80000101DA5DEA6ABB0FE96E010EEA22EF505A
:100E90006A6E04D06A680101DB6900D0678831D2CC
:100EA00068B42FD20101DE6BDF6B0101BF6B010162
:100EB000D95103E16ACFDAF109D00101D951EA6AC7
:100EC000C20FE96E010EEA226ACFEFFF0A0E01019E
:100ED000D95D02E20101D92B67BC679C020E0101BA
:100EE000D95D01E0DAD10101DA51D10A01E1BFD1C6
:100EF000030A01E1BCD1010A01E1B9D1070A01E10C
:100F0000B6D1450A01E1A8D1030A01E1A5D1010A40
:100F100001E1A2D1070A01E19FD1010A01E19CD1BF
:100F2000030A01E199D1010A01E196D10F0A01E119
:100F300093D1E90A01E177D1030A01E174D1010AF1
:100F400001E171D1070A01E16ED1010A01E16BD122
:100F5000030A01E168D1010A01E165D10F0A01E14B
:100F600062D1190A01E146D1030A01E143D1010A24
:100F700001E140D1070A01E13DD1010A01E13AD185
:100F8000030A01E137D1010A01E134D10F0A01E17D
:100F900031D1390A01E10FD1030A01E10CD1010A73
:100FA00001E109D1070A01E106D1010A01E103D1FA
:100FB000030A01E100D1010A01E1FDD00F0A01E1BC
:100FC000FAD0190A01E1D8D0030A01E1D5D0010A0B
:100FD00001E1D2D0070A01E1CFD0010A01E1CCD072
:100FE000030A01E1C9D0010A01E1C6D00F0A01E1FB
:100FF000C3D0790A01E180D0030A01E17DD0010A62
:1010000001E17AD0070A01E177D0010A75E0030A0D
:1010100073E0010A71E00F0A6FE01D0A67E0010A40
:101020005AE0070A55E0020A4BE0010A41E0330AA0
:1010300039E0010A2BE0030A18E0010A06E01E0A63
:1010400001E02AD1C3C100F128D13F0E0101C3152F
:101050000101016F01C1E6FFBDEC0AF0E552366EF9
:10106000C00E8A1436108A6E18D13F0E0101C315C6
:101070000101026F02C1E6FFBDEC0AF0E552E81C77
:10108000366EC00E93143610936E07D1010E010117
:10109000C3150101036F0101035102E0F19E01D06C
:1010A000F18EFBD03F0E0101C3150101046FF5D095
:1010B000C3C105F105C1E6FFE2EC0BF0E552EDD04E
:1010C000C3C106F106C1E6FF59EC0BF0E552E5D0CD
:1010D000C3C107F1E2D0C3C1E6FF86EC0CF0E552D4
:1010E00006C1E6FF59EC0BF0E552D7D0C3C1E6FFCD
:1010F000BBEC0CF0E552D1D00101C35110E1310E2F
:101100000101DA5DEA6A080FE96E010EEA22010EBA
:10111000EF6E06C1E6FF59EC0BF0E5522CD0310E14
:101120000101DA5DEA6A080FE96E010EEA22EF6A50
:10113000310E0101DA5DE66EC3C1E6FFECEC11F0A1
:10114000E552E552F3CF36F0F4CF37F0310E01011E
:10115000DA5DE96EEA6AD890E936EA36300EE926B9
:10116000010EEA2236C0EEFF37C0EDFF06C1E6FFF2
:1011700059EC0BF0E55291D0410E0101DA5DE66EBB
:10118000C3C1E6FFECEC11F0E552E552F3CF36F0C7
:10119000F4CF37F0410E0101DA5DE96EEA6AD890CA
:1011A000E936EA36500EE926010EEA2236C0EEFF95
:1011B00037C0EDFF72D0510E0101DA5DE66EC3C19A
:1011C000E6FFECEC11F0E552E552F3CF36F0F4CF48
:1011D00037F0510E0101DA5DE96EEA6AD890E9361E
:1011E000EA36600EE926010EEA2236C0EEFF37C06D
:1011F000EDFF53D00101C35103E10101010EC36FA3
:10120000C3C1E6FF01EC13F0E552F350E66E610E48
:101210000101DA5DEA6A700FE96E010EEA22E55219
:10122000E750EF6E3AD00101C35103E10101010E15
:10123000C36FC3C1E6FF01EC13F0E552F350E66E55
:10124000710E0101DA5DEA6A780FE96E010EEA2299
:10125000E552E750EF6E21D0910E0101DA5DEA6AA6
:10126000800FE96E010EEA22C3C1EFFF16D0D10E46
:101270000101DA5DEA6ABB0FE96E010EEA22C3C121
:10128000EFFFC3C1E6FFD10E0101DA5DE66E6FEC40
:1012900013F0E552E55201D000D0030E0101D95DF3
:1012A00030E10101DA51A40A22E0070A1BE0020A38
:1012B00010E0010A01E024D0C3C192F1C4C193F14E
:1012C00093C1E6FF92C1E6FFF0EC0CF0E552E55267
:1012D00018D0C4C1E6FFC3C1E6FF5AEC0EF0E552D8
:1012E000E5520FD0C3C197F1C4C198F10AD0C4C16F
:1012F000E6FFC3C1E6FF0CEC10F0E552E55201D069
:1013000000D06850200B17E06850040B14E06850C0
:10131000010B11E1DBC16AFF0000000000000000CA
:1013200000000000000000000000000000000000BD
:10133000000000006788A19AD0D0BAA0CDD0BA90A2
:10134000C450386E38C039F0386AC35000013810C4
:10135000366E39C037F0010E36C0DBFF020E37C0E3
:10136000DBFF010EDBCF36F0020EDBCF37F00001E2
:10137000800E371404E0010EDB6A020EDB6A010105
:10138000DD51E96EEA6AD890E936EA369B0EE92625
:10139000010EEA22010EDBCFEEFF020EDBCFEDFFE6
:1013A0000101DD2B0E0E0101DD5D02E30101DD6BAC
:1013B000DDC1E6FFD7EC10F0E5520101DC6F010161
:1013C000DC511F0BF36EF346F346830EC214F31089
:1013D000C26EC2820101C051C11104E00101C00707
:1013E000000EC15B0101DE2B000EDF23E80E0101C0
:1013F000DE1902E1030EDF196EE10101DE6BDF6B26
:101400000101BF51366E376AD890375004E6FE0EA0
:10141000365C000E375802E20101BF2B010100517A
:101420005AE0010100510101D880BF5554E2DF6A42
:10143000080EDF5C3CE2DF50EA6A080FE96E010E3D
:10144000EA22010EEF6EDFCFE6FF800EE66EECECD7
:1014500011F0E552E552F3CF36F0F4CF37F0EA6AF7
:10146000DF34FE0BEA36E96E300EE926010EEA2281
:1014700036C0EEFF37C0EDFFDFCFE6FF800EE66E31
:10148000ECEC11F0E552E552F3CF36F0F4CF37F043
:10149000EA6ADF34FE0BEA36E96E400EE926010EF9
:1014A000EA2236C0EEFF37C0EDFFDF2AC1D7DF6A80
:1014B000040EDF5C10E2DF50EA6ABB0FE96E010E3A
:1014C000EA22EF6AE66ADFCFE6FF6FEC13F0E5523F
:1014D000E552DF2AEDD701D0FFD7E552E552E552BC
:1014E000E552E5CFDAFFE7CFD9FFE55200EE25F070
:1014F000120EE80403E3E5CFEDFFFBD700EE35F075
:10150000100EE80403E3E5CFEDFFFBD7E5CFFAFFCC
:10151000E5CFF4FFE5CFF3FFE5CFF5FFE5CFF7FF2C
:0E152000E5CFF6FFE5CFEAFFE5CFE9FF1100CA
:02152E008F0E1E
:10153000D3147009D36E9B8C12002F0E926E936899
:10154000C00E946E6F0E956E030E966E9768270E02
:10155000986EF18E0101036B949C949E95909592E8
:10156000959495969598959E8B9C8B9E8C908C923D
:101570008C948C968C988C9E1200D9CFE6FFDACF93
:10158000E6FFE1CFD9FFE2CFDAFFE652DF6AFD0ED8
:10159000DBB0DF82FD0EDBB2DF86FD0EDBB4DF8A5F
:1015A000FD0EDBA602D0000EDB80FD0EDBB8DF8473
:1015B000FD0EDBBADF88DF5000D0E552E552E5CF03
:1015C000DAFFE7CFD9FF1200D9CFE6FFDACFE6FF87
:1015D000E1CFD9FFE2CFDAFFE652DF6AFD0EDBA2F0
:1015E00002D0000EDB80FD0EDBB6DF82FD0EDBBA23
:1015F000DF84FD0EDBB0DF86FD0EDBB4DF88FD0E81
:10160000DBB8DF8ADF5000D0E552E552E5CFDAFFE4
:10161000E7CFD9FF1200D9CFE6FFDACFE6FFE1CF5F
:10162000D9FFE2CFDAFFFD0EDB500101041900D033
:10163000E552E5CFDAFFE7CFD9FF1200D9CFE6FFB9
:10164000DACFE6FFE1CFD9FFE2CFDAFFE652DF6A79
:1016500094A403D0010EDF10DF6E94A603D0020E17
:10166000DF10DF6E94A803D0040EDF10DF6E94AAA3
:1016700003D0080EDF10DF6E92AC03D0100EDF1027
:10168000DF6E92AE03D0200EDF10DF6E94A003D089
:10169000400EDF10DF6E94A203D0800EDF10DF6EED
:1016A000DF5000D0E552E552E5CFDAFFE7CFD9FFB2
:1016B0001200D9CFE6FFDACFE6FFE1CFD9FFE2CFC4
:1016C000DAFF0101080507E1FD0EDBB002D09484CA
:1016D00001D0949401D09494010109050AE1FD0E12
:1016E000DB50020BE8407F0B02E1948601D0949618
:1016F00001D0949601010A050BE1FD0EDB50040BAD
:10170000E840E8403F0B02E1948801D0949801D072
:10171000949801010B050CE1FD0EDB50080BE8402D
:10172000E840E8401F0B02E1948A01D0949A01D06E
:10173000949A01010C050AE1FD0EDB50100BE8380C
:101740000F0B02E1928C01D0929C01D0929C01017E
:101750000D050CE1FD0EDB50200BE00BE838E840F6
:10176000000902E1928E01D0929E01D0929E010169
:101770000E0513E1060E146EFD0EDB50400B14C077
:10178000E7FFE75204E0E8427F0BE706FCE10009CF
:1017900002E1948001D0949001D0949001010F0552
:1017A0000AE1FD0EDB50800BE844010B02E194825C
:1017B00001D0949201D09492E552E5CFDAFFE7CFC1
:1017C000D9FF1200D9CFE6FFDACFE6FFE1CFD9FF8C
:1017D000E2CFDAFF0101080506E1FD0EDBA002D031
:1017E000828401D082940101090506E1FD0EDBA28D
:1017F00002D0828601D0829601010A0506E1FD0E23
:10180000DBA402D0828801D0829801010B0506E199
:10181000FD0EDBA602D0828A01D0829A01010C055E
:1018200006E1FD0EDBA802D0808C01D0809C010176
:101830000D0506E1FD0EDBAA02D0808E01D0809E50
:1018400001010E0506E1FD0EDBAC02D0828001D065
:10185000829001010F0506E1FD0EDBAE02D082820F
:1018600001D08292E552E5CFDAFFE7CFD9FF12002F
:10187000D9CFE6FFDACFE6FFE1CFD9FFE2CFDAFF3B
:10188000E652DF6A82A403D0010EDF10DF6E82A66B
:1018900003D0020EDF10DF6E82A803D0040EDF102B
:1018A000DF6E82AA03D0080EDF10DF6E80AC03D09B
:1018B000100EDF10DF6E80AE03D0200EDF10DF6E63
:1018C00082A003D0400EDF10DF6E82A203D0800E14
:1018D000DF10DF6EDF5000D0E552E552E5CFDAFFD2
:1018E000E7CFD9FF1200D9CFE6FFDACFE6FFE1CF8D
:1018F000D9FFE2CFDAFFFD0EDB500101071900D05E
:10190000E552E5CFDAFFE7CFD9FF1200D9CFE6FFE6
:10191000DACFE6FFE1CFD9FFE2CFDAFFE652DF6AA6
:10192000080EDF5C21E2FD0EDBCFE6FF010EDF5289
:1019300006E0DFCFF3FFE846FE0BF306FCE1E552DD
:10194000E71409E0DF50EA6A080FE96E010EEA22A7
:10195000010EEF6E07D0DF50EA6A080FE96E010E44
:10196000EA22EF6ADF2ADCD7E552E552E5CFDAFF5B
:10197000E7CFD9FF1200D9CFE6FFDACFE6FFE1CFFC
:10198000D9FFE2CFDAFFE652DF6A080EDF5C21E220
:10199000FD0EDBCFE6FF010EDF5206E0DFCFF3FFE7
:1019A000E846FE0BF306FCE1E552E71409E0DF50E0
:1019B000EA6A8A0FE96E010EEA22010EEF6E07D085
:1019C000DF50EA6A8A0FE96E010EEA22EF6ADF2A27
:1019D000DCD7E552E552E5CFDAFFE7CFD9FF1200B9
:1019E000D9CFE6FFDACFE6FFE1CFD9FFE2CFDAFFCA
:1019F000010E01019915010806E1FD0EDBA002D0E0
:101A0000868201D08692020E01019915E8407F0B73
:101A1000010806E1FD0EDBA202D0858E01D0859E75
:101A2000040E01019915E840E8403F0B010806E16A
:101A3000FD0EDBA402D0858A01D0859A080E010133
:101A40009915E840E840E8401F0B010806E1FD0E4B
:101A5000DBA602D0858601D08596100E010199156E
:101A6000E8380F0B010806E1FD0EDBA802D08582E5
:101A700001D08592200E01019915E00BE838E8406D
:101A8000010806E1FD0EDBAA02D0808201D080921F
:101A9000060E146E400E0101991514C0E7FFE752BF
:101AA00004E0E8427F0BE706FCE1010806E1FD0ED9
:101AB000DBAC02D0808601D08096010E01019A1520
:101AC000010806E1FC0EDBA002D0868401D08694DA
:101AD000020E01019A15E8407F0B010806E1FC0E99
:101AE000DBA202D0858C01D0859C040E01019A15E1
:101AF000E840E8403F0B010806E1FC0EDBA402D001
:101B0000858801D08598080E01019A15E840E840C3
:101B1000E8401F0B010806E1FC0EDBA602D085841D
:101B200001D08594100E01019A15E8380F0B0108B9
:101B300006E1FC0EDBA802D0808001D08090200E50
:101B400001019A15E00BE838E840010806E1FC0EB7
:101B5000DBAA02D0808401D08094060E146E400E61
:101B600001019A1514C0E7FFE75204E0E8427F0B39
:101B7000E706FCE1010806E1FC0EDBAC02D0808A3E
:101B800001D0809AE552E5CFDAFFE7CFD9FF120006
:101B9000D9CFE6FFDACFE6FFE1CFD9FFE2CFDAFF18
:101BA000E652E652DF6A010EDB6A86A203D0010E1E
:101BB000DF10DF6E85AE03D0020EDF10DF6E85AA68
:101BC00003D0040EDF10DF6E85A603D0080EDF10F1
:101BD000DF6E85A203D0100EDF10DF6E80A203D06F
:101BE000200EDF10DF6E80A603D0400EDF10DF6E08
:101BF00086A407D0010EDB500109E76E010EE7CF86
:101C0000DBFF85AC07D0010EDB500209E76E010E49
:101C1000E7CFDBFF85A807D0010EDB500409E76E94
:101C2000010EE7CFDBFF85A407D0010EDB500809CA
:101C3000E76E010EE7CFDBFF80A007D0010EDB507F
:101C40001009E76E010EE7CFDBFF80A407D0010E7D
:101C5000DB502009E76E010EE7CFDBFF80AA07D03B
:101C6000010EDB504009E76E010EE7CFDBFF010EEE
:101C7000DB5001019819E66EFA0EDBCFE9FFFB0E8F
:101C8000DBCFEAFFE552E750EF6EDF500101971915
:101C9000E66EFC0EDBCFE9FFFD0EDBCFEAFFE5527F
:101CA000E750EF6EE552E552E552E5CFDAFFE7CFB8
:101CB000D9FF1200D9CFE6FFDACFE6FFE1CFD9FF97
:101CC000E2CFDAFF010E01019915010808E1FD0ECE
:101CD000DB50010B010802E1989201D09882020EBC
:101CE00001019915E8407F0B01080AE1FD0EDB5068
:101CF000020BE8407F0B010802E1979E01D0978E0E
:101D0000040E01019915E840E8403F0B01080BE182
:101D1000FD0EDB50040BE840E8403F0B010802E1F8
:101D2000979A01D0978A080E01019915E840E8407A
:101D3000E8401F0B01080CE1FD0EDB50080BE840EA
:101D4000E840E8401F0B010802E1979601D0978612
:101D5000100E01019915E8380F0B01080AE1FD0E7C
:101D6000DB50100BE8380F0B010802E1979201D00D
:101D70009782200E01019915E00BE838E840010830
:101D80000BE1FD0EDB50200BE00BE838E8400108CA
:101D900002E1929201D09282060E146E400E010171
:101DA000991514C0E7FFE75204E0E8427F0BE7060D
:101DB000FCE1010812E1060E146EFD0EDB50400B33
:101DC00014C0E7FFE75204E0E8427F0BE706FCE1BE
:101DD000010802E1929601D09286010E01019A1546
:101DE000010808E1FC0EDB50010B010802E19894A8
:101DF00001D09884020E01019A15E8407F0B01087A
:101E00000AE1FC0EDB50020BE8407F0B010802E107
:101E1000979C01D0978C040E01019A15E840E84088
:101E20003F0B01080BE1FC0EDB50040BE840E840DF
:101E30003F0B010802E1979801D09788080E010135
:101E40009A15E840E840E8401F0B01080CE1FC0E41
:101E5000DB50080BE840E840E8401F0B010802E1B6
:101E6000979401D09784100E01019A15E8380F0B52
:101E700001080AE1FC0EDB50100BE8380F0B0108DB
:101E800002E1929001D09280200E01019A15E00BA0
:101E9000E838E84001080BE1FC0EDB50200BE00BBA
:101EA000E838E840010802E1929401D09284060EDD
:101EB000146E400E01019A1514C0E7FFE75204E0CA
:101EC000E8427F0BE706FCE1010812E1060E146E02
:101ED000FC0EDB50400B14C0E7FFE75204E0E84281
:101EE0007F0BE706FCE1010802E1929A01D0928A99
:101EF000FD0EDBCF94F1FC0EDBCF95F1E552E5CF83
:101F0000DAFFE7CFD9FF1200D9CFE6FFDACFE6FF3D
:101F1000E1CFD9FFE2CFDAFFE652E652DF6A010EE7
:101F2000DB6A98B203D0010EDF10DF6E97BE03D0DC
:101F3000020EDF10DF6E97BA03D0040EDF10DF6EE3
:101F400097B603D0080EDF10DF6E97B203D0100EE5
:101F5000DF10DF6E92B203D0200EDF10DF6E92B67C
:101F600003D0400EDF10DF6E98B407D0010EDB50B7
:101F70000109E76E010EE7CFDBFF97BC07D0010E2A
:101F8000DB500209E76E010EE7CFDBFF97B807D001
:101F9000010EDB500409E76E010EE7CFDBFF97B4BB
:101FA00007D0010EDB500809E76E010EE7CFDBFF1B
:101FB00092B007D0010EDB501009E76E010EE7CF9B
:101FC000DBFF92B407D0010EDB502009E76E010E53
:101FD000E7CFDBFF92BA07D0010EDB504009E76E76
:101FE000010EE7CFDBFFFC0EDBCFE9FFFD0EDBCF01
:101FF000EAFFDFCFEFFFFA0EDBCFE9FFFB0EDBCF0F
:10200000EAFF010EDBCFEFFFE552E552E552E5CFE7
:10201000DAFFE7CFD9FF1200D9CFE6FFDACFE6FF2C
:10202000E1CFD9FFE2CFDAFFFD0EDBB003D00F0125
:10203000238702D00F012397FD0EDB50020BE840EF
:102040007F0B03E10F01258B02D00F01259BFD0EB5
:10205000DB50040BE840E8403F0B03E10F0124850F
:1020600002D00F012495FD0EDB50080BE840E8403C
:10207000E8401F0B03E10F01248102D00F012491DE
:10208000FD0EDB50100BE8380F0B03E10F01258D1F
:1020900002D00F01259DFD0EDB50200BE00BE83830
:1020A000E840000903E10F01258302D00F012593C9
:1020B000060E146EFD0EDB50400B14C0E7FFE75216
:1020C00004E0E8427F0BE706FCE1000903E10F01B1
:1020D000258702D00F012597FC0EDBB003D00F013E
:1020E000238502D00F012395FC0EDB50020BE84044
:1020F0007F0B03E10F01248702D00F012497FC0E10
:10210000DB50040BE840E8403F0B03E10F01248360
:1021100002D00F012493FC0EDB50080BE840E8408E
:10212000E8401F0B03E10F01258F02D00F01259F0F
:10213000FC0EDB50100BE8380F0B03E10F0125817B
:1021400002D00F012591FC0EDB50200BE00BE8388C
:10215000E840000903E10F01258502D00F01259514
:10216000060E146EFC0EDB50400B14C0E7FFE75266
:1021700004E0E8427F0BE706FCE1000903E10F0100
:10218000258902D00F012599FD0EDBCF99F1FC0EB8
:10219000DBCF9AF195C1E6FF94C1E6FF8BDDE552F6
:1021A000E552E552E5CFDAFFE7CFD9FF1200D9CFEC
:1021B000E6FFDACFE6FFE1CFD9FFE2CFDAFFFD0E8F
:1021C000DB50EA6A000FE96E0F0EEA22EF5000D0F2
:0C21D000E552E5CFDAFFE7CFD9FF12009F
:0421DC00D9CFE6FF72
:1021E000DACFE6FFE1CFD9FFE2CFDAFFE652870E82
:1021F000CA140009CA6EFC0ECA140009CA6ECC6A61
:10220000FE0ECB6ECA843F0EB1140009B16ECF0E24
:10221000B1143009B16EB1823C0EB36EAF0EB26E26
:10222000A192A082A282B180870E6B1418096B6EF6
:10223000FC0E6B1403096B6EFA0E6C6E6D6ABA902D
:10224000B980D2906B84DF6A080EDF5C01E3ACD00A
:10225000DF50EA6A080FE96E010EEA22EF6AEA6AC5
:10226000DF34FE0BEA36E96E100EE926010EEA2293
:10227000A00EEE6E0F0EED6EEA6ADF34FE0BEA364C
:10228000E96E200EE926010EEA22D00EEE6E070E50
:10229000ED6EDFCFE6FF800EE66E9ED8E552E5528A
:1022A000F3CF14F0F4CF15F0EA6ADF34FE0BEA3610
:1022B000E96E300EE926010EEA2214C0EEFF15C0C9
:1022C000EDFFDFCFE6FFE66887D8E552E552F3CFB2
:1022D00014F0F4CF15F0EA6ADF34FE0BEA36E96E4B
:1022E000500EE926010EEA2214C0EEFF15C0EDFFE4
:1022F000DFCFE6FF010EE66E6FD8E552E552F3CF71
:1023000014F0F4CF15F0EA6ADF34FE0BEA36E96E1A
:10231000600EE926010EEA2214C0EEFF15C0EDFFA3
:10232000E6686FD9E552F350E66EDF50EA6A700F47
:10233000E96E010EEA22E552E750EF6EE66861D9D8
:10234000E552F350E66EDF50EA6A780FE96E010E4F
:10235000EA22E552E750EF6EDFCFE6FF800EE66E31
:102360003BD8E552E552F3CF14F0F4CF15F0EA6A0A
:10237000DF34FE0BEA36E96E400EE926010EEA2252
:1023800014C0EEFF15C0EDFFDF50EA6A800FE96E62
:10239000010EEA22EF6ADF50EA6A8A0FE96E010E47
:1023A000EA22EF6ADF2A50D70101886B0101896BAD
:1023B000DF6A040EDF5C09E2DF50EA6ABB0FE96EF8
:1023C000010EEA22EF6ADF2AF4D7E552E552E5CFA3
:1023D000DAFFE7CFD9FF1200D9CFE6FFDACFE6FF69
:1023E000E1CFD9FFE2CFDAFFFC0EEA6ADB34FE0B65
:1023F000EA36E96E200EE926010EEA22EECF18F049
:10240000EFCF19F01A6A1B6AFD0EDBCF22F0236AA8
:10241000246A256AFC0EEA6ADB34FE0BEA36E96EB2
:10242000100EE926010EEA22EECF20F0EFCF21F0C8
:10243000FC0EEA6ADB34FE0BEA36E96E200EE92672
:10244000010EEA22EE50205C1C6EEE5021581D6EEB
:102450001E6A1F6A1CC02AF01DC02BF01EC02CF083
:102460001FC02DF022C02FF023C030F024C031F067
:1024700025C032F075EC14F026C02AF027C02BF0EE
:1024800028C02CF029C02DF02F6A010E306E316A61
:10249000326AE4EC14F018502A24146E19502B20E0
:1024A000156E1A502C20166E1B502D20176E020E22
:1024B0001426000E1522000E1622000E172214C03C
:1024C000F3FF15C0F4FF00D0E552E5CFDAFFE7CF08
:1024D000D9FF1200D9CFE6FFDACFE6FFE1CFD9FF6F
:1024E000E2CFDAFFFC0EDBCF14F0FD0EDBCF15F0F0
:1024F000FB0EEA6ADB34FE0BEA36E96E200EE926B3
:10250000010EEA22EECF16F0EFCF17F01450165C52
:102510001550175802E3000E6ED0FC0EDBCF14F0FE
:10252000FD0EDBCF15F0FB0EEA6ADB34FE0BEA365C
:10253000E96E100EE926010EEA22EECF16F0EFCF7B
:1025400017F01650145C1750155802E3FF0E53D0C5
:10255000FB0EEA6ADB34FE0BEA36E96E100EE92662
:10256000010EEA22EECF1EF0EFCF1FF0FB0EEA6A5B
:10257000DB34FE0BEA36E96E200EE926010EEA2274
:10258000EE501E5C1A6EEE501F581B6E1C6A1D6AC0
:10259000FC0EDBCF18F0FD0EDBCF19F0FB0EEA6A64
:1025A000DB34FE0BEA36E96E200EE926010EEA2244
:1025B000EE50185C146EEE501958156E166A176AB4
:1025C00016C017F015C016F014C015F0146A14C028
:1025D0002AF015C02BF016C02CF017C02DF01AC031
:1025E0002FF01BC030F01CC031F01DC032F0E4EC05
:1025F00014F02A5000D0E552E5CFDAFFE7CFD9FF3B
:102600001200D9CFE6FFDACFE6FFE1CFD9FFE2CF64
:10261000DAFFFD0EDB50146E156A14C0F3FF15C00F
:10262000F4FF00D0E552E5CFDAFFE7CFD9FF120083
:10263000D9CFE6FFDACFE6FFE1CFD9FFE2CFDAFF6D
:10264000FC0EDB5000D0E552E5CFDAFFE7CFD9FF33
:02265000120076
:0E2652000F012D972D992D9B0F012C9D2C9F74
:102660000F012C990F012C950F012C912C930F0128
:102670002B990F012B950F012B912B930F014F6B72
:10268000786A756A726A6F6A0F01476B0F01446B53
:102690000F01416B0F014E914E934E854E87F00E08
:1026A00077140C09776EF00E74140C09746EF00E2A
:1026B00071140C09716EF00E6E140C096E6E0F0120
:1026C00046914693468546870F0143914393438540
:1026D00043870F0140914093408540871200D9CF36
:1026E000E6FFDACFE6FFE1CFD9FFE2CFDAFFFD0E5A
:1026F000DB50020A01E178D0010A4FE0030A26E02C
:10270000010A01E09CD0FC0EDB5003E1786A756A97
:102710001CD0FC0EDB50800803E17868756815D08A
:10272000FC0EDB50800807E2FC0EDB50800FE82433
:10273000786E756A0AD0786AFC0EDBCFE6FF800EF1
:10274000E552D880E754E824756E7AD0FC0EDB5051
:1027500004E1726A0F014F6B1FD0FC0EDB50800842
:1027600004E172680F014F6917D0FC0EDB5080083E
:1027700008E2FC0EDB50800FE824726E0F014F6BF5
:102780000BD0726AFC0EDBCFE6FF800EE552D880DC
:10279000E754E8240F014F6F53D0FC0EDB5004E1E7
:1027A0006F6A0F01476B1FD0FC0EDB50800804E1FD
:1027B0006F680F01476917D0FC0EDB50800808E2F4
:1027C000FC0EDB50800FE8246F6E0F01476B0BD0BF
:1027D0006F6AFC0EDBCFE6FF800EE552D880E7542F
:1027E000E8240F01476F2CD0FC0EDB5005E10F01F0
:1027F000446B0F01416B22D0FC0EDB50800805E1D9
:102800000F0144690F01416919D0FC0EDB508008AB
:1028100009E2FC0EDB50800FE8240F01446F0F012A
:10282000416B0CD00F01446BFC0EDBCFE6FF800E3A
:10283000E552D880E754E8240F01416F01D000D061
:0C284000E552E5CFDAFFE7CFD9FF120028
:04284C001E0EF66EF8
:10285000000EF76E000EF86E01010900F550D16F01
:102860000900F550D26F03E1D16701D03DD00900D6
:10287000F550CC6F0900F550CD6F0900F550CE6FC3
:1028800009000900F550E96E0900F550EA6E0900EB
:1028900009000900F550CF6F0900F550D06F09000D
:1028A0000900F6CFD3F1F7CFD4F1F8CFD5F1CCC1F1
:1028B000F6FFCDC1F7FFCEC1F8FF0101CF5302E112
:1028C000D05307E00900F550EE6ECF07F8E2D007CD
:1028D000F9D7D3C1F6FFD4C1F7FFD5C1F8FF010185
:0A28E000D107000ED25BBFD7120033
:0628EA002A502F02F3CF7B
:1028F00026F0F4CF27F03002F3502726000EF42004
:10290000286E2A503102F3502826000EF420296E3A
:102910002A503202F35029262B502F02F35027263B
:10292000F4502822000E29222B503002F350282682
:10293000F45029222B503102F35029262C502F021B
:10294000F3502826F45029222C503002F350292627
:0A2950002D502F02F350292612002B
:06295A00D9CFE6FFDACF41
:10296000E6FFE1CFD9FFE2CFDAFFE652C08EE66A9A
:10297000E66A0CEC10F0E552E552F80EC0140609B8
:10298000C06EC70EC0143809C06EC280E66AE66A1F
:102990005AEC0EF0E552E552DF6A0E0EDF5C0DE2F6
:1029A000EA6ADF34FE0BEA36E96E9B0EE926010E79
:1029B000EA22EE6AED6ADF2AF0D7E552E552E5CF6A
:0829C000DAFFE7CFD9FF120096
:0829C800296A286A276A266AC1
:1029D000200EE76ED8902A362B362C362D3626362A
:1029E0002736283629362F50265C3050275831504C
:1029F00028583250295809E32F50265E3050275A64
:102A00003150285A3250295A2A2AE72EE4D7120088
:102A100089880101E80EC06F030EC16F1200F29C9D
:102A20000101C051C11106E107D80101E80EC06FD4
:0C2A3000030EC16FF28C120089781200B6
:042A3C0097EC0AF019
:102A40009DEC0AF050EC15F0ADEC14F0EEEC10F04B
:102A500029EC13F022EC00F008EC15F00FEC15F067
:042A6000FDD712008C
:0C2A6400160EF36E00EE00F00F0E01D80D
:102A70001200EA6002D0EE6AFCD7F350E96012005F
:042A8000EE6AFCD727
:0C2A84001EEE00F02EEE00F0F86A359C0B
:102A900026EC14F003EC00F01EEC15F0FBD712004E
:102AA000958A958CF00E67140609676E380E696E6C
:0A2AB000A19AA08AA29A678A120078
:062ABA0000000000000016
:102AC0000000000000000000000000000000000006
:102AD00000000000000000000000000000000000F6
:102AE00000000000000000000000000000000000E6
:102AF00000000000000000000000000000000000D6
:102B000000000000000000000000000000000000C5
:102B100000000000000000000000000000000000B5
:102B200000000000000000000000000000000000A5
:102B30000000000000000000000000000000000095
:102B40000000000000000000000000000000000085
:102B50000000000000000000000000000000000075
:102B60000000000000000000000000000000000065
:0C2B700000000000000000000000000059
:042B7C0013050A082B
:0A2B8000060103120B09070002040E
:020000040030CA
:0100000010EF
:010001009866
:0100020003FA
:0100030000FC
:0100040000FB
:010005008872
:0100060000F9
:010008000FE8
:01000900C036
:01000A000FE6
:01000B00E014
:01000C000FE4
:01000D0040B2
:00000001FF
