:020000040000FA
:060000008CEF15F0120068
:020006001200E6
:0600080026EF00F01200DB
:02000E000000F0
:080010000000000000000000E8
:0600180029EF04F01200C4
:02001E000300DD
:100020000E000000D70100000A000000112C0000A3
:10003000000F00000E0000004E2B00000001000029
:04004000C3000000F9
:0C004400D08EF28CF28E1200E9CFE4FFA7
:10005000EACFE4FFF3CFE4FFF4CFE4FFE652D9CFD9
:10006000E6FFDACFE6FFE1CFD9FFE2CFDAFF070EF6
:10007000E12402E3E168E652E16EDE6ADD6A030E26
:10008000DB6A040EDB6A050EDB6A060EDB6AA1A2E0
:10009000CAD301018A5101E1A3D001018951070AA4
:1000A0001DE0010A19E0030A15E0010A11E0070A40
:1000B0000DE0010A09E0030A05E0010A01E010D0A1
:1000C00082940FD082960DD082980BD0829A09D05C
:1000D000809C07D0809E05D0829003D0829201D070
:1000E00000D001018A6B04680568066A076A700E11
:1000F0000C6E170E0D6E0E6A0F6A01018951E96EC2
:10010000EA6AD890E936EA36410EE926010EEA227B
:10011000EECF10F0EFCF11F0126A136A10500C5CA2
:10012000086E11500D58096E12500E580A6E135079
:100130000F580B6E0850045C006E09500558016E94
:100140000A500658026E0B500758036E030E00C08B
:10015000DBFF040E01C0DBFF030EDBCF00F0040E5B
:10016000DBCF01F001C000F0016A0050B36EFF0E5A
:10017000E76E030EDBCF00F0040EDBCF01F0E7509B
:100180000016016A0050B26E700E046E170E056EF6
:10019000066A076A01018951E96EEA6AD890E93670
:1001A000EA36410EE926010EEA22EECF08F0EFCF43
:1001B00009F00A6A0B6A0850045C006E0950055881
:1001C000016E0A500658026E0B500758036E00501D
:1001D0000101D72701500101D8230101892B21D327
:1001E000080E0101895D01E3CED201018951EA6A5D
:1001F000090FE96E010EEA22EF5001E0C1D20101C0
:100200008951EA6A810FE96E010EEA22EF5001E19D
:1002100018D101018951E96EEA6AD890E936EA36C7
:10022000310EE926010EEA22EECF00F0EFCF01F009
:1002300001018951E96EEA6AD890E936EA36110E71
:10024000E926010EEA22EECF02F0EFCF03F00250D2
:10025000005C0350015826E201018951EA6A810FCE
:10026000E96E010EEA22EF5080081CE2010189517B
:10027000EA6A810FE96E010EEA22EF50800F040D49
:10028000F350006E016A01018951E96EEA6AD89063
:10029000E936EA36310EE926010EEA220050EE2652
:1002A0000150ED2201018951E96EEA6AD890E936E0
:1002B000EA36310EE926010EEA22EECF00F0EFCF4A
:1002C00001F001018951E96EEA6AD890E936EA360F
:1002D000210EE926010EEA22EECF02F0EFCF03F065
:1002E0000050025C015003582AE201018951EA6A78
:1002F000810FE96E010EEA22EFCF04F0800E045C5C
:100300001EE2800E026E01018951EA6A810FE96ED8
:10031000010EEA22EF50025C040DF350006E016AF8
:1003200001018951E96EEA6AD890E936EA36310E60
:10033000E926010EEA220050EE5E0150ED5A01015D
:100340008951E96EEA6AD890E936EA36310EE92633
:10035000010EEA22EECF00F0EFCF01F0010189514A
:10036000E96EEA6AD890E936EA36210EE926010EEE
:10037000EA22EECF02F0EFCF03F00250005C035010
:1003800001581EE201018951E96EEA6AD890E93606
:10039000EA36210EE926010EEA22EECF00F0EFCF79
:1003A00001F001018951E96EEA6AD890E936EA362E
:1003B000310EE926010EEA2200C0EEFF01C0EDFF7A
:1003C00001018951E96EEA6AD890E936EA36310EC0
:1003D000E926010EEA22EECF00F0EFCF01F0010195
:1003E0008951E96EEA6AD890E936EA36110EE926B3
:1003F000010EEA22EECF02F0EFCF03F00050025CD4
:10040000015003581EE201018951E96EEA6AD89051
:10041000E936EA36110EE926010EEA22EECF00F0A7
:10042000EFCF01F001018951E96EEA6AD890E9360F
:10043000EA36310EE926010EEA2200C0EEFF01C0C5
:10044000EDFF01018951EA6A8B0FE96E010EEA2284
:10045000EF0401E00CD101018951E96EEA6AD890FC
:10046000E936EA36310EE926010EEA22EECF02F035
:10047000EFCF03F001018951E96EEA6AD890E936BD
:10048000EA36410EE926010EEA22EE50025C006EC9
:10049000EE500358016E00C0DEFF01C0DDFFDECF6D
:1004A00000F0DDCF01F001018951EA6A710FE96EB8
:1004B000010EEA22EF50026E036A03500118E8AE03
:1004C00002D0013404D00050025C015003580AE20B
:1004D00001018951EA6A710FE96E010EEA22EF50BB
:1004E000DE6EDD6ADECF00F0DDCF01F00101895163
:1004F000EA6A790FE96E010EEA22EF50026E036A92
:10050000026C031E000E032201500318E8AE02D055
:10051000033404D00250005C0350015812E2010180
:100520008951EA6A790FE96E010EEA22EF50006EF6
:10053000016A006C011E000E012200C0DEFF01C036
:10054000DDFFDECF00F0DDCF01F001018951E96E62
:10055000EA6AD890E936EA36410EE926010EEA2227
:100560000050EE260150ED2201018951E96EEA6A40
:10057000D890E936EA36410EE926010EEA22EECF9E
:1005800000F0EFCF01F001018951E96EEA6AD890DD
:10059000E936EA36510EE926010EEA22EECF02F0E4
:1005A000EFCF03F00050025C015003581EE201013E
:1005B0008951E96EEA6AD890E936EA36510EE926A1
:1005C000010EEA22EECF00F0EFCF01F001018951D8
:1005D000E96EEA6AD890E936EA36410EE926010E5C
:1005E000EA2200C0EEFF01C0EDFF01018951E96E72
:1005F000EA6AD890E936EA36410EE926010EEA2287
:10060000EECF00F0EFCF01F001018951E96EEA6A07
:10061000D890E936EA36610EE926010EEA22EECFDD
:1006200002F0EFCF03F00250005C035001581EE2CD
:1006300001018951E96EEA6AD890E936EA36610E1D
:10064000E926010EEA22EECF00F0EFCF01F0010122
:100650008951E96EEA6AD890E936EA36410EE92610
:10066000010EEA2200C0EEFF01C0EDFF1ED0010125
:100670008951E96EEA6AD890E936EA36310EE92600
:10068000010EEA22EECF00F0EFCF01F00101895117
:10069000E96EEA6AD890E936EA36410EE926010E9B
:1006A000EA2200C0EEFF01C0EDFF01018951070AF7
:1006B0001DE0010A19E0030A15E0010A11E0070A2A
:1006C0000DE0010A09E0030A05E0010A01E010D08B
:1006D00082840FD082860DD082880BD0828A09D086
:1006E000808C07D0808E05D0828003D0828201D09A
:1006F00000D001018951E96EEA6AD890E936EA36FC
:10070000410EE926010EEA22EECF00F0EFCF01F014
:10071000FF0ED8800056FF0E0156030E00C0DBFF0F
:10072000040E01C0DBFF030EDBCF00F0040EDBCFB5
:1007300001F001C000F0016A0050B36EFF0EE76ED9
:10074000030EDBCF00F0040EDBCF01F0E750001604
:10075000016A0050B26E01018951E96EEA6AD890CF
:10076000E936EA36410EE926010EEA22EE50010191
:10077000D727EE500101D8230101010E8A6F03D063
:100780000101892B2DD501018A514BE10101896BB2
:1007900004680568066A076A500E0C6EC30E0D6E7B
:1007A0000E6A0F6AD7C110F0D8C111F0126A136A2D
:1007B00010500C5C086E11500D58096E12500E58F6
:1007C0000A6E13500F580B6E0850045C006E0950EF
:1007D0000558016E0A500658026E0B500758036EFA
:1007E000030E00C0DBFF040E01C0DBFF030EDBCFF6
:1007F00000F0040EDBCF01F001C000F0016A0050F0
:10080000B36EFF0EE76E030EDBCF00F0040EDBCFFE
:1008100001F0E7500016016A0050B26E0101D76B7B
:10082000D86BA19201D0FFD7070EE15C02E2E16A2A
:10083000E552E16EE552E5CFDAFFE7CFD9FFE552A9
:10084000E5CFF4FFE5CFF3FFE5CFEAFFE5CFE9FF22
:100850001100E9CFE4FFEACFE4FFF6CFE4FFF7CFE2
:10086000E4FFF5CFE4FFF3CFE4FFF4CFE4FFFACFEA
:10087000E4FF00EE26F0100EE80403E3EECFE4FF01
:10088000FBD700EE14F0120EE80403E3EECFE4FF12
:10089000FBD7E652D9CFE6FFDACFE6FFE1CFD9FFAB
:1008A000E2CFDAFFE652E652E652A1AAC5EF09F01E
:1008B00068A0A9EF09F068BA01D36ACFD9F167BC83
:1008C000679C0101DA6B68B403D00101DB6BF5D2E0
:1008D0000101DC6B0101DB51D10A01E1DED2030A27
:1008E00001E1DBD2010A01E1D8D2070A01E1D5D248
:1008F0006C0A01E195D2010A01E192D2030A01E1F9
:100900008FD2010A01E18CD2070A01E189D2010AE2
:1009100001E186D2030A01E183D20F0A01E143D249
:10092000030A01E140D2010A01E13DD2070A01E1D7
:100930003AD2010A01E137D2030A01E134D2010AB5
:1009400001E131D2130A01E129D2070A01E121D2E2
:10095000020A01E10BD2010A01E1F5D1310A01E1FC
:10096000E7D1030A01E1E4D1010A01E1E1D1070A7B
:1009700001E1DED1010A01E1DBD1030A01E1D8D1B5
:10098000010A01E1D5D10F0A01E1D2D1E90A01E161
:10099000BED1030A01E1BBD1010A01E1B8D1070AC6
:1009A00001E1B5D1010A01E1B2D1030A01E1AFD100
:1009B000010A01E1ACD10F0A01E1A9D1190A01E153
:1009C00095D1030A01E192D1010A01E18FD1070A11
:1009D00001E18CD1010A01E189D1030A01E186D14B
:1009E000010A01E183D10F0A01E180D1390A01E155
:1009F00062D1030A01E15FD1010A01E15CD1070A7A
:100A000001E159D1010A01E156D1030A01E153D1B3
:100A1000010A01E150D10F0A01E14DD1190A01E1AA
:100A20002FD1030A01E12CD1010A01E129D1070AE2
:100A300001E126D1010A01E123D1030A01E120D11C
:100A4000010A01E11DD10F0A01E11AD1790A01E180
:100A5000FCD0030A01E1F9D0010A01E1F6D0070A4E
:100A600001E1F3D0010A01E1F0D0030A01E1EDD088
:100A7000010A01E1EAD00F0A01E1E7D01D0A01E114
:100A800091D0010A65E0070A60E0020A5BE0010A12
:100A90004EE0330A47E0010A42E0030A34E0010A6B
:100AA00023E01F0A19E0010A06E00E0A01E000D265
:100AB000120E6A6E01D2E80E366E030E376E00C15A
:100AC0002CF001C12DF036C031F037C032F052ECBD
:100AD00015F02C506A6EF0D10101DF6BE06B010163
:100AE000C06B120E6A6EE8D13F0E8114E66E18ECF0
:100AF0000BF0E552E66E3FEC0BF0E5520101026FA0
:100B000002C16AFFD9D13F0E9314E81CE66E18ECBF
:100B10000BF0E5520101036F03C16AFFCDD104C19F
:100B20006AFFCAD13F0E010105156A6EC5D16CEC92
:100B30000CF0E66EA7EC0CF0E5520101066F06C161
:100B40006AFFBAD107C16AFFB7D108C16AFFB4D141
:100B500001011051800DF3CF3BF001010F51400D09
:100B6000F3CF3AF001010E51200DF3CF39F001011E
:100B70000D39F00B386E01010C51080DF3CF37F031
:100B800001010B51040DF3CF36F001010A51E824A5
:100B90000101091136103710381039103A103B1086
:100BA0006A6E8AD101019251800DF350010802E171
:100BB000010E01D0000E3C6E01019151400DF35029
:100BC000010802E1010E01D0000E3B6E01019051BF
:100BD000200DF350010802E1010E01D0000E3A6E23
:100BE00001018F39F00B010802E1010E01D0000E66
:100BF000396E01018E51080DF350010802E1010E1A
:100C000001D0000E386E01018D51040DF350010822
:100C100002E1010E01D0000E376E01018C51E82473
:100C2000010802E1010E01D0000E366E01018B05B4
:100C300002E1010E01D0000E3610371038103910C5
:100C40003A103B103C106A6E37D1310E0101DB5D6A
:100C5000E66E310E0101DB5DE96EEA6AD890E93695
:100C6000EA36310EE926010EEA22EECFE6FFEFCF9B
:100C7000E6FF9EEC12F0E552E552E5526A6E1CD199
:100C8000410E0101DB5DE66E410E0101DB5DE96EA7
:100C9000EA6AD890E936EA36510EE926010EEA22D0
:100CA000EECFE6FFEFCFE6FF9EEC12F0E552E55205
:100CB000E5526A6E01D1510E0101DB5DE66E510E07
:100CC0000101DB5DE96EEA6AD890E936EA36610E29
:100CD000E926010EEA22EECFE6FFEFCFE6FF9EEC1B
:100CE00012F0E552E552E5526A6EE6D0610E01015E
:100CF000DB5DEA6A710FE96E010EEA22EF50E66EE3
:100D0000E66A4CEC13F0E552E5526A6ED5D0710EEE
:100D10000101DB5DEA6A790FE96E010EEA22EF500C
:100D2000E66EE66A4CEC13F0E552E5526A6EC4D00A
:100D3000910E0101DB5DEA6A810FE96E010EEA2284
:100D4000EF506A6EB9D0940EE66E010EE66E930E09
:100D5000E66E010EE66EFCEC0DF0E552E552E55252
:100D6000E55294C16AFF93C1DCF1A6D0960EE66EFF
:100D7000010EE66E950EE66E010EE66EB8EC0FF013
:100D8000E552E552E552E55296C16AFF95C1DCF1A4
:100D900093D099C16AFF98C1DCF18ED09BC16AFFE4
:100DA0009AC1DCF189D0B10E0101DB5D376E010E15
:100DB000375204E0E846FE0B3706FCE1366E0101CF
:100DC0009A1D361429E0B10E0101DB5DE96EEA6A75
:100DD000D890E936EA369C0EE926010EEA22EECFDB
:100DE00036F0EFCF37F037C036F0376A36506A6EDC
:100DF000B10E0101DB5DE96EEA6AD890E936EA36A8
:100E00009C0EE926010EEA22EECF36F0EFCF37F046
:100E100036500101DC6F03D06A6A0101DC6B4CD0F3
:100E2000B80E0101DB5D376E010E375204E0E84673
:100E3000FE0B3706FCE1366E01019B1D361429E0DE
:100E4000B10E0101DB5DE96EEA6AD890E936EA3657
:100E50009C0EE926010EEA22EECF36F0EFCF37F0F6
:100E600037C036F0376A36506A6EB10E0101DB5D6D
:100E7000E96EEA6AD890E936EA369C0EE926010E58
:100E8000EA22EECF36F0EFCF37F036500101DC6FBB
:100E900003D06A6A0101DC6B0FD0D10E0101DB5D6A
:100EA000EA6ABC0FE96E010EEA22EF506A6E04D0C6
:100EB0006A680101DC6900D067884BD268B449D206
:100EC0000101DA5103E16ACFDBF109D00101DA5106
:100ED000EA6AC30FE96E010EEA226ACFEFFF0A0E3B
:100EE0000101DA5D02E20101DA2B67BC679C020EA8
:100EF0000101DA5D01E0F9D10101DB51D10A01E123
:100F0000DED1030A01E1DBD1010A01E1D8D1070AF0
:100F100001E1D5D1450A01E1C7D1030A01E1C4D1FC
:100F2000010A01E1C1D1070A01E1BED1010A01E1D3
:100F3000BBD1030A01E1B8D1010A01E1B5D10F0A21
:100F400001E1B2D1E90A01E196D1030A01E193D1AD
:100F5000010A01E190D1070A01E18DD1010A01E105
:100F60008AD1030A01E187D1010A01E184D10F0A84
:100F700001E181D1190A01E165D1030A01E162D1E0
:100F8000010A01E15FD1070A01E15CD1010A01E137
:100F900059D1030A01E156D1010A01E153D10F0AE7
:100FA00001E150D1390A01E12ED1030A01E12BD12F
:100FB000010A01E128D1070A01E125D1010A01E175
:100FC00022D1030A01E11FD1010A01E11CD10F0A5C
:100FD00001E119D1190A01E1F7D0030A01E1F4D0C6
:100FE000010A01E1F1D0070A01E1EED0010A01E1B5
:100FF000EBD0030A01E1E8D0010A01E1E5D00F0AD4
:1010000001E1E2D0790A01E19FD0030A01E19CD01D
:10101000010A01E199D0070A01E196D0010A01E134
:1010200093D0030A01E190D0010A01E18DD00F0AAB
:1010300001E18AD01D0A01E181D0010A74E0070AAA
:101040006FE0020A65E0010A5BE0330A53E0010A3F
:1010500045E0030A32E0010A20E01F0A18E0010A15
:1010600001E042D10101C4510101006F016B010196
:10107000E80E0103F3CF01F1030E0003F350012743
:10108000E80E0003F3CF00F1F45001272ED1010147
:10109000DF6BE06B0101C06B28D13F0E0101C4156D
:1010A0000101026F02C1E6FFF1EC0AF0E552366E73
:1010B000C00E8A1436108A6E18D13F0E0101C41575
:1010C0000101036F03C1E6FFF1EC0AF0E552E81CF1
:1010D000366EC00E93143610936E07D1010E0101C7
:1010E000C4150101046F0101045102E0F19E01D019
:1010F000F18EFBD03F0E0101C4150101056FF5D043
:10110000C4C106F106C1E6FF16EC0CF0E552EDD0C5
:10111000C4C107F107C1E6FF8DEC0BF0E552E5D045
:10112000C4C108F1E2D0C4C1E6FFBAEC0CF0E5524C
:1011300007C1E6FF8DEC0BF0E552D7D0C4C1E6FF46
:10114000EFEC0CF0E552D1D00101C45110E1310EA9
:101150000101DB5DEA6A090FE96E010EEA22010E68
:10116000EF6E07C1E6FF8DEC0BF0E5522CD0310E8F
:101170000101DB5DEA6A090FE96E010EEA22EF6AFE
:10118000310E0101DB5DE66EC4C1E6FF20EC12F01A
:10119000E552E552F3CF36F0F4CF37F0310E0101CE
:1011A000DB5DE96EEA6AD890E936EA36310EE92667
:1011B000010EEA2236C0EEFF37C0EDFF07C1E6FFA1
:1011C0008DEC0BF0E55291D0410E0101DB5DE66E36
:1011D000C4C1E6FF20EC12F0E552E552F3CF36F041
:1011E000F4CF37F0410E0101DB5DE96EEA6AD89079
:1011F000E936EA36510EE926010EEA2236C0EEFF44
:1012000037C0EDFF72D0510E0101DB5DE66EC4C147
:10121000E6FF20EC12F0E552E552F3CF36F0F4CFC2
:1012200037F0510E0101DB5DE96EEA6AD890E936CC
:10123000EA36610EE926010EEA2236C0EEFF37C01B
:10124000EDFF53D00101C45103E10101010EC46F50
:10125000C4C1E6FF35EC13F0E552F350E66E610EC3
:101260000101DB5DEA6A710FE96E010EEA22E552C7
:10127000E750EF6E3AD00101C45103E10101010EC4
:10128000C46FC4C1E6FF35EC13F0E552F350E66ECF
:10129000710E0101DB5DEA6A790FE96E010EEA2247
:1012A000E552E750EF6E21D0910E0101DB5DEA6A55
:1012B000810FE96E010EEA22C4C1EFFF16D0D10EF4
:1012C0000101DB5DEA6ABC0FE96E010EEA22C4C1CE
:1012D000EFFFC4C1E6FFD10E0101DB5DE66EA3ECBA
:1012E00013F0E552E55201D000D0030E0101DA5DA2
:1012F00030E10101DB51A40A22E0070A1BE0020AE7
:1013000010E0010A01E024D0C4C193F1C5C194F1F9
:1013100094C1E6FF93C1E6FF24EC0DF0E552E552DF
:1013200018D0C5C1E6FFC4C1E6FF8EEC0EF0E55251
:10133000E5520FD0C4C198F1C5C199F10AD0C5C119
:10134000E6FFC4C1E6FF40EC10F0E552E55201D0E3
:1013500000D06850200B17E06850040B14E0685070
:10136000010B11E1DCC16AFF000000000000000079
:10137000000000000000000000000000000000006D
:10138000000000006788A19ADCD0BAA0D9D0BA903A
:10139000C450386E38C039F0386AC3500001381074
:1013A000366E39C037F0010E36C0DBFF020E37C093
:1013B000DBFF010EDBCF36F0020EDBCF37F0000192
:1013C000800E371404E0010EDB6A020EDB6A0101B5
:1013D000DE51E96EEA6AD890E936EA369C0EE926D3
:1013E000010EEA22010EDBCFEEFF020EDBCFEDFF96
:1013F0000101DE2B0E0E0101DE5D02E30101DE6B59
:10140000DEC1E6FF0BEC11F0E5520101DD6F0101D9
:10141000DD511F0BF36EF346F346830EC214F31037
:10142000C26EC2820101C151C21104E00101C107B3
:10143000000EC25B0101DF2B000EE023E80E01016C
:10144000DF1902E1030EE01901E079D00101DF6B41
:10145000E06B0101C051366E376AD890375004E610
:10146000FE0E365C000E375802E20101C02B01016E
:101470000051011164E000C136F001C137F0E80EFF
:10148000316E030E326E36C02CF037C02DF052ECA8
:1014900015F02CC036F02DC037F00101C051365C7C
:1014A000000E37584CE2DF6A080EDF5C34E2DFCF13
:1014B000E6FF800EE66E20EC12F0E552E552F3CF27
:1014C00036F0F4CF37F0EA6ADF34FE0BEA36E96E25
:1014D000310EE926010EEA2236C0EEFF37C0EDFFDD
:1014E000DFCFE6FF800EE66E20EC12F0E552E5520B
:1014F000F3CF36F0F4CF37F0EA6ADF34FE0BEA368A
:10150000E96E410EE926010EEA2236C0EEFF37C031
:10151000EDFFDF2AC9D7DF6A040EDF5C10E2DF507F
:10152000EA6ABC0FE96E010EEA22EF6AE66ADFCFD3
:10153000E6FFA3EC13F0E552E552DF2AEDD701D028
:10154000FFD7E552E552E552E552E5CFDAFFE7CFA6
:10155000D9FFE55200EE25F0120EE80403E3E5CFD3
:10156000EDFFFBD700EE35F0100EE80403E3E5CF06
:10157000EDFFFBD7E5CFFAFFE5CFF4FFE5CFF3FFB3
:10158000E5CFF5FFE5CFF7FFE5CFF6FFE5CFEAFFC3
:06159000E5CFE9FF1100A8
:0A1596008F0ED3147009D36E9B8CE6
:1015A00012002F0E926E9368C00E946E6F0E956EA1
:1015B000030E966E9768270E986EF18E0101046BEC
:1015C000949C949E95909592959495969598959EB9
:1015D0008B9C8B9E8C908C928C948C968C988C9EF1
:1015E0001200D9CFE6FFDACFE6FFE1CFD9FFE2CF95
:1015F000DAFFE652DF6AFD0EDBB0DF82FD0EDBB202
:10160000DF86FD0EDBB4DF8AFD0EDBA602D0000E06
:10161000DB80FD0EDBB8DF84FD0EDBBADF88DF5038
:1016200000D0E552E552E5CFDAFFE7CFD9FF12004F
:10163000D9CFE6FFDACFE6FFE1CFD9FFE2CFDAFF7D
:10164000E652DF6AFD0EDBA202D0000EDB80FD0E4B
:10165000DBB6DF82FD0EDBBADF84FD0EDBB0DF869A
:10166000FD0EDBB4DF88FD0EDBB8DF8ADF5000D073
:10167000E552E552E5CFDAFFE7CFD9FF1200D9CF27
:10168000E6FFDACFE6FFE1CFD9FFE2CFDAFFFD0ECA
:10169000DB500101051900D0E552E5CFDAFFE7CFB5
:1016A000D9FF1200D9CFE6FFDACFE6FFE1CFD9FFAD
:1016B000E2CFDAFFE652DF6A94A403D0010EDF1016
:1016C000DF6E94A603D0020EDF10DF6E94A803D065
:1016D000040EDF10DF6E94AA03D0080EDF10DF6E59
:1016E00092AC03D0100EDF10DF6E92AE03D0200E4E
:1016F000DF10DF6E94A003D0400EDF10DF6E94A2E7
:1017000003D0800EDF10DF6EDF5000D0E552E552CF
:10171000E5CFDAFFE7CFD9FF1200D9CFE6FFDACF66
:10172000E6FFE1CFD9FFE2CFDAFF0101090507E1CA
:10173000FD0EDBB002D0948401D0949401D0949437
:1017400001010A050AE1FD0EDB50020BE8407F0BA8
:1017500002E1948601D0949601D0949601010B0584
:101760000BE1FD0EDB50040BE840E8403F0B02E1CB
:10177000948801D0949801D0949801010C050CE153
:10178000FD0EDB50080BE840E840E8401F0B02E18B
:10179000948A01D0949A01D0949A01010D050AE12E
:1017A000FD0EDB50100BE8380F0B02E1928C01D0DC
:1017B000929C01D0929C01010E050CE1FD0EDB50C4
:1017C000200BE00BE838E840000902E1928E01D0DE
:1017D000929E01D0929E01010F0513E1060E146E38
:1017E000FD0EDB50400B14C0E7FFE75204E0E84277
:1017F0007F0BE706FCE1000902E1948001D09490A0
:1018000001D09490010110050AE1FD0EDB50800B20
:10181000E844010B02E1948201D0949201D09492A9
:10182000E552E5CFDAFFE7CFD9FF1200D9CFE6FFC7
:10183000DACFE6FFE1CFD9FFE2CFDAFF01010905F8
:1018400006E1FD0EDBA002D0828401D0829401016A
:101850000A0506E1FD0EDBA202D0828601D0829647
:1018600001010B0506E1FD0EDBA402D0828801D048
:10187000829801010C0506E1FD0EDBA602D0828AEA
:1018800001D0829A01010D0506E1FD0EDBA802D010
:10189000808C01D0809C01010E0506E1FD0EDBAAC3
:1018A00002D0808E01D0809E01010F0506E1FD0E61
:1018B000DBAC02D0828001D082900101100506E1EC
:1018C000FD0EDBAE02D0828201D08292E552E5CFDE
:1018D000DAFFE7CFD9FF1200D9CFE6FFDACFE6FF74
:1018E000E1CFD9FFE2CFDAFFE652DF6A82A403D06C
:1018F000010EDF10DF6E82A603D0020EDF10DF6E56
:1019000082A803D0040EDF10DF6E82AA03D0080E77
:10191000DF10DF6E80AC03D0100EDF10DF6E80AE04
:1019200003D0200EDF10DF6E82A003D0400EDF1048
:10193000DF6E82A203D0800EDF10DF6EDF5000D09A
:10194000E552E552E5CFDAFFE7CFD9FF1200D9CF54
:10195000E6FFDACFE6FFE1CFD9FFE2CFDAFFFD0EF7
:10196000DB500101081900D0E552E5CFDAFFE7CFDF
:10197000D9FF1200D9CFE6FFDACFE6FFE1CFD9FFDA
:10198000E2CFDAFFE652DF6A080EDF5C21E2FD0EED
:10199000DBCFE6FF010EDF5206E0DFCFF3FFE846C4
:1019A000FE0BF306FCE1E552E71409E0DF50EA6ABA
:1019B000090FE96E010EEA22010EEF6E07D0DF502B
:1019C000EA6A090FE96E010EEA22EF6ADF2ADCD724
:1019D000E552E552E5CFDAFFE7CFD9FF1200D9CFC4
:1019E000E6FFDACFE6FFE1CFD9FFE2CFDAFFE6523A
:1019F000DF6A080EDF5C21E2FD0EDBCFE6FF010EA1
:101A0000DF5206E0DFCFF3FFE846FE0BF306FCE112
:101A1000E552E71409E0DF50EA6A8B0FE96E010E28
:101A2000EA22010EEF6E07D0DF50EA6A8B0FE96EF3
:101A3000010EEA22EF6ADF2ADCD7E552E552E5CF54
:101A4000DAFFE7CFD9FF1200D9CFE6FFDACFE6FF02
:101A5000E1CFD9FFE2CFDAFF010E01019A150108AB
:101A600006E1FD0EDBA002D0868201D08692020E36
:101A700001019A15E8407F0B010806E1FD0EDBA28B
:101A800002D0858E01D0859E040E01019A15E84092
:101A9000E8403F0B010806E1FD0EDBA402D0858A79
:101AA00001D0859A080E01019A15E840E840E84007
:101AB0001F0B010806E1FD0EDBA602D0858601D0D2
:101AC0008596100E01019A15E8380F0B010806E102
:101AD000FD0EDBA802D0858201D08592200E010187
:101AE0009A15E00BE838E840010806E1FD0EDBAA94
:101AF00002D0808201D08092060E146E400E010149
:101B00009A1514C0E7FFE75204E0E8427F0BE706AE
:101B1000FCE1010806E1FD0EDBAC02D0808601D0BD
:101B20008096010E01019B15010806E1FC0EDBA069
:101B300002D0868401D08694020E01019B15E840F4
:101B40007F0B010806E1FC0EDBA202D0858C01D0E0
:101B5000859C040E01019B15E840E8403F0B0108FD
:101B600006E1FC0EDBA402D0858801D08598080E22
:101B700001019B15E840E840E8401F0B010806E121
:101B8000FC0EDBA602D0858401D08594100E0101E5
:101B90009B15E8380F0B010806E1FC0EDBA802D00C
:101BA000808001D08090200E01019B15E00BE83869
:101BB000E840010806E1FC0EDBAA02D0808401D0D7
:101BC0008094060E146E400E01019B1514C0E7FFB1
:101BD000E75204E0E8427F0BE706FCE1010806E17A
:101BE000FC0EDBAC02D0808A01D0809AE552E5CFB2
:101BF000DAFFE7CFD9FF1200D9CFE6FFDACFE6FF51
:101C0000E1CFD9FFE2CFDAFFE652E652DF6A010EFA
:101C1000DB6A86A203D0010EDF10DF6E85AE03D033
:101C2000020EDF10DF6E85AA03D0040EDF10DF6E18
:101C300085A603D0080EDF10DF6E85A203D0100E3C
:101C4000DF10DF6E80A203D0200EDF10DF6E80A6D3
:101C500003D0400EDF10DF6E86A407D0010EDB50EC
:101C60000109E76E010EE7CFDBFF85AC07D0010E5F
:101C7000DB500209E76E010EE7CFDBFF85A807D036
:101C8000010EDB500409E76E010EE7CFDBFF85A4F0
:101C900007D0010EDB500809E76E010EE7CFDBFF2E
:101CA00080A007D0010EDB501009E76E010EE7CFD0
:101CB000DBFF80A407D0010EDB502009E76E010E88
:101CC000E7CFDBFF80AA07D0010EDB504009E76EAB
:101CD000010EE7CFDBFF010EDB5001019919E66E23
:101CE000FA0EDBCFE9FFFB0EDBCFEAFFE552E75050
:101CF000EF6EDF5001019819E66EFC0EDBCFE9FFB5
:101D0000FD0EDBCFEAFFE552E750EF6EE552E552FC
:101D1000E552E5CFDAFFE7CFD9FF1200D9CFE6FFD2
:101D2000DACFE6FFE1CFD9FFE2CFDAFF010E010102
:101D30009A15010808E1FD0EDB50010B010802E1D4
:101D4000989201D09882020E01019A15E8407F0B0B
:101D500001080AE1FD0EDB50020BE8407F0B010891
:101D600002E1979E01D0978E040E01019A15E8407A
:101D7000E8403F0B01080BE1FD0EDB50040BE8408F
:101D8000E8403F0B010802E1979A01D0978A080EBC
:101D900001019A15E840E840E8401F0B01080CE1FA
:101DA000FD0EDB50080BE840E840E8401F0B01083F
:101DB00002E1979601D09786100E01019A15E83836
:101DC0000F0B01080AE1FD0EDB50100BE8380F0B7A
:101DD000010802E1979201D09782200E01019A1525
:101DE000E00BE838E84001080BE1FD0EDB50200B6A
:101DF000E00BE838E840010802E1929201D09282BB
:101E0000060E146E400E01019A1514C0E7FFE7524A
:101E100004E0E8427F0BE706FCE1010812E1060E50
:101E2000146EFD0EDB50400B14C0E7FFE75204E0D8
:101E3000E8427F0BE706FCE1010802E1929601D03F
:101E40009286010E01019B15010808E1FC0EDB5092
:101E5000010B010802E1989401D09884020E01015F
:101E60009B15E8407F0B01080AE1FC0EDB50020BDA
:101E7000E8407F0B010802E1979C01D0978C040E8B
:101E800001019B15E840E8403F0B01080BE1FC0E07
:101E9000DB50040BE840E8403F0B010802E1979853
:101EA00001D09788080E01019B15E840E840E84002
:101EB0001F0B01080CE1FC0EDB50080BE840E8406A
:101EC000E8401F0B010802E1979401D09784100E9F
:101ED00001019B15E8380F0B01080AE1FC0EDB50ED
:101EE000100BE8380F0B010802E1929001D09280AC
:101EF000200E01019B15E00BE838E84001080BE1DA
:101F0000FC0EDB50200BE00BE838E840010802E152
:101F1000929401D09284060E146E400E01019B151E
:101F200014C0E7FFE75204E0E8427F0BE706FCE15C
:101F3000010812E1060E146EFC0EDB50400B14C0BB
:101F4000E7FFE75204E0E8427F0BE706FCE1010807
:101F500002E1929A01D0928AFD0EDBCF95F1FC0E40
:101F6000DBCF96F1E552E5CFDAFFE7CFD9FF1200DC
:101F7000D9CFE6FFDACFE6FFE1CFD9FFE2CFDAFF34
:101F8000E652E652DF6A010EDB6A98B203D0010E18
:101F9000DF10DF6E97BE03D0020EDF10DF6E97BA40
:101FA00003D0040EDF10DF6E97B603D0080EDF10EB
:101FB000DF6E97B203D0100EDF10DF6E92B203D047
:101FC000200EDF10DF6E92B603D0400EDF10DF6E02
:101FD00098B407D0010EDB500109E76E010EE7CF80
:101FE000DBFF97BC07D0010EDB500209E76E010E44
:101FF000E7CFDBFF97B807D0010EDB500409E76E8F
:10200000010EE7CFDBFF97B407D0010EDB500809C4
:10201000E76E010EE7CFDBFF92B007D0010EDB5079
:102020001009E76E010EE7CFDBFF92B407D0010E77
:10203000DB502009E76E010EE7CFDBFF92BA07D035
:10204000010EDB504009E76E010EE7CFDBFFFC0E0F
:10205000DBCFE9FFFD0EDBCFEAFFDFCFEFFFFA0EAC
:10206000DBCFE9FFFB0EDBCFEAFF010EDBCFEFFF9B
:10207000E552E552E552E5CFDAFFE7CFD9FF12008E
:10208000D9CFE6FFDACFE6FFE1CFD9FFE2CFDAFF23
:10209000FD0EDBB003D00F01238702D00F01239781
:1020A000FD0EDB50020BE8407F0B03E10F01258B97
:1020B00002D00F01259BFD0EDB50040BE840E840E9
:1020C0003F0B03E10F01248502D00F012495FD0E83
:1020D000DB50080BE840E840E8401F0B03E10F012C
:1020E000248102D00F012491FD0EDB50100BE83843
:1020F0000F0B03E10F01258D02D00F01259DFD0E71
:10210000DB50200BE00BE838E840000903E10F0149
:10211000258302D00F012593060E146EFD0EDB50B1
:10212000400B14C0E7FFE75204E0E8427F0BE706EC
:10213000FCE1000903E10F01258702D00F0125977B
:10214000FC0EDBB003D00F01238502D00F012395D5
:10215000FC0EDB50020BE8407F0B03E10F012487EC
:1021600002D00F012497FC0EDB50040BE840E8403E
:102170003F0B03E10F01248302D00F012493FC0ED7
:10218000DB50080BE840E840E8401F0B03E10F017B
:10219000258F02D00F01259FFC0EDB50100BE83875
:1021A0000F0B03E10F01258102D00F012591FC0ED9
:1021B000DB50200BE00BE838E840000903E10F0199
:1021C000258502D00F012595060E146EFC0EDB50FE
:1021D000400B14C0E7FFE75204E0E8427F0BE7063C
:1021E000FCE1000903E10F01258902D00F012599C7
:1021F000FD0EDBCF9AF1FC0EDBCF9BF196C1E6FF23
:1022000095C1E6FF8BDDE552E552E552E5CFDAFFF9
:10221000E7CFD9FF1200D9CFE6FFDACFE6FFE1CF53
:10222000D9FFE2CFDAFFFD0EDB50EA6A000FE96E5C
:102230000F0EEA22EF5000D0E552E5CFDAFFE7CFEC
:04224000D9FF1200B0
:0C224400D9CFE6FFDACFE6FFE1CFD9FFEB
:10225000E2CFDAFFE652870ECA140009CA6EFC0EFE
:10226000CA140009CA6ECC6AFE0ECB6ECA843F0E39
:10227000B1140009B16ECF0EB1143009B16EB18244
:102280003C0EB36EAF0EB26EA192A082A282B1805C
:10229000870E6B1418096B6EFC0E6B1403096B6EC2
:1022A000FA0E6C6E6D6ABA90B980D2906B84DF6A58
:1022B000080EDF5C01E3ACD0DF50EA6A090FE96E7B
:1022C000010EEA22EF6AEA6ADF34FE0BEA36E96EB3
:1022D000110EE926010EEA22A00EEE6E0F0EED6E33
:1022E000EA6ADF34FE0BEA36E96E210EE926010EBA
:1022F000EA22D00EEE6E070EED6EDFCFE6FF800E07
:10230000E66E9ED8E552E552F3CF14F0F4CF15F007
:10231000EA6ADF34FE0BEA36E96E310EE926010E79
:10232000EA2214C0EEFF15C0EDFFDFCFE6FFE6683E
:1023300087D8E552E552F3CF14F0F4CF15F0EA6AEE
:10234000DF34FE0BEA36E96E510EE926010EEA2271
:1023500014C0EEFF15C0EDFFDFCFE6FF010EE66E05
:102360006FD8E552E552F3CF14F0F4CF15F0EA6AD6
:10237000DF34FE0BEA36E96E610EE926010EEA2231
:1023800014C0EEFF15C0EDFFE6686FD9E552F350BB
:10239000E66EDF50EA6A710FE96E010EEA22E5523D
:1023A000E750EF6EE66861D9E552F350E66EDF5014
:1023B000EA6A790FE96E010EEA22E552E750EF6E04
:1023C000DFCFE6FF800EE66E3BD8E552E552F3CF55
:1023D00014F0F4CF15F0EA6ADF34FE0BEA36E96E4A
:1023E000410EE926010EEA2214C0EEFF15C0EDFFF2
:1023F000DF50EA6A810FE96E010EEA22EF6ADF50D0
:10240000EA6A8B0FE96E010EEA22EF6ADF2A50D7E3
:102410000101896B01018A6BDF6A040EDF5C09E24E
:10242000DF50EA6ABC0FE96E010EEA22EF6ADF2A8A
:10243000F4D7E552E552E5CFDAFFE7CFD9FF120036
:10244000D9CFE6FFDACFE6FFE1CFD9FFE2CFDAFF5F
:10245000FC0EEA6ADB34FE0BEA36E96E210EE92651
:10246000010EEA22EECF18F0EFCF19F01A6A1B6ABC
:10247000FD0EDBCF22F0236A246A256AFC0EEA6A8D
:10248000DB34FE0BEA36E96E110EE926010EEA2274
:10249000EECF20F0EFCF21F0FC0EEA6ADB34FE0B2A
:1024A000EA36E96E210EE926010EEA22EE50205CA2
:1024B0001C6EEE5021581D6E1E6A1F6A1CC02AF049
:1024C0001DC02BF01EC02CF01FC02DF022C02FF01D
:1024D00023C030F024C031F025C032F0A9EC14F054
:1024E00026C02AF027C02BF028C02CF029C02DF0E0
:1024F0002F6A010E306E316A326A18EC15F01850EE
:102500002A24146E19502B20156E1A502C20166E8A
:102510001B502D20176E020E1426000E1522000EE1
:102520001622000E172214C0F3FF15C0F4FF00D0CE
:10253000E552E5CFDAFFE7CFD9FF1200D9CFE6FFAA
:10254000DACFE6FFE1CFD9FFE2CFDAFFFC0EDBCF37
:1025500014F0FD0EDBCF15F0FB0EEA6ADB34FE0B48
:10256000EA36E96E210EE926010EEA22EECF16F0D8
:10257000EFCF17F01450165C1550175802E3000EF9
:102580006ED0FC0EDBCF14F0FD0EDBCF15F0FB0E92
:10259000EA6ADB34FE0BEA36E96E110EE926010E1B
:1025A000EA22EECF16F0EFCF17F01650145C17505A
:1025B000155802E3FF0E53D0FB0EEA6ADB34FE0B24
:1025C000EA36E96E110EE926010EEA22EECF1EF080
:1025D000EFCF1FF0FB0EEA6ADB34FE0BEA36E96E42
:1025E000210EE926010EEA22EE501E5C1A6EEE5014
:1025F0001F581B6E1C6A1D6AFC0EDBCF18F0FD0E07
:10260000DBCF19F0FB0EEA6ADB34FE0BEA36E96E2B
:10261000210EE926010EEA22EE50185C146EEE50EF
:102620001958156E166A176A16C017F015C016F0FD
:1026300014C015F0146A14C02AF015C02BF016C08F
:102640002CF017C02DF01AC02FF01BC030F01CC0AA
:1026500031F01DC032F018EC15F02A5000D0E552D0
:10266000E5CFDAFFE7CFD9FF1200D9CFE6FFDACF07
:10267000E6FFE1CFD9FFE2CFDAFFFD0EDB50146EAB
:10268000156A14C0F3FF15C0F4FF00D0E552E5CF82
:10269000DAFFE7CFD9FF1200D9CFE6FFDACFE6FFA6
:1026A000E1CFD9FFE2CFDAFFFC0EDB5000D0E552DC
:0A26B000E5CFDAFFE7CFD9FF1200F3
:0626BA000F012D972D9980
:1026C0002D9B0F012C9D2C9F0F012C990F012C95F8
:1026D0000F012C912C930F012B990F012B950F01BA
:1026E0002B912B930F014F6B786A756A726A6F6A30
:1026F0000F01476B0F01446B0F01416B0F014E91AE
:102700004E934E854E87F00E77140C09776EF00EBF
:1027100074140C09746EF00E71140C09716EF00EC5
:102720006E140C096E6E0F014691469346854687DE
:102730000F0143914393438543870F014091409399
:10274000408540871200D9CFE6FFDACFE6FFE1CF20
:10275000D9FFE2CFDAFFFD0EDB50020A01E178D0AB
:10276000010A4FE0030A26E0010A01E09CD0FC0EBA
:10277000DB5003E1786A756A1CD0FC0EDB508008E0
:1027800003E17868756815D0FC0EDB50800807E21D
:10279000FC0EDB50800FE824786E756A0AD0786AE8
:1027A000FC0EDBCFE6FF800EE552D880E754E8242C
:1027B000756E7AD0FC0EDB5004E1726A0F014F6B2C
:1027C0001FD0FC0EDB50800804E172680F014F69D6
:1027D00017D0FC0EDB50800808E2FC0EDB50800FA7
:1027E000E824726E0F014F6B0BD0726AFC0EDBCFC8
:1027F000E6FF800EE552D880E754E8240F014F6FC2
:1028000053D0FC0EDB5004E16F6A0F01476B1FD001
:10281000FC0EDB50800804E16F680F01476917D098
:10282000FC0EDB50800808E2FC0EDB50800FE82431
:102830006F6E0F01476B0BD06F6AFC0EDBCFE6FFAC
:10284000800EE552D880E754E8240F01476F2CD062
:10285000FC0EDB5005E10F01446B0F01416B22D0F0
:10286000FC0EDB50800805E10F0144690F0141694E
:1028700019D0FC0EDB50800809E2FC0EDB50800F03
:10288000E8240F01446F0F01416B0CD00F01446B22
:10289000FC0EDBCFE6FF800EE552D880E754E8243B
:1028A0000F01416F01D000D0E552E5CFDAFFE7CF4D
:0428B000D9FF12003A
:0C28B4001E0EF66E000EF76E000EF86EA1
:1028C00001010900F550D26F0900F550D36F03E103
:1028D000D26701D03DD00900F550CD6F0900F55009
:1028E000CE6F0900F550CF6F09000900F550E96E71
:1028F0000900F550EA6E090009000900F550D06F93
:102900000900F550D16F09000900F6CFD4F1F7CFD7
:10291000D5F1F8CFD6F1CDC1F6FFCEC1F7FFCFC1CB
:10292000F8FF0101D05302E1D15307E00900F5504F
:10293000EE6ED007F8E2D107F9D7D4C1F6FFD5C1C2
:10294000F7FFD6C1F8FF0101D207000ED35BBFD756
:02295000120073
:0E2952002A502F02F3CF26F0F4CF27F03002E8
:10296000F3502726000EF420286E2A503102F3502F
:102970002826000EF420296E2A503202F350292610
:102980002B502F02F3502726F4502822000E292224
:102990002B503002F3502826F45029222B503102BC
:1029A000F35029262C502F02F3502826F4502922C8
:1029B0002C503002F35029262D502F02F350292697
:0229C000120003
:0E29C200D9CFE6FFDACFE6FFE1CFD9FFE2CFB3
:1029D000DAFFE652C08EE66AE66A40EC10F0E55295
:1029E000E552F80EC0140609C06EC70EC0143809AF
:1029F000C06EC280E66AE66A8EEC0EF0E552E552E1
:102A0000DF6A0E0EDF5C0DE2EA6ADF34FE0BEA36A7
:102A1000E96E9C0EE926010EEA22EE6AED6ADF2AD3
:102A2000F0D7E552E552E5CFDAFFE7CFD9FF120044
:102A3000296A286A276A266A200EE76ED8902A3605
:102A40002B362C362D3626362736283629362F506B
:102A5000265C30502758315028583250295809E305
:102A60002F50265E3050275A3150285A3250295A5A
:082A70002A2AE72EE4D7120028
:082A780089880101E80EC16F1D
:102A8000030EC26F1200F29C0101C151C21106E196
:102A900007D80101E80EC16F030EC26FF28C12005D
:042AA000897812001F
:0C2AA400296A286A100EE76ED8902C36C4
:102AB0002D36283629363150285C3250295805E306
:102AC0003150285E3250295A2C2AE72EF0D71200B6
:102AD000CBEC0AF0D1EC0AF09AEC15F0E1EC14F032
:102AE00022EC11F05DEC13F022EC00F03CEC15F060
:082AF00043EC15F0FDD71200C4
:082AF800160EF36E00EE00F073
:102B00000F0E01D81200EA6002D0EE6AFCD7F35033
:082B1000E9601200EE6AFCD737
:082B18001EEE00F02EEE00F0AD
:102B2000F86A359C5AEC14F003EC00F068EC15F0F0
:042B3000FBD71200BD
:0C2B3400958A958CF00E67140609676EF8
:0E2B4000380E696EA19AA08AA29A678A1200C6
:022B4E00000085
:102B50000000000000000000000000000000000075
:102B60000000000000000000000000000000000065
:102B70000000000000000000000000000000000055
:102B80000000000000000000000000000000000045
:102B90000000000000000000000000000000000035
:102BA0000000000000000000000000000000000025
:102BB0000000000000000000000000000000000015
:102BC0000000000000000000000000000000000005
:102BD00000000000000000000000000000000000F5
:102BE00000000000000000000000000000000000E5
:102BF00000000000000000000000000000000000D5
:102C000000000000000000000000000000000000C4
:012C100000C3
:0E2C110013050A08060103120B09070002044E
:020000040030CA
:0100000010EF
:010001009866
:0100020003FA
:0100030000FC
:0100040000FB
:010005008872
:0100060000F9
:010008000FE8
:01000900C036
:01000A000FE6
:01000B00E014
:01000C000FE4
:01000D0040B2
:00000001FF
