:020000040000FA
:0600000084EF14F0120071
:020006001200E6
:0600080026EF00F01200DB
:02000E000000F0
:080010000000000000000000E8
:060018006AEF04F0120083
:02001E000300DD
:100020000E000000D40100000A000000FE290000BC
:10003000000F00000E0000003E290000000100003B
:04004000C0000000FC
:0C004400D08EF28CF28E1200E9CFE4FFA7
:10005000EACFE4FFF6CFE4FFF7CFE4FFF5CFE4FF0C
:10006000F3CFE4FFF4CFE4FFFACFE4FF00EE26F095
:10007000100EE80403E3EECFE4FFFBD700EE14F02C
:10008000120EE80403E3EECFE4FFFBD7E652D9CF2C
:10009000E6FFDACFE6FFE1CFD9FFE2CFDAFF070EC6
:1000A000E12402E3E168E652E16EDE6ADD6A030EF6
:1000B000DB6A040EDB6A050EDB6A060EDB6AA1A2B0
:1000C000DBD30101805101E1A3D001017F51070A77
:1000D0001DE0010A19E0030A15E0010A11E0070A10
:1000E0000DE0010A09E0030A05E0010A01E010D071
:1000F00082940FD082960DD082980BD0829A09D02C
:10010000809C07D0809E05D0829003D0829201D03F
:1001100000D00101806B04680568066A076A700EEA
:100120000C6E170E0D6E0E6A0F6A01017F51E96E9B
:10013000EA6AD890E936EA363F0EE926010EEA224D
:10014000EECF10F0EFCF11F0126A136A10500C5C72
:10015000086E11500D58096E12500E580A6E135049
:100160000F580B6E0850045C006E09500558016E64
:100170000A500658026E0B500758036E030E00C05B
:10018000DBFF040E01C0DBFF030EDBCF00F0040E2B
:10019000DBCF01F001C000F0016A0050B36EFF0E2A
:1001A000E76E030EDBCF00F0040EDBCF01F0E7506B
:1001B0000016016A0050B26E700E046E170E056EC6
:1001C000066A076A01017F51E96EEA6AD890E9364A
:1001D000EA363F0EE926010EEA22EECF08F0EFCF15
:1001E00009F00A6A0B6A0850045C006E0950055851
:1001F000016E0A500658026E0B500758036E0050ED
:100200000101D42701500101D52301017F2B32D3F5
:10021000080E01017F5D01E3DFD201017F51EA6A2F
:10022000890FE96E010EEA22EF5053E001017F5180
:10023000EA6A810FE96E010EEA22EFCF00F00101B8
:100240007F51EA6A6F0FE96E010EEA22EF50D88003
:1002500000543FE201017F51EA6A070FE96E010E87
:10026000EA22010EEF6E7FC1E6FF800EE66E22EC01
:1002700011F0E552E552F3CF00F0F4CF01F00101A7
:100280007F51E96EEA6AD890E936EA362F0EE92600
:10029000010EEA2200C0EEFF01C0EDFF7FC1E6FFC4
:1002A000800EE66E22EC11F0E552E552F3CF00F03D
:1002B000F4CF01F001017F51E96EEA6AD890E93686
:1002C000EA363F0EE926010EEA2200C0EEFF01C029
:1002D000EDFF01017F51EA6A070FE96E010EEA2284
:1002E000EF5001E076D201017F51EA6A770FE96EA3
:1002F000010EEA22EF5001E118D101017F51E96EB0
:10030000EA6AD890E936EA362F0EE926010EEA228B
:10031000EECF00F0EFCF01F001017F51E96EEA6A04
:10032000D890E936EA360F0EE926010EEA22EECF22
:1003300002F0EFCF03F00250005C0350015826E2B8
:1003400001017F51EA6A770FE96E010EEA22EF5050
:1003500080081CE201017F51EA6A770FE96E010E05
:10036000EA22EF50800F040DF350006E016A010184
:100370007F51E96EEA6AD890E936EA362F0EE9260F
:10038000010EEA220050EE260150ED2201017F51BC
:10039000E96EEA6AD890E936EA362F0EE926010EB0
:1003A000EA22EECF00F0EFCF01F001017F51E96EBC
:1003B000EA6AD890E936EA361F0EE926010EEA22EB
:1003C000EECF02F0EFCF03F00050025C0150035873
:1003D0002AE201017F51EA6A770FE96E010EEA22F3
:1003E000EFCF04F0800E045C1EE2800E026E01016D
:1003F0007F51EA6A770FE96E010EEA22EF50025C44
:10040000040DF350006E016A01017F51E96EEA6A42
:10041000D890E936EA362F0EE926010EEA2200507E
:10042000EE5E0150ED5A01017F51E96EEA6AD89003
:10043000E936EA362F0EE926010EEA22EECF00F069
:10044000EFCF01F001017F51E96EEA6AD890E936F9
:10045000EA361F0EE926010EEA22EECF02F0EFCFB8
:1004600003F00250005C035001581EE201017F516D
:10047000E96EEA6AD890E936EA361F0EE926010EDF
:10048000EA22EECF00F0EFCF01F001017F51E96EDB
:10049000EA6AD890E936EA362F0EE926010EEA22FA
:1004A00000C0EEFF01C0EDFF01017F51E96EEA6A75
:1004B000D890E936EA362F0EE926010EEA22EECF71
:1004C00000F0EFCF01F001017F51E96EEA6AD890A8
:1004D000E936EA360F0EE926010EEA22EECF02F0E7
:1004E000EFCF03F00050025C015003581EE20101FF
:1004F0007F51E96EEA6AD890E936EA360F0EE926AE
:10050000010EEA22EECF00F0EFCF01F001017F51A2
:10051000E96EEA6AD890E936EA362F0EE926010E2E
:10052000EA2200C0EEFF01C0EDFF01017F51EA6A3F
:10053000890FE96E010EEA22EF5001E1C1D00101FD
:100540007F51E96EEA6AD890E936EA362F0EE9263D
:10055000010EEA22EECF02F0EFCF03F001017F514E
:10056000E96EEA6AD890E936EA363F0EE926010ECE
:10057000EA22EE50025C006EEE500358016E00C09D
:10058000DEFF01C0DDFFDECF00F0DDCF01F00101B5
:100590007F51EA6A5F0FE96E010EEA22EF50026EA8
:1005A000036A0050025C015003580AE201017F51C6
:1005B000EA6A5F0FE96E010EEA22EF50DE6EDD6A35
:1005C000DECF00F0DDCF01F001017F51E96EEA6A74
:1005D000D890E936EA363F0EE926010EEA220050AD
:1005E000EE260150ED2201017F51E96EEA6AD890B2
:1005F000E936EA363F0EE926010EEA22EECF00F098
:10060000EFCF01F001017F51EA6A4F0FE96E010E51
:10061000EA22EF50026E036A0050025C0150035858
:1006200018E201017F51EA6A4F0FE96E010EEA22DA
:10063000EF50E66E01017F51E96EEA6AD890E93623
:10064000EA363F0EE926010EEA22E552E750EE6E49
:10065000ED6A01017F51E96EEA6AD890E936EA361F
:100660003F0EE926010EEA22EECF00F0EFCF01F0B7
:1006700001017F51EA6A570FE96E010EEA22EF503D
:10068000026E036A0250005C0350015818E2010137
:100690007F51EA6A570FE96E010EEA22EF50E66ECB
:1006A00001017F51E96EEA6AD890E936EA363F0ED9
:1006B000E926010EEA22E552E750EE6EED6A1ED001
:1006C00001017F51E96EEA6AD890E936EA362F0EC9
:1006D000E926010EEA22EECF00F0EFCF01F0010192
:1006E0007F51E96EEA6AD890E936EA363F0EE9268C
:1006F000010EEA2200C0EEFF01C0EDFF01017F51B3
:10070000070A1DE0010A19E0030A15E0010A11E0D9
:10071000070A0DE0010A09E0030A05E0010A01E009
:1007200010D082840FD082860DD082880BD0828A2E
:1007300009D0808C07D0808E05D0828003D0828241
:1007400001D000D001017F51E96EEA6AD890E93604
:10075000EA363F0EE926010EEA22EECF00F0EFCF97
:1007600001F0FF0ED8800056FF0E0156030E00C0A8
:10077000DBFF040E01C0DBFF030EDBCF00F0040E35
:10078000DBCF01F001C000F0016A0050B36EFF0E34
:10079000E76E030EDBCF00F0040EDBCF01F0E75075
:1007A0000016016A0050B26E01017F51E96EEA6ADB
:1007B000D890E936EA363F0EE926010EEA22EE50DD
:1007C0000101D427EE500101D5230101010E806FF4
:1007D00003D001017F2B1CD5010180514BE10101A8
:1007E0007F6B04680568066A076A500E0C6EC30EBC
:1007F0000D6E0E6A0F6AD4C110F0D5C111F0126AE5
:10080000136A10500C5C086E11500D58096E12508E
:100810000E580A6E13500F580B6E0850045C006E91
:1008200009500558016E0A500658026E0B500758C1
:10083000036E030E00C0DBFF040E01C0DBFF030EDE
:10084000DBCF00F0040EDBCF01F001C000F0016A45
:100850000050B36EFF0EE76E030EDBCF00F0040E08
:10086000DBCF01F0E7500016016A0050B26E0101C3
:10087000D46BD56BA19201D0FFD7070EE15C02E2E9
:10088000E16AE552E16EE552E5CFDAFFE7CFD9FF45
:10089000E55200EE25F0120EE80403E3E5CFEDFF8C
:1008A000FBD700EE35F0100EE80403E3E5CFEDFFD3
:1008B000FBD7E5CFFAFFE5CFF4FFE5CFF3FFE5CFB8
:1008C000F5FFE5CFF7FFE5CFF6FFE5CFEAFFE5CF90
:1008D000E9FF1100E9CFE4FFEACFE4FFF6CFE4FF40
:1008E000F7CFE4FFF5CFE4FFF3CFE4FFF4CFE4FF6D
:1008F000FACFE4FF00EE26F0100EE80403E3EECF9B
:10090000E4FFFBD700EE14F0120EE80403E3EECF91
:10091000E4FFFBD7E652D9CFE6FFDACFE6FFE1CF1F
:10092000D9FFE2CFDAFFE652E652E652A1AA67EF1C
:1009300009F068A04BEF09F068BA82D26ACFD6F10D
:1009400067BC679C0101D76B68B403D00101D86B09
:1009500076D20101D96B0101D851D10A01E15FD2F0
:10096000030A01E15CD2010A01E159D2070A01E15F
:1009700056D2650A01E12AD2030A01E127D2010A0F
:1009800001E124D2070A01E121D2010A01E11ED2CC
:10099000030A01E11BD2010A01E118D20F0A01E1A9
:1009A00015D2010A01E112D2030A01E10FD2010AB4
:1009B00001E10CD2070A01E109D2010A01E106D2E4
:1009C000030A01E103D21A0A01E1FBD1070A01E19E
:1009D000F3D1020A01E1DDD1010A01E1C7D1310AF7
:1009E00001E1B9D1030A01E1B6D1010A01E1B3D1B4
:1009F000070A01E1B0D1010A01E1ADD1030A01E129
:100A0000AAD1010A01E1A7D10F0A01E1A4D1190A73
:100A100001E196D1030A01E193D1010A01E190D1EC
:100A2000070A01E18DD1010A01E18AD1030A01E13E
:100A300087D1010A01E184D10F0A01E181D1F90ACC
:100A400001E16DD1030A01E16AD1010A01E167D137
:100A5000070A01E164D1010A01E161D1030A01E160
:100A60005ED1010A01E15BD10F0A01E158D1190AF7
:100A700001E144D1030A01E141D1010A01E13ED182
:100A8000070A01E13BD1010A01E138D1030A01E182
:100A900035D1010A01E132D10F0A01E12FD1390A22
:100AA00001E116D1030A01E113D1010A01E110D1DC
:100AB000070A01E10DD1010A01E10AD1030A01E1AE
:100AC00007D1010A01E104D10F0A01E101D1190A9C
:100AD00001E1E8D0030A01E1E5D0010A01E1E2D039
:100AE000070A01E1DFD0010A01E1DCD0030A01E1DC
:100AF000D9D0010A01E1D6D00F0A01E1D3D0790A99
:100B000001E1B5D0030A01E1B2D0010A01E1AFD0A1
:100B1000070A01E1ACD0010A01E1A9D0030A01E111
:100B2000A6D0010A01E1A3D00F0A01E1A0D01D0A5D
:100B300074E0010A48E0070A43E0020A3EE0010AC5
:100B400031E0330A2AE0010A25E0030A17E0010A2E
:100B500006E0100A01E06ED1080E6A6E6FD13F0EFA
:100B60008114E66E50EC0AF0E552E66E77EC0AF07E
:100B7000E5520101006F00C16AFF60D13F0E93147E
:100B8000E81CE66E50EC0AF0E5520101016F01C16C
:100B90006AFF54D102C16AFF51D13F0E0101031512
:100BA0006A6E4CD179EC0BF0E66EB4EC0BF0E552CA
:100BB0000101046F04C16AFF41D105C16AFF3ED142
:100BC00006C16AFF3BD101010E51800DF3CF3BF00E
:100BD00001010D51400DF3CF3AF001010C51200DF0
:100BE000F3CF39F001010B39F00B386E01010A51D6
:100BF000080DF3CF37F001010951040DF3CF36F0A2
:100C000001010851E824010107113610371038108E
:100C100039103A103B106A6E11D101019051800DCC
:100C2000F3CF3BF001018F51400DF3CF3AF00101BA
:100C30008E51200DF3CF39F001018D39F00B386E54
:100C400001018C51080DF3CF37F001018B51040DD8
:100C5000F3CF36F001018A51E824010189113610E1
:100C60003710381039103A103B106A6EE7D0310E49
:100C70000101D85DE66E310E0101D85DE96EEA6AC8
:100C8000D890E936EA362F0EE926010EEA22EECF99
:100C9000E6FFEFCFE6FFA0EC11F0E552E552E5529A
:100CA0006A6ECCD0410E0101D85DE66E410E0101A5
:100CB000D85DEA6A4F0FE96E010EEA22EF50E66E48
:100CC000E66AA0EC11F0E552E552E5526A6EB6D044
:100CD000510E0101D85DE66E510E0101D85DEA6A40
:100CE000570FE96E010EEA22EF50E66EE66AA0ECBD
:100CF00011F0E552E552E5526A6EA0D0610E010195
:100D0000D85DEA6A5F0FE96E010EEA22EF50E66EE7
:100D1000E66A4FEC12F0E552E5526A6E8FD0710E22
:100D20000101D85DEA6A670FE96E010EEA22EF5011
:100D3000E66EE66A4FEC12F0E552E5526A6E7ED03E
:100D4000810E0101D85DEA6A6F0FE96E010EEA2299
:100D5000EF506A6E73D0910E0101D85DEA6A770F89
:100D6000E96E010EEA22EF506A6E68D0920EE66ECE
:100D7000010EE66E910EE66E010EE66E09EC0DF0C8
:100D8000E552E552E552E55292C16AFF91C1D9F1AF
:100D900055D0940EE66E010EE66E930EE66E010ED1
:100DA000E66EC5EC0EF0E552E552E552E55294C10F
:100DB0006AFF93C1D9F142D097C16AFF96C1D9F1B8
:100DC0003DD099C16AFF98C1D9F138D0B10E010167
:100DD000D85DE96EEA6AD890E936EA369A0EE926D5
:100DE000010EEA22EECF36F0EFCF37F037C036F003
:100DF000376A36506A6EB10E0101D85DE96EEA6A53
:100E0000D890E936EA369A0EE926010EEA22EECFAC
:100E100036F0EFCF37F036500101D96F0FD0D10E39
:100E20000101D85DEA6ABA0FE96E010EEA22EF50BD
:100E30006A6E04D06A680101D96900D067882BD234
:100E400068B429D20101D75103E16ACFD8F109D0A2
:100E50000101D751EA6AC00FE96E010EEA226ACF9A
:100E6000EFFF0A0E0101D75D02E20101D72B67BC3B
:100E7000679C020E0101D75D01E0D9D10101D85173
:100E8000D10A01E1BED1030A01E1BBD1010A01E1AE
:100E9000B8D1070A01E1B5D1450A01E1A7D1030A9A
:100EA00001E1A4D1010A01E1A1D1070A01E19ED12A
:100EB000010A01E19BD1030A01E198D1010A01E194
:100EC00095D10F0A01E192D1190A01E184D1030AF7
:100ED00001E181D1010A01E17ED1070A01E17BD163
:100EE000010A01E178D1030A01E175D1010A01E1AA
:100EF00072D10F0A01E16FD1F90A01E159D1030A58
:100F000001E156D1010A01E153D1070A01E150D1B3
:100F1000010A01E14DD1030A01E14AD1010A01E1CF
:100F200047D10F0A01E144D1190A01E12ED1030A88
:100F300001E12BD1010A01E128D1070A01E125D104
:100F4000010A01E122D1030A01E11FD1010A01E1F5
:100F50001CD10F0A01E119D1390A01E1FED0030ABF
:100F600001E1FBD0010A01E1F8D0070A01E1F5D067
:100F7000010A01E1F2D0030A01E1EFD0010A01E127
:100F8000ECD00F0A01E1E9D0190A01E1CED0030A41
:100F900001E1CBD0010A01E1C8D0070A01E1C5D0C7
:100FA000010A01E1C2D0030A01E1BFD0010A01E157
:100FB000BCD00F0A01E1B9D0790A73E0030A71E0ED
:100FC000010A6FE0070A6DE0010A6BE0030A69E0BD
:100FD000010A67E00F0A65E01D0A62E0010A55E0B8
:100FE000070A50E0020A46E0010A3CE0330A34E016
:100FF000010A26E0030A13E0010A01E017D13F0EBF
:101000000101C1150101006F00C1E6FF29EC0AF0E2
:10101000E552366EC00E8A1436108A6E08D13F0E25
:101020000101C1150101016F01C1E6FF29EC0AF0C0
:10103000E552E81C366EC00E93143610936EF7D04E
:10104000010E0101C1150101026F0101025102E00F
:10105000F19E01D0F18EEBD03F0E0101C1150101CF
:10106000036FE5D0C1C104F104C1E6FF23EC0BF02E
:10107000E552DDD0C1C105F105C1E6FFC5EC0AF0BE
:10108000E552D5D0C1C106F1D2D0C1C1E6FFC7EC4F
:101090000BF0E55205C1E6FFC5EC0AF0E552C7D0FA
:1010A000C6D00101C15110E1310E0101D85DEA6ADB
:1010B000070FE96E010EEA22010EEF6E05C1E6FF91
:1010C000C5EC0AF0E55209D0310E0101D85DEA6A9B
:1010D000070FE96E010EEA22EF6A310E0101D85DB9
:1010E000E66EC1C1E6FF22EC11F0E552E552F3CF06
:1010F00036F0F4CF37F0310E0101D85DE96EEA6ABF
:10110000D890E936EA362F0EE926010EEA2236C0DB
:10111000EEFF37C0EDFF310E0101D85DEA6A810FA5
:10112000E96E010EEA22EF6A82D0410E0101D85D1C
:10113000E66EC1C1E6FF22EC11F0E552E552F35034
:10114000E66E410E0101D85DEA6A4F0FE96E010EAD
:10115000EA22E552E750EF6E6AD0510E0101D85DE8
:10116000E66EC1C1E6FF22EC11F0E552E552F35004
:10117000E66E510E0101D85DEA6A570FE96E010E65
:10118000EA22E552E750EF6E52D0C1C1E6FF37ECDC
:1011900012F0E552F350E66E610E0101D85DEA6A85
:1011A0005F0FE96E010EEA22E552E750EF6E3FD085
:1011B000C1C1E6FF37EC12F0E552F350E66E710E56
:1011C0000101D85DEA6A670FE96E010EEA22E55275
:1011D000E750EF6E2CD0810E0101D85DEA6A6F0FE7
:1011E000E96E010EEA22C1C1EFFF21D0910E01018B
:1011F000D85DEA6A770FE96E010EEA22C1C1EFFFFE
:1012000016D0D10E0101D85DEA6ABA0FE96E010E5F
:10121000EA22C1C1EFFFC1C1E6FFD10E0101D85DD5
:10122000E66EB1EC12F0E552E55201D000D0030EAB
:101230000101D75D30E10101D851A40A22E0070A7B
:101240001BE0020A10E0010A01E024D0C1C191F1C3
:10125000C2C192F192C1E6FF91C1E6FF31EC0CF000
:10126000E552E55218D0C2C1E6FFC1C1E6FF9BECD2
:101270000DF0E552E5520FD0C1C196F1C2C197F110
:101280000AD0C2C1E6FFC1C1E6FF4DEC0FF0E55246
:10129000E55201D000D06850200B17E06850040BD5
:1012A00014E06850010B11E1D9C16AFF0000000091
:1012B000000000000000000000000000000000002E
:1012C00000000000000000006788A19A72D0BAA058
:1012D0006FD0BA90C450386E38C039F0386AC350F5
:1012E00000013810366E39C037F0010E36C0DBFF12
:1012F000020E37C0DBFF010EDBCF36F0020EDBCF74
:1013000037F00001800E371404E0010EDB6A020E94
:10131000DB6A0101DB51E96EEA6AD890E936EA3608
:101320009A0EE926010EEA22010EDBCFEEFF020E35
:10133000DBCFEDFF0101DB2B0E0E0101DB5D02E3D4
:101340000101DB6BDBC1E6FF18EC10F0E552010197
:10135000DA6F0101DA511F0BF36EF346F346830E89
:10136000C214F310C26EC2820101BE51BF1104E06B
:101370000101BE07000EBF5B0101DC2B000EDD2367
:10138000E80E0101DC1902E1030EDD1910E1010193
:10139000DC6BDD6BDF6A080EDF5C09E2DF50EA6AB6
:1013A000810FE96E010EEA22EF2ADF2AF4D701D07D
:1013B000FFD7E552E552E552E552E5CFDAFFE7CF38
:1013C000D9FFE55200EE25F0120EE80403E3E5CF65
:1013D000EDFFFBD700EE35F0100EE80403E3E5CF98
:1013E000EDFFFBD7E5CFFAFFE5CFF4FFE5CFF3FF45
:1013F000E5CFF5FFE5CFF7FFE5CFF6FFE5CFEAFF55
:06140000E5CFE9FF110039
:0A1406008F0ED3147009D36E9B8C77
:1014100012002F0E926E9368C00E946E6F0E956E32
:10142000030E966E9768270E986EF18E0101026B7F
:10143000949C949E95909592959495969598959E4A
:101440008B9C8B9E8C908C928C948C968C988C9E82
:101450001200D9CFE6FFDACFE6FFE1CFD9FFE2CF26
:10146000DAFFE652DF6AFD0EDBB0DF82FD0EDBB293
:10147000DF86FD0EDBB4DF8AFD0EDBA602D0000E98
:10148000DB80FD0EDBB8DF84FD0EDBBADF88DF50CA
:1014900000D0E552E552E5CFDAFFE7CFD9FF1200E1
:1014A000D9CFE6FFDACFE6FFE1CFD9FFE2CFDAFF0F
:1014B000E652DF6AFD0EDBA202D0000EDB80FD0EDD
:1014C000DBB6DF82FD0EDBBADF84FD0EDBB0DF862C
:1014D000FD0EDBB4DF88FD0EDBB8DF8ADF5000D005
:1014E000E552E552E5CFDAFFE7CFD9FF1200D9CFB9
:1014F000E6FFDACFE6FFE1CFD9FFE2CFDAFFFD0E5C
:10150000DB500101031900D0E552E5CFDAFFE7CF48
:10151000D9FF1200D9CFE6FFDACFE6FFE1CFD9FF3E
:10152000E2CFDAFFE652DF6A94A403D0010EDF10A7
:10153000DF6E94A603D0020EDF10DF6E94A803D0F6
:10154000040EDF10DF6E94AA03D0080EDF10DF6EEA
:1015500092AC03D0100EDF10DF6E92AE03D0200EDF
:10156000DF10DF6E94A003D0400EDF10DF6E94A278
:1015700003D0800EDF10DF6EDF5000D0E552E55261
:10158000E5CFDAFFE7CFD9FF1200D9CFE6FFDACFF8
:10159000E6FFE1CFD9FFE2CFDAFFFD0EDB50010B12
:1015A00005E00101070502E1948401D09494FD0E49
:1015B000DB50020B05E00101080502E1948601D031
:1015C0009496FD0EDB50040B05E00101090502E1D4
:1015D000948801D09498FD0EDB50080B05E00101C2
:1015E0000A0502E1948A01D0949AFD0EDB50100B9B
:1015F00005E001010B0502E1928C01D0929CFD0EE9
:10160000DB50200B05E001010C0502E1928E01D0B8
:10161000929EFD0EDB50400B05E001010D0502E13D
:10162000948001D09490FD0EDB50800B05E0010109
:101630000E0502E1948201D09492E552E5CFDAFFE3
:10164000E7CFD9FF1200D9CFE6FFDACFE6FFE1CF2F
:10165000D9FFE2CFDAFF0101070506E1FD0EDBA0AD
:1016600002D0828401D082940101080506E1FD0EBA
:10167000DBA202D0828601D082960101090506E133
:10168000FD0EDBA402D0828801D0829801010A05F8
:1016900006E1FD0EDBA602D0828A01D0829A01010A
:1016A0000B0506E1FD0EDBA802D0808C01D0809CEA
:1016B00001010C0506E1FD0EDBAA02D0808E01D0EF
:1016C000809E01010D0506E1FD0EDBAC02D082809B
:1016D00001D0829001010E0506E1FD0EDBAE02D0C5
:1016E000828201D08292E552E5CFDAFFE7CFD9FFBF
:1016F0001200D9CFE6FFDACFE6FFE1CFD9FFE2CF84
:10170000DAFFE652DF6A82A403D0010EDF10DF6E3B
:1017100082A603D0020EDF10DF6E82A803D0040E73
:10172000DF10DF6E82AA03D0080EDF10DF6E80AC00
:1017300003D0100EDF10DF6E80AE03D0200EDF105E
:10174000DF6E82A003D0400EDF10DF6E82A203D0D6
:10175000800EDF10DF6EDF5000D0E552E552E5CF9E
:10176000DAFFE7CFD9FF1200D9CFE6FFDACFE6FFE5
:10177000E1CFD9FFE2CFDAFFFD0EDB500101061900
:1017800000D0E552E5CFDAFFE7CFD9FF1200D9CF7D
:10179000E6FFDACFE6FFE1CFD9FFE2CFDAFFE6528C
:1017A000DF6A080EDF5C21E2FD0EDBCFE6FF010EF3
:1017B000DF5206E0DFCFF3FFE846FE0BF306FCE165
:1017C000E552E71409E0DF50EA6A070FE96E010EFF
:1017D000EA22010EEF6E07D0DF50EA6A070FE96ECA
:1017E000010EEA22EF6ADF2ADCD7E552E552E5CFA7
:1017F000DAFFE7CFD9FF1200D9CFE6FFDACFE6FF55
:10180000E1CFD9FFE2CFDAFFE652DF6A080EDF5CF4
:1018100021E2FD0EDBCFE6FF010EDF5206E0DFCF57
:10182000F3FFE846FE0BF306FCE1E552E71408E09F
:10183000DF50EA6A890FE96E010EEA22EF6A08D0EA
:10184000DF50EA6A890FE96E010EEA22010EEF6E9F
:10185000DF2ADCD7E552E552E5CFDAFFE7CFD9FF43
:101860001200D9CFE6FFDACFE6FFE1CFD9FFE2CF12
:10187000DAFF010E01019815010806E1FD0EDBA05B
:1018800002D0868201D08692020E01019815E840AE
:101890007F0B010806E1FD0EDBA202D0858E01D090
:1018A000859E040E01019815E840E8403F0B0108B1
:1018B00006E1FD0EDBA402D0858A01D0859A080ED0
:1018C00001019815E840E840E8401F0B010806E1D7
:1018D000FD0EDBA602D0858601D08596100E010193
:1018E0009815E8380F0B010806E1FD0EDBA802D0C1
:1018F000858201D08592200E01019815E00BE83811
:10190000E840010806E1FD0EDBAA02D0808201D08A
:101910008092060E146E400E0101981514C0E7FF68
:10192000E75204E0E8427F0BE706FCE1010806E12C
:10193000FD0EDBAC02D0808601D08096010E010145
:101940009915010806E1FC0EDBA002D0868401D0C7
:101950008694020E01019915E8407F0B010806E10B
:10196000FC0EDBA202D0858C01D0859C040E010107
:101970009915E840E8403F0B010806E1FC0EDBA4A6
:1019800002D0858801D08598080E01019915E8409C
:10199000E840E8401F0B010806E1FC0EDBA602D080
:1019A000858401D08594100E01019915E8380F0B3C
:1019B000010806E1FC0EDBA802D0808001D08090F7
:1019C000200E01019915E00BE838E840010806E116
:1019D000FC0EDBAA02D0808401D08094060E146E27
:1019E000400E0101991514C0E7FFE75204E0E842F8
:1019F0007F0BE706FCE1010806E1FC0EDBAC02D040
:101A0000808A01D0809AE552E5CFDAFFE7CFD9FF8F
:101A10001200D9CFE6FFDACFE6FFE1CFD9FFE2CF60
:101A2000DAFFE652E652DF6A010EDB6A86A203D0D5
:101A3000010EDF10DF6E85AE03D0020EDF10DF6E09
:101A400085AA03D0040EDF10DF6E85A603D0080E32
:101A5000DF10DF6E85A203D0100EDF10DF6E80A2D4
:101A600003D0200EDF10DF6E80A603D0400EDF1003
:101A7000DF6E86A407D0010EDB500109E76E010E70
:101A8000E7CFDBFF85AC07D0010EDB500209E76E24
:101A9000010EE7CFDBFF85A807D0010EDB5004095C
:101AA000E76E010EE7CFDBFF85A407D0010EDB5008
:101AB0000809E76E010EE7CFDBFF80A007D0010E1B
:101AC000DB501009E76E010EE7CFDBFF80A407D0E3
:101AD000010EDB502009E76E010EE7CFDBFF80AA85
:101AE00007D0010EDB504009E76E010EE7CFDBFFA8
:101AF000010EDB5001019719E66EFA0EDBCFE9FF0C
:101B0000FB0EDBCFEAFFE552E750EF6EDF5001013D
:101B10009619E66EFC0EDBCFE9FFFD0EDBCFEAFF88
:101B2000E552E750EF6EE552E552E552E5CFDAFFB8
:101B3000E7CFD9FF1200D9CFE6FFDACFE6FFE1CF3A
:101B4000D9FFE2CFDAFF010E01019815010808E183
:101B5000FD0EDB50010B010802E1989201D0988242
:101B6000020E01019815E8407F0B01080AE1FD0E05
:101B7000DB50020BE8407F0B010802E1979E01D089
:101B8000978E040E01019815E840E8403F0B0108CC
:101B90000BE1FD0EDB50040BE840E8403F0B010871
:101BA00002E1979A01D0978A080E01019815E84042
:101BB000E840E8401F0B01080CE1FD0EDB50080B6C
:101BC000E840E840E8401F0B010802E1979601D089
:101BD0009786100E01019815E8380F0B01080AE1ED
:101BE000FD0EDB50100BE8380F0B010802E1979255
:101BF00001D09782200E01019815E00BE838E840EB
:101C000001080BE1FD0EDB50200BE00BE838E8404B
:101C1000010802E1929201D09282060E146E400EEB
:101C20000101981514C0E7FFE75204E0E8427F0B7A
:101C3000E706FCE1010812E1060E146EFD0EDB5012
:101C4000400B14C0E7FFE75204E0E8427F0BE706D1
:101C5000FCE1010802E1929601D09286010E010199
:101C60009915010808E1FC0EDB50010B010802E1A7
:101C7000989401D09884020E01019915E8407F0BD9
:101C800001080AE1FC0EDB50020BE8407F0B010863
:101C900002E1979C01D0978C040E01019915E84050
:101CA000E8403F0B01080BE1FC0EDB50040BE84061
:101CB000E8403F0B010802E1979801D09788080E91
:101CC00001019915E840E840E8401F0B01080CE1CC
:101CD000FC0EDB50080BE840E840E8401F0B010811
:101CE00002E1979401D09784100E01019915E8380C
:101CF0000F0B01080AE1FC0EDB50100BE8380F0B4C
:101D0000010802E1929001D09280200E0101991504
:101D1000E00BE838E84001080BE1FC0EDB50200B3B
:101D2000E00BE838E840010802E1929401D0928487
:101D3000060E146E400E0101991514C0E7FFE7521C
:101D400004E0E8427F0BE706FCE1010812E1060E21
:101D5000146EFC0EDB50400B14C0E7FFE75204E0AA
:101D6000E8427F0BE706FCE1010802E1929A01D00C
:101D7000928AFD0EDBCF93F1FC0EDBCF94F1E5529E
:101D8000E5CFDAFFE7CFD9FF1200D9CFE6FFDACFF0
:101D9000E6FFE1CFD9FFE2CFDAFFE652E652DF6A93
:101DA000010EDB6A98B203D0010EDF10DF6E97BE22
:101DB00003D0020EDF10DF6E97BA03D0040EDF10DF
:101DC000DF6E97B603D0080EDF10DF6E97B203D038
:101DD000100EDF10DF6E92B203D0200EDF10DF6E28
:101DE00092B603D0400EDF10DF6E98B407D0010E1C
:101DF000DB500109E76E010EE7CFDBFF97BC07D090
:101E0000010EDB500209E76E010EE7CFDBFF97B84A
:101E100007D0010EDB500409E76E010EE7CFDBFFB0
:101E200097B407D0010EDB500809E76E010EE7CF2B
:101E3000DBFF92B007D0010EDB501009E76E010EF8
:101E4000E7CFDBFF92B407D0010EDB502009E76E2D
:101E5000010EE7CFDBFF92BA07D0010EDB5040093D
:101E6000E76E010EE7CFDBFFFC0EDBCFE9FFFD0ED7
:101E7000DBCFEAFFDFCFEFFFFA0EDBCFE9FFFB0E90
:101E8000DBCFEAFF010EDBCFEFFFE552E552E55273
:101E9000E5CFDAFFE7CFD9FF1200D9CFE6FFDACFDF
:101EA000E6FFE1CFD9FFE2CFDAFFFD0EDBB003D0D2
:101EB0000F01239702D00F012387FD0EDB50020B89
:101EC000E8407F0B03E10F01259B02D00F01258B1A
:101ED000FD0EDB50040BE840E8403F0B03E10F012F
:101EE000249502D00F012485FD0EDB50080BE8403D
:101EF000E840E8401F0B03E10F01249102D00F01DD
:101F00002481FD0EDB50100BE8380F0B03E10F01AD
:101F1000259D02D00F01258DFD0EDB50200BE00B1F
:101F2000E838E840000903E10F01259302D00F01D2
:101F30002583060E146EFD0EDB50400B14C0E7FF28
:101F4000E75204E0E8427F0BE706FCE1000903E109
:101F50000F01259702D00F012587FC0EDBB003D0BF
:101F60000F01239502D00F012385FC0EDB50020BDD
:101F7000E8407F0B03E10F01249702D00F01248773
:101F8000FC0EDB50040BE840E8403F0B03E10F017F
:101F9000249302D00F012483FC0EDB50080BE84091
:101FA000E840E8401F0B03E10F01259F02D00F011D
:101FB000258FFC0EDB50100BE8380F0B03E10F01EF
:101FC000259102D00F012581FC0EDB50200BE00B88
:101FD000E838E840000903E10F01259502D00F0120
:101FE0002585060E146EFC0EDB50400B14C0E7FF77
:101FF000E75204E0E8427F0BE706FCE1000903E159
:102000000F01259902D00F012589FD0EDBCF98F134
:10201000FC0EDBCF99F194C1E6FF93C1E6FF8BDDA7
:10202000E552E552E552E5CFDAFFE7CFD9FF1200DE
:10203000D9CFE6FFDACFE6FFE1CFD9FFE2CFDAFF73
:10204000FD0EDB50EA6A000FE96E0F0EEA22EF5038
:0E20500000D0E552E5CFDAFFE7CFD9FF12004E
:02205E00D9CFD8
:10206000E6FFDACFE6FFE1CFD9FFE2CFDAFFE652B3
:10207000870ECA140009CA6EFC0ECA140009CA6E83
:10208000CC6AFE0ECB6ECA843F0EB1140009B16E4D
:10209000CF0EB1143009B16EB1823C0EB36EAF0EEB
:1020A000B26EA192A082A282B180870E6B14180931
:1020B0006B6EFC0E6B1403096B6EFA0E6C6E6D6A20
:1020C000BA90B980D2906B84DF6A080EDF5C01E3BE
:1020D000AED0DF50EA6A070FE96E010EEA22EF6A1E
:1020E000EA6ADF34FE0BEA36E96E0F0EE926010ECE
:1020F000EA22A00EEE6E0F0EED6EEA6ADF34FE0BE2
:10210000EA36E96E1F0EE926010EEA22D00EEE6EC7
:10211000070EED6EDFCFE6FF800EE66E93D8E55238
:10212000E552F3CF14F0F4CF15F0EA6ADF34FE0B7A
:10213000EA36E96E2F0EE926010EEA2214C0EEFF00
:1021400015C0EDFFDFCFE6FFE6687CD8E552E5522B
:10215000F350E66EDF50EA6A4F0FE96E010EEA2295
:10216000E552E750EF6EDFCFE6FF010EE66E6AD86C
:10217000E552E552F350E66EDF50EA6A570FE96E1A
:10218000010EEA22E552E750EF6EE66870D9E5529B
:10219000F350E66EDF50EA6A5F0FE96E010EEA2245
:1021A000E552E750EF6EE66862D9E552F350E66E0D
:1021B000DF50EA6A670FE96E010EEA22E552E75046
:1021C000EF6EDF50EA6A6F0FE96E010EEA22EF6AE6
:1021D000DFCFE6FF800EE66E35D8E552E552F3CF4D
:1021E00014F0F4CF15F0EA6ADF34FE0BEA36E96E3C
:1021F0003F0EE926010EEA2214C0EEFF15C0EDFFE6
:10220000DF50EA6A810FE96E010EEA22EF6ADF50C1
:10221000EA6A770FE96E010EEA22EF6ADF50EA6A96
:10222000890FE96E010EEA22EF6ADF2A4ED701011B
:102230007F6B0101806BE552E552E5CFDAFFE7CF16
:10224000D9FF1200D9CFE6FFDACFE6FFE1CFD9FF01
:10225000E2CFDAFFFC0EEA6ADB34FE0BEA36E96E07
:102260001F0EE926010EEA22EECF18F0EFCF19F08B
:102270001A6A1B6AFD0EDBCF22F0236A246A256AE4
:10228000FC0EEA6ADB34FE0BEA36E96E0F0EE92635
:10229000010EEA22EECF20F0EFCF21F0FC0EEA6A29
:1022A000DB34FE0BEA36E96E1F0EE926010EEA2248
:1022B000EE50205C1C6EEE5021581D6E1E6A1F6A87
:1022C0001CC02AF01DC02BF01EC02CF01FC02DF02A
:1022D00022C02FF023C030F024C031F025C032F0EE
:1022E000B7EC13F026C02AF027C02BF028C02CF042
:1022F00029C02DF02F6A010E306E316A326A26EC49
:1023000014F018502A24146E19502B20156E1A50F0
:102310002C20166E1B502D20176E020E1426000E58
:102320001522000E1622000E172214C0F3FF15C04E
:10233000F4FF00D0E552E5CFDAFFE7CFD9FF120076
:10234000D9CFE6FFDACFE6FFE1CFD9FFE2CFDAFF60
:10235000FC0EDBCF14F0FD0EDBCF15F0FB0EEA6AAE
:10236000DB34FE0BEA36E96E1F0EE926010EEA2287
:10237000EECF16F0EFCF17F01450165C155017582B
:1023800002E3000E6ED0FC0EDBCF14F0FD0EDBCFAF
:1023900015F0FB0EEA6ADB34FE0BEA36E96E0F0E2F
:1023A000E926010EEA22EECF16F0EFCF17F0165015
:1023B000145C1750155802E3FF0E53D0FB0EEA6A67
:1023C000DB34FE0BEA36E96E0F0EE926010EEA2237
:1023D000EECF1EF0EFCF1FF0FB0EEA6ADB34FE0BF0
:1023E000EA36E96E1F0EE926010EEA22EE501E5C67
:1023F0001A6EEE501F581B6E1C6A1D6AFC0EDBCF56
:1024000018F0FD0EDBCF19F0FB0EEA6ADB34FE0B91
:10241000EA36E96E1F0EE926010EEA22EE50185C3C
:10242000146EEE501958156E166A176A16C017F01A
:1024300015C016F014C015F0146A14C02AF015C0A7
:102440002BF016C02CF017C02DF01AC02FF01BC0B7
:1024500030F01CC031F01DC032F026EC14F02A50D0
:1024600000D0E552E5CFDAFFE7CFD9FF1200D9CF90
:10247000E6FFDACFE6FFE1CFD9FFE2CFDAFFFD0ECC
:10248000DB38F00B146E156A14C0F3FF15C0F4FFAF
:1024900000D0E552E5CFDAFFE7CFD9FF1200D9CF60
:1024A000E6FFDACFE6FFE1CFD9FFE2CFDAFFFC0E9D
:1024B000DBCF14F0FD0EDBCF15F0040ED8901532F3
:1024C0001432E804FBE1145000D0E552E5CFDAFF06
:0624D000E7CFD9FF120066
:0A24D6000F012D972D992D9B0F018A
:1024E0002C9D2C9F0F012C990F012C950F012C91E5
:1024F0002C930F012B990F012B950F012B912B93EF
:102500000F014F6B786A756A726A6F6A0F01476BC9
:102510000F01446B0F01416B0F014E914E934E859D
:102520004E87F00E77140C09776EF00E74140C09B8
:10253000746EF00E71140C09716EF00E6E140C09AD
:102540006E6E0F0146914693468546870F01439173
:102550004393438543870F014091409340854087D3
:102560001200D9CFE6FFDACFE6FFE1CFD9FFE2CF05
:10257000DAFFFD0EDB50020A01E178D0010A4FE0DC
:10258000030A26E0010A01E09CD0FC0EDB5003E1C7
:10259000786A756A1CD0FC0EDB50800803E178680D
:1025A000756815D0FC0EDB50800807E2FC0EDB508E
:1025B000800FE824786E756A0AD0786AFC0EDBCF4B
:1025C000E6FF800EE552D880E754E824756E7AD095
:1025D000FC0EDB5004E10F014F6B726A1FD0FC0E42
:1025E000DB50800804E10F014F69726817D0FC0EC0
:1025F000DB50800808E2FC0EDB50800FE8240F015E
:102600004F6F726A0BD00F014F6BFC0EDBCFE6FFF2
:10261000800EE552D880E754E824726E53D0FC0E49
:10262000DB5004E16F6A0F01476B1FD0FC0EDB50DB
:10263000800804E16F680F01476917D0FC0EDB507A
:10264000800808E2FC0EDB50800FE8246F6E0F015B
:10265000476B0BD06F6AFC0EDBCFE6FF800EE552B6
:10266000D880E754E8240F01476F2CD0FC0EDB50D4
:1026700005E10F01446B0F01416B22D0FC0EDB50D2
:10268000800805E10F0144690F01416919D0FC0E72
:10269000DB50800809E2FC0EDB50800FE8240F01BC
:1026A000446F0F01416B0CD00F01446BFC0EDBCF6C
:1026B000E6FF800EE552D880E754E8240F01416F11
:1026C00001D000D0E552E5CFDAFFE7CFD9FF120005
:1026D0001E0EF66E000EF76E000EF86E0101090078
:1026E000F550CF6F0900F550D06F03E1CF6701D0EF
:1026F0003DD00900F550CA6F0900F550CB6F0900B5
:10270000F550CC6F09000900F550E96E0900F5504D
:10271000EA6E090009000900F550CD6F0900F55077
:10272000CE6F09000900F6CFD1F1F7CFD2F1F8CF83
:10273000D3F1CAC1F6FFCBC1F7FFCCC1F8FF01014D
:10274000CD5302E1CE5307E00900F550EE6ECD0700
:10275000F8E2CE07F9D7D1C1F6FFD2C1F7FFD3C156
:0E276000F8FF0101CF07000ED05BBFD71200BB
:02276E002A50EF
:102770002F02F3CF26F0F4CF27F03002F3502726B4
:10278000000EF420286E2A503102F3502826000E45
:10279000F420296E2A503202F35029262B502F02A2
:1027A000F3502726F4502822000E29222B50300205
:1027B000F3502826F45029222B503102F3502926B9
:1027C0002C502F02F3502826F45029222C5030028E
:0E27D000F35029262D502F02F3502926120017
:0227DE00D9CF51
:1027E000E6FFDACFE6FFE1CFD9FFE2CFDAFFE6522C
:1027F000C08EE66AE66A4DEC0FF0E552E552F80E3F
:10280000C0140609C06EC70EC0143809C06EC2805D
:10281000E66AE66A9BEC0DF0E552E552DF6A0E0EC1
:10282000DF5C0DE2EA6ADF34FE0BEA36E96E9A0EEF
:10283000E926010EEA22EE6AED6ADF2AF0D7E552B8
:0C284000E552E5CFDAFFE7CFD9FF120028
:04284C00296A286A63
:10285000276A266A200EE76ED8902A362B362C3649
:102860002D3626362736283629362F50265C30500E
:102870002758315028583250295809E32F50265EE6
:102880003050275A3150285A3250295A2A2AE72ED6
:04289000E4D7120077
:0C28940089880101E80EBE6F030EBF6FC3
:1028A0001200F29C0101BE51BF1106E107D80101DF
:1028B000E80EBE6F030EBF6FF28C12008978120013
:1028C00003EC0AF009EC0AF092EC14F0EFEC13F0D0
:1028D0002FEC10F06BEC12F022EC00F04AEC14F04C
:0828E00051EC14F0FDD71200C9
:0828E800160EF36E00EE00F085
:1028F0000F0E01D81200EA6002D0EE6AFCD7F35046
:08290000E9601200EE6AFCD749
:082908001EEE00F02EEE00F0BF
:10291000F86A359C68EC13F003EC00F060EC14F0FE
:04292000FBD71200CF
:0C292400958A958CF00E67140609676E0A
:0E293000380E696EA19AA08AA29A678A1200D8
:02293E00000097
:102940000000000000000000000000000000000087
:102950000000000000000000000000000000000077
:102960000000000000000000000000000000000067
:102970000000000000000000000000000000000057
:102980000000000000000000000000000000000047
:102990000000000000000000000000000000000037
:1029A0000000000000000000000000000000000027
:1029B0000000000000000000000000000000000017
:1029C0000000000000000000000000000000000007
:1029D00000000000000000000000000000000000F7
:1029E00000000000000000000000000000000000E7
:0E29F0000000000000000000000000000000D9
:0229FE001305BF
:0C2A00000A08060103120B09070002047B
:020000040030CA
:0100000010EF
:010001009866
:0100020003FA
:0100030000FC
:0100040000FB
:010005008872
:0100060000F9
:010008000FE8
:01000900C036
:01000A000FE6
:01000B00E014
:01000C000FE4
:01000D0040B2
:00000001FF
