:020000040000FA
:06000000D7EF15F012001D
:020006001200E6
:0600080026EF00F01200DB
:02000E000000F0
:080010000000000000000000E8
:06001800BFEF04F012002E
:02001E000300DD
:100020000E000000E80100000A000000B82C0000EB
:10003000000F00000E000000E42B00000001000093
:04004000D4000000E8
:0C004400D08EF28CF28E1200E9CFE4FFA7
:10005000EACFE4FFF6CFE4FFF7CFE4FFF5CFE4FF0C
:10006000F3CFE4FFF4CFE4FFFACFE4FF00EE26F095
:10007000100EE80403E3EECFE4FFFBD700EE14F02C
:10008000120EE80403E3EECFE4FFFBD7E652D9CF2C
:10009000E6FFDACFE6FFE1CFD9FFE2CFDAFF070EC6
:1000A000E12402E3E168E652E16EDE6ADD6A030EF6
:1000B000DB6A040EDB6A050EDB6A060EDB6AA1A2B0
:1000C00091EF04F00101905101E1A3D001018F51A2
:1000D000070A1DE0010A19E0030A15E0010A11E010
:1000E000070A0DE0010A09E0030A05E0010A01E040
:1000F00010D082940FD082960DD082980BD0829A25
:1001000009D0809C07D0809E05D0829003D0829237
:1001100001D000D00101906B04680568066A076A87
:10012000700E0C6E170E0D6E0E6A0F6A01018F5164
:10013000E96EEA6AD890E936EA363F0EE926010E02
:10014000EA22EECF10F0EFCF11F0126A136A1050CE
:100150000C5C086E11500D58096E12500E580A6E44
:1001600013500F580B6E0850045C006E0950055870
:10017000016E0A500658026E0B500758036E030EAC
:1001800000C0DBFF040E01C0DBFF030EDBCF00F07D
:10019000040EDBCF01F001C000F0016A0050B36E25
:1001A000FF0EE76E030EDBCF00F0040EDBCF01F095
:1001B000E7500016016A0050B26E700E046E170E02
:1001C000056E066A076A01018F51E96EEA6AD890E6
:1001D000E936EA363F0EE926010EEA22EECF08F0B4
:1001E000EFCF09F00A6A0B6A0850045C006E0950F0
:1001F0000558016E0A500658026E0B500758036EE0
:1002000000500101E82701500101E92301018F2B72
:1002100086D3080E01018F5D01E333D301018F51B5
:10022000EA6A990FE96E010EEA22EF045CE101012E
:100230008F51EA6A910FE96E010EEA22EFCF00F0CA
:1002400001018F51EA6A7F0FE96E010EEA22EF5039
:10025000D880005448E201018F51EA6A7F0FE96EAD
:10026000010EEA22EF503FE001018F51EA6A070FC9
:10027000E96E010EEA22010EEF6E8FC1E6FF800EDD
:10028000E66E81EC12F0E552E552F3CF00F0F4CFC8
:1002900001F001018F51E96EEA6AD890E936EA3639
:1002A0002F0EE926010EEA2200C0EEFF01C0EDFF8D
:1002B0008FC1E6FF800EE66E81EC12F0E552E5524A
:1002C000F3CF00F0F4CF01F001018F51E96EEA6A3B
:1002D000D890E936EA363F0EE926010EEA2200C040
:1002E000EEFF01C0EDFF01018F51EA6A070FE96ED1
:1002F000010EEA22EF5001E0C1D201018F51EA6AFA
:10030000870FE96E010EEA22EF5001E118D10101D9
:100310008F51E96EEA6AD890E936EA362F0EE9265F
:10032000010EEA22EECF00F0EFCF01F001018F5174
:10033000E96EEA6AD890E936EA360F0EE926010E30
:10034000EA22EECF02F0EFCF03F00250005C035040
:10035000015826E201018F51EA6A870FE96E010E0A
:10036000EA22EF5080081CE201018F51EA6A870FF0
:10037000E96E010EEA22EF50800F040DF350006E7B
:10038000016A01018F51E96EEA6AD890E936EA36CE
:100390002F0EE926010EEA220050EE260150ED2232
:1003A00001018F51E96EEA6AD890E936EA362F0EDC
:1003B000E926010EEA22EECF00F0EFCF01F00101B5
:1003C0008F51E96EEA6AD890E936EA361F0EE926BF
:1003D000010EEA22EECF02F0EFCF03F00050025CF4
:1003E000015003582AE201018F51EA6A870FE96E32
:1003F000010EEA22EFCF04F0800E045C1EE2800EB4
:10040000026E01018F51EA6A870FE96E010EEA223E
:10041000EF50025C040DF350006E016A01018F5130
:10042000E96EEA6AD890E936EA362F0EE926010E1F
:10043000EA220050EE5E0150ED5A01018F51E96E43
:10044000EA6AD890E936EA362F0EE926010EEA224A
:10045000EECF00F0EFCF01F001018F51E96EEA6AB3
:10046000D890E936EA361F0EE926010EEA22EECFD1
:1004700002F0EFCF03F00250005C035001581EE27F
:1004800001018F51E96EEA6AD890E936EA361F0E0B
:10049000E926010EEA22EECF00F0EFCF01F00101D4
:1004A0008F51E96EEA6AD890E936EA362F0EE926CE
:1004B000010EEA2200C0EEFF01C0EDFF01018F51E5
:1004C000E96EEA6AD890E936EA362F0EE926010E7F
:1004D000EA22EECF00F0EFCF01F001018F51E96E7B
:1004E000EA6AD890E936EA360F0EE926010EEA22CA
:1004F000EECF02F0EFCF03F00050025C0150035842
:100500001EE201018F51E96EEA6AD890E936EA36B7
:100510000F0EE926010EEA22EECF00F0EFCF01F038
:1005200001018F51E96EEA6AD890E936EA362F0E5A
:10053000E926010EEA2200C0EEFF01C0EDFF010135
:100540008F51EA6A990FE96E010EEA22EF0401E089
:100550000CD101018F51E96EEA6AD890E936EA368A
:100560002F0EE926010EEA22EECF02F0EFCF03F0C4
:1005700001018F51E96EEA6AD890E936EA363F0EFA
:10058000E926010EEA22EE50025C006EEE5003589E
:10059000016E00C0DEFF01C0DDFFDECF00F0DDCF69
:1005A00001F001018F51EA6A6F0FE96E010EEA2234
:1005B000EF50026E036A03500118E8AE02D0013416
:1005C00004D00050025C015003580AE201018F512F
:1005D000EA6A6F0FE96E010EEA22EF50DE6EDD6A05
:1005E000DECF00F0DDCF01F001018F51EA6A770F15
:1005F000E96E010EEA22EF50026E036A026C031EDE
:10060000000E032201500318E8AE02D0033404D0D8
:100610000250005C0350015812E201018F51EA6A56
:10062000770FE96E010EEA22EF50006E016A006C4E
:10063000011E000E012200C0DEFF01C0DDFFDECF83
:1006400000F0DDCF01F001018F51E96EEA6AD89028
:10065000E936EA363F0EE926010EEA220050EE2680
:100660000150ED2201018F51E96EEA6AD890E93616
:10067000EA363F0EE926010EEA22EECF00F0EFCF78
:1006800001F001018F51E96EEA6AD890E936EA3645
:100690004F0EE926010EEA22EECF02F0EFCF03F073
:1006A0000050025C015003581EE201018F51E96EB7
:1006B000EA6AD890E936EA364F0EE926010EEA22B8
:1006C000EECF00F0EFCF01F001018F51E96EEA6A41
:1006D000D890E936EA363F0EE926010EEA2200C03C
:1006E000EEFF01C0EDFF01018F51E96EEA6AD8907B
:1006F000E936EA363F0EE926010EEA22EECF00F097
:10070000EFCF01F001018F51E96EEA6AD890E93626
:10071000EA365F0EE926010EEA22EECF02F0EFCFB5
:1007200003F00250005C035001581EE201018F519A
:10073000E96EEA6AD890E936EA365F0EE926010EDC
:10074000EA22EECF00F0EFCF01F001018F51E96E08
:10075000EA6AD890E936EA363F0EE926010EEA2227
:1007600000C0EEFF01C0EDFF1ED001018F51E96E08
:10077000EA6AD890E936EA362F0EE926010EEA2217
:10078000EECF00F0EFCF01F001018F51E96EEA6A80
:10079000D890E936EA363F0EE926010EEA2200C07B
:1007A000EEFF01C0EDFF01018F51070A1DE0010AB4
:1007B00019E0030A15E0010A11E0070A0DE0010A39
:1007C00009E0030A05E0010A01E010D082840FD09D
:1007D00082860DD082880BD0828A09D0808C07D087
:1007E000808E05D0828003D0828201D000D00101AA
:1007F0008F51E96EEA6AD890E936EA363F0EE9266B
:10080000010EEA22EECF00F0EFCF01F0FF0ED8800C
:100810000056FF0E0156030E00C0DBFF040E01C0A0
:10082000DBFF030EDBCF00F0040EDBCF01F001C0D5
:1008300000F0016A0050B36EFF0EE76E030EDBCFCF
:1008400000F0040EDBCF01F0E7500016016A005003
:10085000B26E01018F51E96EEA6AD890E936EA3644
:100860003F0EE926010EEA22EE500101E827EE5084
:100870000101E9230101010E906F03D001018F2BCB
:10088000C8D4010190514BE101018F6B04680568E8
:10089000066A076A500E0C6EC30E0D6E0E6A0F6A62
:1008A000E8C110F0E9C111F0126A136A10500C5C33
:1008B000086E11500D58096E12500E580A6E1350E2
:1008C0000F580B6E0850045C006E09500558016EFD
:1008D0000A500658026E0B500758036E030E00C0F4
:1008E000DBFF040E01C0DBFF030EDBCF00F0040EC4
:1008F000DBCF01F001C000F0016A0050B36EFF0EC3
:10090000E76E030EDBCF00F0040EDBCF01F0E75003
:100910000016016A0050B26E0101E86BE96BA1920A
:1009200001D0FFD7070EE15C02E2E16AE552E16E19
:10093000E552E5CFDAFFE7CFD9FFE55200EE25F02B
:10094000120EE80403E3E5CFEDFFFBD700EE35F030
:10095000100EE80403E3E5CFEDFFFBD7E5CFFAFF88
:10096000E5CFF4FFE5CFF3FFE5CFF5FFE5CFF7FFE8
:10097000E5CFF6FFE5CFEAFFE5CFE9FF1100E9CFCC
:10098000E4FFEACFE4FFF6CFE4FFF7CFE4FFF5CFD3
:10099000E4FFF3CFE4FFF4CFE4FFFACFE4FF00EE8F
:1009A00026F0100EE80403E3EECFE4FFFBD700EEE1
:1009B00014F0120EE80403E3EECFE4FFFBD7E65297
:1009C000D9CFE6FFDACFE6FFE1CFD9FFE2CFDAFFFA
:1009D000E652E652E652A1AA8EEF0AF068A072EF44
:1009E0000AF068BA1DD36ACFEAF167BC679C0101BF
:1009F000EB6B68B403D00101EC6B11D30101ED6B1B
:100A00000101EC51D50A01E1FAD2030A01E1F7D262
:100A1000010A01E1F4D20F0A01E1F1D2090A01E170
:100A2000E3D2030A01E1E0D2010A01E1DDD2070AC3
:100A300001E1DAD26C0A01E19AD2010A01E197D20E
:100A4000030A01E194D2010A01E191D2070A01E10E
:100A50008ED2010A01E18BD2030A01E188D20F0A8A
:100A600001E148D2030A01E145D2010A01E142D283
:100A7000070A01E13FD2010A01E13CD2030A01E188
:100A800039D2010A01E136D2130A01E12ED2070A56
:100A900001E126D2020A01E110D2010A01E1FAD1F4
:100AA000310A01E1ECD1030A01E1E9D1010A01E1D6
:100AB000E6D1070A01E1E3D1010A01E1E0D1030A2D
:100AC00001E1DDD1010A01E1DAD10F0A01E1D7D15B
:100AD000190A01E1C9D1030A01E1C6D1010A01E104
:100AE000C3D1070A01E1C0D1010A01E1BDD1030A66
:100AF00001E1BAD1010A01E1B7D10F0A01E1B4D194
:100B0000F90A01E1A0D1030A01E19DD1010A01E145
:100B10009AD1070A01E197D1010A01E194D1030AB0
:100B200001E191D1010A01E18ED10F0A01E18BD1DE
:100B3000190A01E177D1030A01E174D1010A01E147
:100B400071D1070A01E16ED1010A01E16BD1030AFB
:100B500001E168D1010A01E165D10F0A01E162D129
:100B6000390A01E144D1030A01E141D1010A01E15D
:100B70003ED1070A01E13BD1010A01E138D1030A64
:100B800001E135D1010A01E132D10F0A01E12FD192
:100B9000190A01E111D1030A01E10ED1010A01E1B3
:100BA0000BD1070A01E108D1010A01E105D1030ACD
:100BB00001E102D1010A01E1FFD00F0A01E1FCD0FD
:100BC000790A01E1DED0030A01E1DBD0010A01E18B
:100BD000D8D0070A01E1D5D0010A01E1D2D0030A39
:100BE00001E1CFD0010A01E1CCD00F0A01E1C9D067
:100BF0001D0A74E0010A48E0070A43E0020A3EE0E9
:100C0000010A31E0330A2AE0010A25E0030A17E06D
:100C1000010A06E0100A01E0FDD10D0E6A6EFED158
:100C20003F0E8114E66E77EC0BF0E552E66E9EEC1B
:100C30000BF0E5520101006F00C16AFFEFD13F0EDA
:100C40009314E81CE66E77EC0BF0E5520101016F9E
:100C500001C16AFFE3D102C16AFFE0D13F0E010189
:100C600003156A6EDBD1CBEC0CF0E66E06EC0DF0F2
:100C7000E5520101046F04C16AFFD0D105C16AFFCA
:100C8000CDD106C16AFFCAD101010E51800DF3CF4B
:100C90003BF001010D51400DF3CF3AF001010C5131
:100CA000200DF3CF39F001010B39F00B386E010143
:100CB0000A51080DF3CF37F001010951040DF3CFAC
:100CC00036F001010851E8240101071136103710F0
:100CD000381039103A103B106A6EA0D10101A051B2
:100CE000800DF350010802E1010E01D0000E3C6EB0
:100CF00001019F51400DF350010802E1010E01D0A6
:100D0000000E3B6E01019E51200DF350010802E1DF
:100D1000010E01D0000E3A6E01019D39F00B010861
:100D200002E1010E01D0000E396E01019C51080D47
:100D3000F350010802E1010E01D0000E386E0101EE
:100D40009B51040DF350010802E1010E01D0000E89
:100D5000376E01019A51E824010802E1010E01D029
:100D6000000E366E0101990502E1010E01D0000E60
:100D700036103710381039103A103B103C106A6E9C
:100D80004DD1310E0101EC5DE66E310E0101EC5DDD
:100D9000E96EEA6AD890E936EA362F0EE926010EA6
:100DA000EA22EECFE6FFEFCFE6FFFFEC12F0E552CE
:100DB000E552E5526A6E32D1410E0101EC5DE66EFC
:100DC000410E0101EC5DE96EEA6AD890E936EA3637
:100DD0004F0EE926010EEA22EECFE6FFEFCFE6FF47
:100DE000FFEC12F0E552E552E5526A6E17D1510E52
:100DF0000101EC5DE66E510E0101EC5DE96EEA6AFF
:100E0000D890E936EA365F0EE926010EEA22EECFE7
:100E1000E6FFEFCFE6FFFFEC12F0E552E552E552B8
:100E20006A6EFCD0610E0101EC5DEA6A6F0FE96E3B
:100E3000010EEA22EF50E66EE66AADEC13F0E552E1
:100E4000E5526A6EEBD0710E0101EC5DEA6A770F34
:100E5000E96E010EEA22EF50E66EE66AADEC13F0A1
:100E6000E552E5526A6EDAD0810E0101EC5DEA6A64
:100E70007F0FE96E010EEA22EF506A6ECFD0910E1D
:100E80000101EC5DEA6A870FE96E010EEA22EF507C
:100E90006A6EC4D0A20EE66E010EE66EA10EE66E7C
:100EA000010EE66E5BEC0EF0E552E552E552E552BE
:100EB000A2C16AFFA1C1EDF1B1D0A40EE66E010E90
:100EC000E66EA30EE66E010EE66E17EC10F0E5522C
:100ED000E552E552E552A4C16AFFA3C1EDF19ED0EF
:100EE000A7C16AFFA6C1EDF199D0A9C16AFFA8C147
:100EF000EDF194D0B10E0101EC5D376E010E375269
:100F000004E0E846FE0B3706FCE1366E0101A81D41
:100F1000361429E0B10E0101EC5DE96EEA6AD89061
:100F2000E936EA36AA0EE926010EEA22EECF36F0BD
:100F3000EFCF37F037C036F0376A36506A6EB10EF1
:100F40000101EC5DE96EEA6AD890E936EA36AA0E4C
:100F5000E926010EEA22EECF36F0EFCF37F0365019
:100F60000101ED6F03D06A6A0101ED6B57D0B80E35
:100F70000101EC5D376E010E375204E0E846FE0BCE
:100F80003706FCE1366E0101A91D361429E0B10EC9
:100F90000101EC5DE96EEA6AD890E936EA36AA0EFC
:100FA000E926010EEA22EECF36F0EFCF37F037C058
:100FB00036F0376A36506A6EB10E0101EC5DE96EAB
:100FC000EA6AD890E936EA36AA0EE926010EEA2244
:100FD000EECF36F0EFCF37F036500101ED6F03D092
:100FE0006A6A0101ED6B1AD0D10E0101EC5DEA6A6B
:100FF000CA0FE96E010EEA22EF506A6E0FD0D50ECD
:101000000101EC5DEA6ACE0FE96E010EEA22EF50B3
:101010006A6E04D06A680101ED6900D0678862D207
:1010200068B460D20101EB5103E16ACFECF109D061
:101030000101EB51EA6AD40FE96E010EEA226ACF90
:10104000EFFF0A0E0101EB5D02E20101EB2B67BC31
:10105000679C020E0101EB5D01E010D20101EC5131
:10106000D50A01E1FFD1030A01E1FCD1010A01E146
:10107000F9D10F0A01E1F6D1090A01E1DED1030A33
:1010800001E1DBD1010A01E1D8D1070A01E1D5D1A3
:10109000450A01E1C7D1030A01E1C4D1010A01E116
:1010A000C1D1070A01E1BED1010A01E1BBD1030AA6
:1010B00001E1B8D1010A01E1B5D10F0A01E1B2D1D4
:1010C000190A01E1A4D1030A01E1A1D1010A01E158
:1010D0009ED1070A01E19BD1010A01E198D1030ADF
:1010E00001E195D1010A01E192D10F0A01E18FD10D
:1010F000F90A01E173D1030A01E170D1010A01E1AA
:101100006DD1070A01E16AD1010A01E167D1030A41
:1011100001E164D1010A01E161D10F0A01E15ED16F
:10112000190A01E142D1030A01E13FD1010A01E1BB
:101130003CD1070A01E139D1010A01E136D1030AA4
:1011400001E133D1010A01E130D10F0A01E12DD1D2
:10115000390A01E10BD1030A01E108D1010A01E1D9
:1011600005D1070A01E102D1010A01E1FFD0030A1A
:1011700001E1FCD0010A01E1F9D00F0A01E1F6D04A
:10118000190A01E1D4D0030A01E1D1D0010A01E139
:10119000CED0070A01E1CBD0010A01E1C8D0030A91
:1011A00001E1C5D0010A01E1C2D00F0A01E1BFD0BF
:1011B000790A01E178D0030A76E0010A74E0070AAF
:1011C00072E0010A70E0030A6EE0010A6CE00F0AA7
:1011D0006AE01D0A62E0010A55E0070A50E0020ACF
:1011E00046E0010A3CE0330A34E0010A26E0030A43
:1011F00013E0010A01E041D13F0E0101D5150101C3
:10120000006F00C1E6FF50EC0BF0E552366EC00EE9
:101210008A1436108A6E32D13F0E0101D5150101B4
:10122000016F01C1E6FF50EC0BF0E552E81C366E91
:10123000C00E93143610936E21D1010E0101D51505
:101240000101026F0101025102E0F19E01D0F18E15
:1012500015D13F0E0101D5150101036F0FD1D5C185
:1012600004F104C1E6FF75EC0CF0E55207D1D5C1DD
:1012700005F105C1E6FFECEC0BF0E552FFD0D5C15E
:1012800006F1FCD0D5C1E6FF19EC0DF0E55205C121
:10129000E6FFECEC0BF0E552F1D0D5C1E6FF4EECE9
:1012A0000DF0E552EBD00101D55110E1310E0101F5
:1012B000EC5DEA6A070FE96E010EEA22010EEF6E9D
:1012C00005C1E6FFECEC0BF0E55209D0310E01014F
:1012D000EC5DEA6A070FE96E010EEA22EF6A310E51
:1012E0000101EC5DE66ED5C1E6FF81EC12F0E5523E
:1012F000E552F3CF36F0F4CF37F0310E0101EC5D5B
:10130000E96EEA6AD890E936EA362F0EE926010E30
:10131000EA2236C0EEFF37C0EDFF310E0101EC5D71
:10132000EA6A910FE96E010EEA22EF6AA7D0410E38
:101330000101EC5DE66ED5C1E6FF81EC12F0E552ED
:10134000E552F3CF36F0F4CF37F0410E0101EC5DFA
:10135000E96EEA6AD890E936EA364F0EE926010EC0
:10136000EA2236C0EEFF37C0EDFF88D0510E0101F2
:10137000EC5DE66ED5C1E6FF81EC12F0E552E55278
:10138000F3CF36F0F4CF37F0510E0101EC5DE96E8A
:10139000EA6AD890E936EA365F0EE926010EEA22BB
:1013A00036C0EEFF37C0EDFF69D00101D55103E132
:1013B0000101010ED56FD5C1E6FF96EC13F0E552A1
:1013C000F350E66E610E0101EC5DEA6A6F0FE96EA3
:1013D000010EEA22E552E750EF6E50D00101D551DF
:1013E00003E10101010ED56FD5C1E6FF96EC13F0C4
:1013F000E552F350E66E710E0101EC5DEA6A770F7B
:10140000E96E010EEA22E552E750EF6E37D0810E09
:101410000101EC5DEA6A7F0FE96E010EEA22D5C197
:10142000EFFF2CD0910E0101EC5DEA6A870FE96EA7
:10143000010EEA22D5C1EFFF21D0D10E0101EC5DF2
:10144000EA6ACA0FE96E010EEA22D5C1EFFFD5C1E3
:10145000E6FFD10E0101EC5DE66E04EC14F0E552FE
:10146000E5520CD0D50E0101EC5DEA6ACE0FE96EB3
:10147000010EEA22D5C1EFFF01D000D0030E010119
:10148000EB5D30E10101EC51A40A22E0070A1BE008
:10149000020A10E0010A01E024D0D5C1A1F1D6C1B1
:1014A000A2F1A2C1E6FFA1C1E6FF83EC0DF0E55277
:1014B000E55218D0D6C1E6FFD5C1E6FFEDEC0EF03F
:1014C000E552E5520FD0D5C1A6F1D6C1A7F10AD099
:1014D000D6C1E6FFD5C1E6FF9FEC10F0E552E5521C
:1014E00001D000D06850200B17E06850040B14E0C6
:1014F0006850010B11E1EDC16AFF0000000000001F
:1015000000000000000000000000000000000000DB
:101510000000000000006788A19A72D0BAA06FD0C6
:10152000BA90C450386E38C039F0386AC3500001E0
:101530003810366E39C037F0010E36C0DBFF020EB0
:1015400037C0DBFF010EDBCF36F0020EDBCF37F00A
:101550000001800E371404E0010EDB6A020EDB6A24
:101560000101EF51E96EEA6AD890E936EA36AA0E2F
:10157000E926010EEA22010EDBCFEEFF020EDBCFE1
:10158000EDFF0101EF2B0E0E0101EF5D02E3010102
:10159000EF6BEFC1E6FF6AEC11F0E5520101EE6F6F
:1015A0000101EE511F0BF36EF346F346830EC21496
:1015B000F310C26EC2820101D251D31104E00101C5
:1015C000D207000ED35B0101F02B000EF123E80ED1
:1015D0000101F01902E1030EF11910E10101F06BB4
:1015E000F16BDF6A080EDF5C09E2DF50EA6A910FF7
:1015F000E96E010EEA22EF2ADF2AF4D701D0FFD7E5
:10160000E552E552E552E552E5CFDAFFE7CFD9FFE3
:10161000E55200EE25F0120EE80403E3E5CFEDFFFE
:10162000FBD700EE35F0100EE80403E3E5CFEDFF45
:10163000FBD7E5CFFAFFE5CFF4FFE5CFF3FFE5CF2A
:10164000F5FFE5CFF7FFE5CFF6FFE5CFEAFFE5CF02
:04165000E9FF11009D
:0C1654008F0ED3147009D36E9B8C120013
:101660002F0E926E9368C00E946E6F0E956E030EE1
:10167000966E9768270E986EF18E0101026B949C0E
:10168000949E95909592959495969598959E8B9C01
:101690008B9E8C908C928C948C968C988C9E120045
:1016A000D9CFE6FFDACFE6FFE1CFD9FFE2CFDAFF0D
:1016B000E652DF6AFD0EDBB0DF82FD0EDBB2DF86B5
:1016C000FD0EDBB4DF8AFD0EDBA602D0000EDB8050
:1016D000FD0EDBB8DF84FD0EDBBADF88DF5000D003
:1016E000E552E552E5CFDAFFE7CFD9FF1200D9CFB7
:1016F000E6FFDACFE6FFE1CFD9FFE2CFDAFFE6522D
:10170000DF6AFD0EDBA202D0000EDB80FD0EDBB631
:10171000DF82FD0EDBBADF84FD0EDBB0DF86FD0E5F
:10172000DBB4DF88FD0EDBB8DF8ADF5000D0E55286
:10173000E552E5CFDAFFE7CFD9FF1200D9CFE6FFB8
:10174000DACFE6FFE1CFD9FFE2CFDAFFFD0EDB50C3
:101750000101031900D0E552E5CFDAFFE7CFD9FF49
:101760001200D9CFE6FFDACFE6FFE1CFD9FFE2CF13
:10177000DAFFE652DF6A94A403D0010EDF10DF6EB9
:1017800094A603D0020EDF10DF6E94A803D0040EDF
:10179000DF10DF6E94AA03D0080EDF10DF6E92AC6C
:1017A00003D0100EDF10DF6E92AE03D0200EDF10DC
:1017B000DF6E94A003D0400EDF10DF6E94A203D042
:1017C000800EDF10DF6EDF5000D0E552E552E5CF2E
:1017D000DAFFE7CFD9FF1200D9CFE6FFDACFE6FF75
:1017E000E1CFD9FFE2CFDAFF0101070507E1FD0EE6
:1017F000DBB002D0948401D0949401D09494010180
:1018000008050AE1FD0EDB50020BE8407F0B02E108
:10181000948601D0949601D09496010109050BE1BC
:10182000FD0EDB50040BE840E8403F0B02E19488DA
:1018300001D0949801D0949801010A050CE1FD0EA5
:10184000DB50080BE840E840E8401F0B02E1948AB7
:1018500001D0949A01D0949A01010B050AE1FD0E82
:10186000DB50100BE8380F0B02E1928C01D0929CF8
:1018700001D0929C01010C050CE1FD0EDB50200B08
:10188000E00BE838E840000902E1928E01D0929E18
:1018900001D0929E01010D0513E1060E146EFD0E9E
:1018A000DB50400B14C0E7FFE75204E0E8427F0B37
:1018B000E706FCE1000902E1948001D0949001D098
:1018C000949001010E050AE1FD0EDB50800BE84407
:1018D000010B02E1948201D0949201D09492E552DE
:1018E000E5CFDAFFE7CFD9FF1200D9CFE6FFDACF95
:1018F000E6FFE1CFD9FFE2CFDAFF0101070506E1FC
:10190000FD0EDBA002D0828401D082940101080583
:1019100006E1FD0EDBA202D0828601D08296010193
:10192000090506E1FD0EDBA402D0828801D0829871
:1019300001010A0506E1FD0EDBA602D0828A01D074
:10194000829A01010B0506E1FD0EDBA802D0808C16
:1019500001D0809C01010C0506E1FD0EDBAA02D03E
:10196000808E01D0809E01010D0506E1FD0EDBACED
:1019700002D0828001D0829001010E0506E1FD0EA9
:10198000DBAE02D0828201D08292E552E5CFDAFF4F
:10199000E7CFD9FF1200D9CFE6FFDACFE6FFE1CFDC
:1019A000D9FFE2CFDAFFE652DF6A82A403D0010E4C
:1019B000DF10DF6E82A603D0020EDF10DF6E82A87A
:1019C00003D0040EDF10DF6E82AA03D0080EDF10F2
:1019D000DF6E80AC03D0100EDF10DF6E80AE03D060
:1019E000200EDF10DF6E82A003D0400EDF10DF6E0E
:1019F00082A203D0800EDF10DF6EDF5000D0E552F0
:101A0000E552E5CFDAFFE7CFD9FF1200D9CFE6FFE5
:101A1000DACFE6FFE1CFD9FFE2CFDAFFFD0EDB50F0
:101A20000101061900D0E552E5CFDAFFE7CFD9FF73
:101A30001200D9CFE6FFDACFE6FFE1CFD9FFE2CF40
:101A4000DAFFE652DF6A080EDF5C21E2FD0EDBCF33
:101A5000E6FF010EDF5206E0DFCFF3FFE846FE0BA4
:101A6000F306FCE1E552E71409E0DF50EA6A070FEC
:101A7000E96E010EEA22010EEF6E07D0DF50EA6A2E
:101A8000070FE96E010EEA22EF6ADF2ADCD7E55282
:101A9000E552E5CFDAFFE7CFD9FF1200D9CFE6FF55
:101AA000DACFE6FFE1CFD9FFE2CFDAFFE652DF6A15
:101AB000080EDF5C21E2FD0EDBCFE6FF010EDF52F8
:101AC00006E0DFCFF3FFE846FE0BF306FCE1E5524C
:101AD000E71409E0DF50EA6A990FE96E010EEA2285
:101AE000010EEF6E07D0DF50EA6A990FE96E010E22
:101AF000EA22EF6ADF2ADCD7E552E552E5CFDAFFCA
:101B0000E7CFD9FF1200D9CFE6FFDACFE6FFE1CF6A
:101B1000D9FFE2CFDAFF010E0101A815010806E1A5
:101B2000FD0EDBA002D0868201D08692020E01015A
:101B3000A815E8407F0B010806E1FD0EDBA202D0EC
:101B4000858E01D0859E040E0101A815E840E8406D
:101B50003F0B010806E1FD0EDBA402D0858A01D00F
:101B6000859A080E0101A815E840E840E8401F0BDF
:101B7000010806E1FD0EDBA602D0858601D0859620
:101B8000100E0101A815E8380F0B010806E1FD0E43
:101B9000DBA802D0858201D08592200E0101A81514
:101BA000E00BE838E840010806E1FD0EDBAA02D0B0
:101BB000808201D08092060E146E400E0101A8159D
:101BC00014C0E7FFE75204E0E8427F0BE706FCE1C0
:101BD000010806E1FD0EDBAC02D0808601D08096C4
:101BE000010E0101A915010806E1FC0EDBA002D0DF
:101BF000868401D08694020E0101A915E8407F0B6E
:101C0000010806E1FC0EDBA202D0858C01D0859C88
:101C1000040E0101A915E840E8403F0B010806E168
:101C2000FC0EDBA402D0858801D08598080E010146
:101C3000A915E840E840E8401F0B010806E1FC0E4A
:101C4000DBA602D0858401D08594100E0101A91570
:101C5000E8380F0B010806E1FC0EDBA802D08080FB
:101C600001D08090200E0101A915E00BE838E84072
:101C7000010806E1FC0EDBAA02D0808401D080942A
:101C8000060E146E400E0101A91514C0E7FFE752BD
:101C900004E0E8427F0BE706FCE1010806E1FC0EE8
:101CA000DBAC02D0808A01D0809AE552E5CFDAFF22
:101CB000E7CFD9FF1200D9CFE6FFDACFE6FFE1CFB9
:101CC000D9FFE2CFDAFFE652E652DF6A010EDB6AA5
:101CD00086A203D0010EDF10DF6E85AE03D0020EA8
:101CE000DF10DF6E85AA03D0040EDF10DF6E85A63D
:101CF00003D0080EDF10DF6E85A203D0100EDF10B8
:101D0000DF6E80A203D0200EDF10DF6E80A603D02E
:101D1000400EDF10DF6E86A407D0010EDB500109F4
:101D2000E76E010EE7CFDBFF85AC07D0010EDB507D
:101D30000209E76E010EE7CFDBFF85A807D0010E91
:101D4000DB500409E76E010EE7CFDBFF85A407D067
:101D5000010EDB500809E76E010EE7CFDBFF80A024
:101D600007D0010EDB501009E76E010EE7CFDBFF55
:101D700080A407D0010EDB502009E76E010EE7CFEB
:101D8000DBFF80AA07D0010EDB504009E76E010E91
:101D9000E7CFDBFF010EDB500101A719E66EFA0E5B
:101DA000DBCFE9FFFB0EDBCFEAFFE552E750EF6E3A
:101DB000DF500101A619E66EFC0EDBCFE9FFFD0E38
:101DC000DBCFEAFFE552E750EF6EE552E552E55210
:101DD000E5CFDAFFE7CFD9FF1200D9CFE6FFDACFA0
:101DE000E6FFE1CFD9FFE2CFDAFF010E0101A8152E
:101DF000010808E1FD0EDB50010B010802E1989299
:101E000001D09882020E0101A815E8407F0B01085D
:101E10000AE1FD0EDB50020BE8407F0B010802E1F6
:101E2000979E01D0978E040E0101A815E840E84066
:101E30003F0B01080BE1FD0EDB50040BE840E840CE
:101E40003F0B010802E1979A01D0978A080E010121
:101E5000A815E840E840E8401F0B01080CE1FD0E22
:101E6000DB50080BE840E840E8401F0B010802E1A6
:101E7000979601D09786100E0101A815E8380F0B30
:101E800001080AE1FD0EDB50100BE8380F0B0108CA
:101E900002E1979201D09782200E0101A815E00B74
:101EA000E838E84001080BE1FD0EDB50200BE00BA9
:101EB000E838E840010802E1929201D09282060ED1
:101EC000146E400E0101A81514C0E7FFE75204E0AC
:101ED000E8427F0BE706FCE1010812E1060E146EF2
:101EE000FD0EDB50400B14C0E7FFE75204E0E84270
:101EF0007F0BE706FCE1010802E1929601D0928691
:101F0000010E0101A915010808E1FC0EDB50010BCF
:101F1000010802E1989401D09884020E0101A915EC
:101F2000E8407F0B01080AE1FC0EDB50020BE840A1
:101F30007F0B010802E1979C01D0978C040E0101F0
:101F4000A915E840E8403F0B01080BE1FC0EDB500F
:101F5000040BE840E8403F0B010802E1979801D0EC
:101F60009788080E0101A915E840E840E8401F0BDA
:101F700001080CE1FC0EDB50080BE840E840E840AB
:101F80001F0B010802E1979401D09784100E010104
:101F9000A915E8380F0B01080AE1FC0EDB50100B05
:101FA000E8380F0B010802E1929001D09280200ED8
:101FB0000101A915E00BE838E84001080BE1FC0E2F
:101FC000DB50200BE00BE838E840010802E1929476
:101FD00001D09284060E146E400E0101A91514C0A2
:101FE000E7FFE75204E0E8427F0BE706FCE1010867
:101FF00012E1060E146EFC0EDB50400B14C0E7FF1E
:10200000E75204E0E8427F0BE706FCE1010802E149
:10201000929A01D0928AFD0EDBCFA3F1FC0EDBCFAA
:10202000A4F1E552E5CFDAFFE7CFD9FF1200D9CF0F
:10203000E6FFDACFE6FFE1CFD9FFE2CFDAFFE652E3
:10204000E652DF6A010EDB6A98B203D0010EDF10A0
:10205000DF6E97BE03D0020EDF10DF6E97BA03D09B
:10206000040EDF10DF6E97B603D0080EDF10DF6EB0
:1020700097B203D0100EDF10DF6E92B203D0200EA5
:10208000DF10DF6E92B603D0400EDF10DF6E98B423
:1020900007D0010EDB500109E76E010EE7CFDBFF31
:1020A00097BC07D0010EDB500209E76E010EE7CFA7
:1020B000DBFF97B807D0010EDB500409E76E010E75
:1020C000E7CFDBFF97B407D0010EDB500809E76EBE
:1020D000010EE7CFDBFF92B007D0010EDB501009F5
:1020E000E76E010EE7CFDBFF92B407D0010EDB50A5
:1020F0002009E76E010EE7CFDBFF92BA07D0010E91
:10210000DB504009E76E010EE7CFDBFFFC0EDBCFB3
:10211000E9FFFD0EDBCFEAFFDFCFEFFFFA0EDBCFEB
:10212000E9FFFB0EDBCFEAFF010EDBCFEFFFE5524D
:10213000E552E552E5CFDAFFE7CFD9FF1200D9CF5C
:10214000E6FFDACFE6FFE1CFD9FFE2CFDAFFFD0EFF
:10215000DBB003D00F01238702D00F012397FD0EC0
:10216000DB50020BE8407F0B03E10F01258B02D00F
:102170000F01258BFD0EDB50040BE840E8403F0BC0
:1021800003E10F01248502D00F012495FD0EDB50E1
:10219000080BE840E840E8401F0B03E10F012481F1
:1021A00002D00F012491FD0EDB50100BE8380F0B0D
:1021B00003E10F01258D02D00F01259DFD0EDB509F
:1021C000200BE00BE838E840000903E10F0125830C
:1021D00002D00F012593060E146EFD0EDB50400B4E
:1021E00014C0E7FFE75204E0E8427F0BE706FCE19A
:1021F000000903E10F01258702D00F012597FC0E8E
:10220000DBB003D00F01238502D00F012395FC0E14
:10221000DB50020BE8407F0B03E10F01248702D063
:102220000F012497FC0EDB50040BE840E8403F0B05
:1022300003E10F01248302D00F012493FC0EDB5035
:10224000080BE840E840E8401F0B03E10F01258F31
:1022500002D00F01259FFC0EDB50100BE8380F0B4E
:1022600003E10F01258102D00F012591FC0EDB5007
:10227000200BE00BE838E840000903E10F01258559
:1022800002D00F012595060E146EFC0EDB50400B9C
:1022900014C0E7FFE75204E0E8427F0BE706FCE1E9
:1022A000000903E10F01258902D00F012599FD0ED8
:1022B000DBCFA8F1FC0EDBCFA9F1A4C1E6FFA3C1DF
:1022C000E6FF8BDDE552E552E552E5CFDAFFE7CFD9
:1022D000D9FF1200D9CFE6FFDACFE6FFE1CFD9FF71
:1022E000E2CFDAFFFD0EDB50EA6A000FE96E0F0E57
:1022F000EA22EF5000D0E552E5CFDAFFE7CFD9FF71
:022300001200C9
:0E230200D9CFE6FFDACFE6FFE1CFD9FFE2CF79
:10231000DAFFE652870ECA140009CA6EFC0ECA1410
:102320000009CA6ECC6AFE0ECB6ECA843F0EB11491
:102330000009B16ECF0EB1143009B16EB1823C0EFE
:10234000B36EAF0EB26EA192A082A282B180870E50
:102350006B1418096B6EFC0E6B1403096B6EFA0E8E
:102360006C6E6D6ABA90B980D2906B84DF6A080E89
:10237000DF5C01E3BBD0DF50EA6A070FE96E010EB4
:10238000EA22EF6AEA6ADF34FE0BEA36E96E0F0EE4
:10239000E926010EEA22A00EEE6E0F0EED6EEA6A3D
:1023A000DF34FE0BEA36E96E1F0EE926010EEA2243
:1023B000D00EEE6E070EED6EDFCFE6FF800EE66EFE
:1023C000A0D8E552E552F3CF14F0F4CF15F0EA6A45
:1023D000DF34FE0BEA36E96E2F0EE926010EEA2203
:1023E00014C0EEFF15C0EDFFDFCFE6FFE66889D829
:1023F000E552E552F3CF14F0F4CF15F0EA6ADF347A
:10240000FE0BEA36E96E4F0EE926010EEA2214C0F1
:10241000EEFF15C0EDFFDFCFE6FF010EE66E71D8CF
:10242000E552E552F3CF14F0F4CF15F0EA6ADF3449
:10243000FE0BEA36E96E5F0EE926010EEA2214C0B1
:10244000EEFF15C0EDFFE66871D9E552F350E66E78
:10245000DF50EA6A6F0FE96E010EEA22E552E7509B
:10246000EF6EE66863D9E552F350E66EDF50EA6A34
:10247000770FE96E010EEA22E552E750EF6EDF506A
:10248000EA6A7F0FE96E010EEA22020EEF6EDFCFDD
:10249000E6FF800EE66E35D8E552E552F3CF14F034
:1024A000F4CF15F0EA6ADF34FE0BEA36E96E3F0E30
:1024B000E926010EEA2214C0EEFF15C0EDFFDF5041
:1024C000EA6A910FE96E010EEA22EF6ADF50EA6ACA
:1024D000870FE96E010EEA22EF6ADF50EA6A990F70
:1024E000E96E010EEA22EF6ADF2A41D701018F6B04
:1024F0000101906BE552E552E5CFDAFFE7CFD9FF56
:102500001200D9CFE6FFDACFE6FFE1CFD9FFE2CF65
:10251000DAFFFC0EEA6ADB34FE0BEA36E96E1F0EC8
:10252000E926010EEA22EECF18F0EFCF19F01A6A71
:102530001B6AFD0EDBCF22F0236A246A256AFC0E9B
:10254000EA6ADB34FE0BEA36E96E0F0EE926010E6D
:10255000EA22EECF20F0EFCF21F0FC0EEA6ADB3466
:10256000FE0BEA36E96E1F0EE926010EEA22EE5056
:10257000205C1C6EEE5021581D6E1E6A1F6A1CC026
:102580002AF01DC02BF01EC02CF01FC02DF022C061
:102590002FF023C030F024C031F025C032F00AEC17
:1025A00015F026C02AF027C02BF028C02CF029C037
:1025B0002DF02F6A010E306E316A326A79EC15F017
:1025C00018502A24146E19502B20156E1A502C20E6
:1025D000166E1B502D20176E020E1426000E1522AB
:1025E000000E1622000E172214C0F3FF15C0F4FFD0
:1025F00000D0E552E5CFDAFFE7CFD9FF1200D9CFFF
:10260000E6FFDACFE6FFE1CFD9FFE2CFDAFFFC0E3B
:10261000DBCF14F0FD0EDBCF15F0FB0EEA6ADB34E6
:10262000FE0BEA36E96E1F0EE926010EEA22EECF16
:1026300016F0EFCF17F01450165C1550175802E340
:10264000000E6ED0FC0EDBCF14F0FD0EDBCF15F0CC
:10265000FB0EEA6ADB34FE0BEA36E96E0F0EE92662
:10266000010EEA22EECF16F0EFCF17F01650145CF1
:102670001750155802E3FF0E53D0FB0EEA6ADB3405
:10268000FE0BEA36E96E0F0EE926010EEA22EECFC6
:102690001EF0EFCF1FF0FB0EEA6ADB34FE0BEA36CA
:1026A000E96E1F0EE926010EEA22EE501E5C1A6E3C
:1026B000EE501F581B6E1C6A1D6AFC0EDBCF18F013
:1026C000FD0EDBCF19F0FB0EEA6ADB34FE0BEA36B7
:1026D000E96E1F0EE926010EEA22EE50185C146E18
:1026E000EE501958156E166A176A16C017F015C005
:1026F00016F014C015F0146A14C02AF015C02BF09F
:1027000016C02CF017C02DF01AC02FF01BC030F0EF
:102710001CC031F01DC032F079EC15F02A5000D009
:10272000E552E5CFDAFFE7CFD9FF1200D9CFE6FFB8
:10273000DACFE6FFE1CFD9FFE2CFDAFFFD0EDB50C3
:10274000146E156A14C0F3FF15C0F4FF00D0E552F3
:10275000E5CFDAFFE7CFD9FF1200D9CFE6FFDACF16
:10276000E6FFE1CFD9FFE2CFDAFFFC0EDB5000D06D
:0C277000E552E5CFDAFFE7CFD9FF1200F9
:04277C000F012D9785
:102780002D992D9B0F012C9D2C9F0F012C990F0132
:102790002C950F012C912C930F012B990F012B9548
:1027A0000F012B912B930F014F6B786A756A726A38
:1027B0006F6A0F01476B0F01446B0F01416B0F01F3
:1027C0004E914E934E854E87F00E77140C09776E1E
:1027D000F00E74140C09746EF00E71140C09716E05
:1027E000F00E6E140C096E6E0F01469146934685ED
:1027F00046870F0143914393438543870F014091DF
:102800004093408540871200D9CFE6FFDACFE6FF3C
:10281000E1CFD9FFE2CFDAFFFD0EDB50020A01E182
:1028200078D0010A4FE0030A26E0010A01E09CD0BB
:10283000FC0EDB5003E1786A756A1CD0FC0EDB509D
:10284000800803E17868756815D0FC0EDB508008BD
:1028500007E2FC0EDB50800FE824786E756A0AD020
:10286000786AFC0EDBCFE6FF800EE552D880E75495
:10287000E824756E7AD0FC0EDB5004E1726A0F0119
:102880004F6B1FD0FC0EDB50800804E172680F0113
:102890004F6917D0FC0EDB50800808E2FC0EDB50BD
:1028A000800FE824726E0F014F6B0BD0726AFC0E22
:1028B000DBCFE6FF800EE552D880E754E8240F0115
:1028C0004F6F53D0FC0EDB5004E16F6A0F01476B72
:1028D0001FD0FC0EDB50800804E16F680F014769D0
:1028E00017D0FC0EDB50800808E2FC0EDB50800F96
:1028F000E8246F6E0F01476B0BD06F6AFC0EDBCFC5
:10290000E6FF800EE552D880E754E8240F01476FB8
:102910002CD0FC0EDB5005E10F01446B0F01416B25
:1029200022D0FC0EDB50800805E10F0144690F0145
:10293000416919D0FC0EDB50800809E2FC0EDB5027
:10294000800FE8240F01446F0F01416B0CD00F0181
:10295000446BFC0EDBCFE6FF800EE552D880E754D7
:10296000E8240F01416F01D000D0E552E5CFDAFF36
:06297000E7CFD9FF1200C1
:0A2976001E0EF66E000EF76E000E46
:10298000F86E01010900F550E36F0900F550E46F9E
:1029900003E1E36701D03DD00900F550DE6F090087
:1029A000F550DF6F0900F550E06F09000900F550A0
:1029B000E96E0900F550EA6E090009000900F550BA
:1029C000E16F0900F550E26F09000900F6CFE5F16B
:1029D000F7CFE6F1F8CFE7F1DEC1F6FFDFC1F7FF91
:1029E000E0C1F8FF0101E15302E1E25307E0090011
:1029F000F550EE6EE107F8E2E207F9D7E5C1F6FF20
:102A0000E6C1F7FFE7C1F8FF0101E307000EE45B51
:042A1000BFD712001A
:0C2A14002A502F02F3CF26F0F4CF27F059
:102A20003002F3502726000EF420286E2A5031027F
:102A3000F3502826000EF420296E2A503202F3505B
:102A400029262B502F02F3502726F4502822000E5F
:102A500029222B503002F3502826F45029222B50E3
:102A60003102F35029262C502F02F3502826F4501F
:102A700029222C503002F35029262D502F02F350DA
:042A800029261200F1
:0C2A8400D9CFE6FFDACFE6FFE1CFD9FFA3
:102A9000E2CFDAFFE652C08EE66AE66A9FEC10F0FB
:102AA000E552E552F80EC0140609C06EC70EC014F8
:102AB0003809C06EC280E66AE66AEDEC0EF0E552B7
:102AC000E552DF6A0E0EDF5C0DE2EA6ADF34FE0BD0
:102AD000EA36E96EAA0EE926010EEA22EE6AED6AEE
:102AE000DF2AF0D7E552E552E5CFDAFFE7CFD9FF8D
:022AF0001200D2
:0E2AF200296A286A276A266A200EE76ED890A5
:102B00002A362B362C362D362636273628362936C9
:102B10002F50265C305027583150285832502958B1
:102B200009E32F50265E3050275A3150285A325030
:0A2B3000295A2A2AE72EE4D71200E2
:062B3A0089880101E80E8C
:102B4000D26F030ED36F1200F29C0101D251D31148
:102B500006E107D80101E80ED26F030ED36FF28CA5
:062B60001200897812004A
:0A2B66002AEC0BF030EC0BF0E5EC6C
:102B700015F042EC15F081EC11F0BEEC13F022ECF4
:0E2B800000F09DEC15F0A4EC15F0FDD712004E
:022B8E00160E21
:102B9000F36E00EE00F00F0E01D81200EA6002D0D2
:0E2BA000EE6AFCD7F350E9601200EE6AFCD733
:022BAE001EEE19
:102BB00000F02EEE00F0F86A359CBBEC14F003EC4C
:0A2BC00000F0B3EC15F0FBD7120093
:062BCA00958A958CF00EC7
:102BD00067140609676E380E696EA19AA08AA29AD8
:042BE000678A1200EE
:0C2BE400000000000000000000000000E5
:102BF00000000000000000000000000000000000D5
:102C000000000000000000000000000000000000C4
:102C100000000000000000000000000000000000B4
:102C200000000000000000000000000000000000A4
:102C30000000000000000000000000000000000094
:102C40000000000000000000000000000000000084
:102C50000000000000000000000000000000000074
:102C60000000000200000000000000000000000062
:102C70000000000000000000000000000000000054
:102C80000000000000000000000000000000000044
:102C90000000000000000000000000000000000034
:102CA0000000000000000000000000000000000024
:082CB00000000200000000001A
:082CB80013050A0806010312CE
:062CC0000B0907000204ED
:020000040030CA
:0100000010EF
:010001009866
:0100020003FA
:0100030000FC
:0100040000FB
:010005008872
:0100060000F9
:010008000FE8
:01000900C036
:01000A000FE6
:01000B00E014
:01000C000FE4
:01000D0040B2
:00000001FF
