:020000040000FA
:060000002EEF15F01200C6
:020006001200E6
:0600080026EF00F01200DB
:02000E000000F0
:080010000000000000000000E8
:060018006AEF04F0120083
:02001E000300DD
:100020000E000000D80100000A000000562B00005E
:10003000000F00000E000000922A000000010000E6
:04004000C4000000F8
:0C004400D08EF28CF28E1200E9CFE4FFA7
:10005000EACFE4FFF6CFE4FFF7CFE4FFF5CFE4FF0C
:10006000F3CFE4FFF4CFE4FFFACFE4FF00EE26F095
:10007000100EE80403E3EECFE4FFFBD700EE14F02C
:10008000120EE80403E3EECFE4FFFBD7E652D9CF2C
:10009000E6FFDACFE6FFE1CFD9FFE2CFDAFF070EC6
:1000A000E12402E3E168E652E16EDE6ADD6A030EF6
:1000B000DB6A040EDB6A050EDB6A060EDB6AA1A2B0
:1000C000DBD30101805101E1A3D001017F51070A77
:1000D0001DE0010A19E0030A15E0010A11E0070A10
:1000E0000DE0010A09E0030A05E0010A01E010D071
:1000F00082940FD082960DD082980BD0829A09D02C
:10010000809C07D0809E05D0829003D0829201D03F
:1001100000D00101806B04680568066A076A700EEA
:100120000C6E170E0D6E0E6A0F6A01017F51E96E9B
:10013000EA6AD890E936EA363F0EE926010EEA224D
:10014000EECF10F0EFCF11F0126A136A10500C5C72
:10015000086E11500D58096E12500E580A6E135049
:100160000F580B6E0850045C006E09500558016E64
:100170000A500658026E0B500758036E030E00C05B
:10018000DBFF040E01C0DBFF030EDBCF00F0040E2B
:10019000DBCF01F001C000F0016A0050B36EFF0E2A
:1001A000E76E030EDBCF00F0040EDBCF01F0E7506B
:1001B0000016016A0050B26E700E046E170E056EC6
:1001C000066A076A01017F51E96EEA6AD890E9364A
:1001D000EA363F0EE926010EEA22EECF08F0EFCF15
:1001E00009F00A6A0B6A0850045C006E0950055851
:1001F000016E0A500658026E0B500758036E0050ED
:100200000101D82701500101D92301017F2B32D3ED
:10021000080E01017F5D01E3DFD201017F51EA6A2F
:10022000890FE96E010EEA22EF5053E001017F5180
:10023000EA6A810FE96E010EEA22EFCF00F00101B8
:100240007F51EA6A6F0FE96E010EEA22EF50D88003
:1002500000543FE201017F51EA6A070FE96E010E87
:10026000EA22010EEF6E7FC1E6FF800EE66ECCEC57
:1002700011F0E552E552F3CF00F0F4CF01F00101A7
:100280007F51E96EEA6AD890E936EA362F0EE92600
:10029000010EEA2200C0EEFF01C0EDFF7FC1E6FFC4
:1002A000800EE66ECCEC11F0E552E552F3CF00F093
:1002B000F4CF01F001017F51E96EEA6AD890E93686
:1002C000EA363F0EE926010EEA2200C0EEFF01C029
:1002D000EDFF01017F51EA6A070FE96E010EEA2284
:1002E000EF5001E076D201017F51EA6A770FE96EA3
:1002F000010EEA22EF5001E118D101017F51E96EB0
:10030000EA6AD890E936EA362F0EE926010EEA228B
:10031000EECF00F0EFCF01F001017F51E96EEA6A04
:10032000D890E936EA360F0EE926010EEA22EECF22
:1003300002F0EFCF03F00250005C0350015826E2B8
:1003400001017F51EA6A770FE96E010EEA22EF5050
:1003500080081CE201017F51EA6A770FE96E010E05
:10036000EA22EF50800F040DF350006E016A010184
:100370007F51E96EEA6AD890E936EA362F0EE9260F
:10038000010EEA220050EE260150ED2201017F51BC
:10039000E96EEA6AD890E936EA362F0EE926010EB0
:1003A000EA22EECF00F0EFCF01F001017F51E96EBC
:1003B000EA6AD890E936EA361F0EE926010EEA22EB
:1003C000EECF02F0EFCF03F00050025C0150035873
:1003D0002AE201017F51EA6A770FE96E010EEA22F3
:1003E000EFCF04F0800E045C1EE2800E026E01016D
:1003F0007F51EA6A770FE96E010EEA22EF50025C44
:10040000040DF350006E016A01017F51E96EEA6A42
:10041000D890E936EA362F0EE926010EEA2200507E
:10042000EE5E0150ED5A01017F51E96EEA6AD89003
:10043000E936EA362F0EE926010EEA22EECF00F069
:10044000EFCF01F001017F51E96EEA6AD890E936F9
:10045000EA361F0EE926010EEA22EECF02F0EFCFB8
:1004600003F00250005C035001581EE201017F516D
:10047000E96EEA6AD890E936EA361F0EE926010EDF
:10048000EA22EECF00F0EFCF01F001017F51E96EDB
:10049000EA6AD890E936EA362F0EE926010EEA22FA
:1004A00000C0EEFF01C0EDFF01017F51E96EEA6A75
:1004B000D890E936EA362F0EE926010EEA22EECF71
:1004C00000F0EFCF01F001017F51E96EEA6AD890A8
:1004D000E936EA360F0EE926010EEA22EECF02F0E7
:1004E000EFCF03F00050025C015003581EE20101FF
:1004F0007F51E96EEA6AD890E936EA360F0EE926AE
:10050000010EEA22EECF00F0EFCF01F001017F51A2
:10051000E96EEA6AD890E936EA362F0EE926010E2E
:10052000EA2200C0EEFF01C0EDFF01017F51EA6A3F
:10053000890FE96E010EEA22EF5001E1C1D00101FD
:100540007F51E96EEA6AD890E936EA362F0EE9263D
:10055000010EEA22EECF02F0EFCF03F001017F514E
:10056000E96EEA6AD890E936EA363F0EE926010ECE
:10057000EA22EE50025C006EEE500358016E00C09D
:10058000DEFF01C0DDFFDECF00F0DDCF01F00101B5
:100590007F51EA6A5F0FE96E010EEA22EF50026EA8
:1005A000036A0050025C015003580AE201017F51C6
:1005B000EA6A5F0FE96E010EEA22EF50DE6EDD6A35
:1005C000DECF00F0DDCF01F001017F51E96EEA6A74
:1005D000D890E936EA363F0EE926010EEA220050AD
:1005E000EE260150ED2201017F51E96EEA6AD890B2
:1005F000E936EA363F0EE926010EEA22EECF00F098
:10060000EFCF01F001017F51EA6A4F0FE96E010E51
:10061000EA22EF50026E036A0050025C0150035858
:1006200018E201017F51EA6A4F0FE96E010EEA22DA
:10063000EF50E66E01017F51E96EEA6AD890E93623
:10064000EA363F0EE926010EEA22E552E750EE6E49
:10065000ED6A01017F51E96EEA6AD890E936EA361F
:100660003F0EE926010EEA22EECF00F0EFCF01F0B7
:1006700001017F51EA6A570FE96E010EEA22EF503D
:10068000026E036A0250005C0350015818E2010137
:100690007F51EA6A570FE96E010EEA22EF50E66ECB
:1006A00001017F51E96EEA6AD890E936EA363F0ED9
:1006B000E926010EEA22E552E750EE6EED6A1ED001
:1006C00001017F51E96EEA6AD890E936EA362F0EC9
:1006D000E926010EEA22EECF00F0EFCF01F0010192
:1006E0007F51E96EEA6AD890E936EA363F0EE9268C
:1006F000010EEA2200C0EEFF01C0EDFF01017F51B3
:10070000070A1DE0010A19E0030A15E0010A11E0D9
:10071000070A0DE0010A09E0030A05E0010A01E009
:1007200010D082840FD082860DD082880BD0828A2E
:1007300009D0808C07D0808E05D0828003D0828241
:1007400001D000D001017F51E96EEA6AD890E93604
:10075000EA363F0EE926010EEA22EECF00F0EFCF97
:1007600001F0FF0ED8800056FF0E0156030E00C0A8
:10077000DBFF040E01C0DBFF030EDBCF00F0040E35
:10078000DBCF01F001C000F0016A0050B36EFF0E34
:10079000E76E030EDBCF00F0040EDBCF01F0E75075
:1007A0000016016A0050B26E01017F51E96EEA6ADB
:1007B000D890E936EA363F0EE926010EEA22EE50DD
:1007C0000101D827EE500101D9230101010E806FEC
:1007D00003D001017F2B1CD5010180514BE10101A8
:1007E0007F6B04680568066A076A500E0C6EC30EBC
:1007F0000D6E0E6A0F6AD8C110F0D9C111F0126ADD
:10080000136A10500C5C086E11500D58096E12508E
:100810000E580A6E13500F580B6E0850045C006E91
:1008200009500558016E0A500658026E0B500758C1
:10083000036E030E00C0DBFF040E01C0DBFF030EDE
:10084000DBCF00F0040EDBCF01F001C000F0016A45
:100850000050B36EFF0EE76E030EDBCF00F0040E08
:10086000DBCF01F0E7500016016A0050B26E0101C3
:10087000D86BD96BA19201D0FFD7070EE15C02E2E1
:10088000E16AE552E16EE552E5CFDAFFE7CFD9FF45
:10089000E55200EE25F0120EE80403E3E5CFEDFF8C
:1008A000FBD700EE35F0100EE80403E3E5CFEDFFD3
:1008B000FBD7E5CFFAFFE5CFF4FFE5CFF3FFE5CFB8
:1008C000F5FFE5CFF7FFE5CFF6FFE5CFEAFFE5CF90
:1008D000E9FF1100E9CFE4FFEACFE4FFF6CFE4FF40
:1008E000F7CFE4FFF5CFE4FFF3CFE4FFF4CFE4FF6D
:1008F000FACFE4FF00EE26F0100EE80403E3EECF9B
:10090000E4FFFBD700EE14F0120EE80403E3EECF91
:10091000E4FFFBD7E652D9CFE6FFDACFE6FFE1CF1F
:10092000D9FFE2CFDAFFE652E652E652A1AAE6EF9D
:1009300009F068A0CAEF09F068BAEAD26ACFDAF122
:1009400067BC679C0101DB6B68B403D00101DC6B01
:10095000DED20101DD6B0101DC51D50A01E1C7D214
:10096000030A01E1C4D2010A01E1C1D20F0A01E187
:10097000BED2090A01E1B0D2030A01E1ADD2010AF7
:1009800001E1AAD2070A01E1A7D26C0A01E167D20C
:10099000010A01E164D2030A01E161D2010A01E125
:1009A0005ED2070A01E15BD2010A01E158D2030AD3
:1009B00001E155D20F0A01E115D2030A01E112D279
:1009C000010A01E10FD2070A01E10CD2010A01E19B
:1009D00009D2030A01E106D2010A01E103D2130A96
:1009E00001E1FBD1070A01E1F3D1020A01E1DDD106
:1009F000010A01E1C7D1310A01E1B9D1030A01E1DC
:100A0000B6D1010A01E1B3D1070A01E1B0D1010A6F
:100A100001E1ADD1030A01E1AAD1010A01E1A7D1A7
:100A20000F0A01E1A4D1190A01E196D1030A01E1FB
:100A300093D1010A01E190D1070A01E18DD1010AA8
:100A400001E18AD1030A01E187D1010A01E184D1E0
:100A50000F0A01E181D1F90A01E16DD1030A01E137
:100A60006AD1010A01E167D1070A01E164D1010AF3
:100A700001E161D1030A01E15ED1010A01E15BD12B
:100A80000F0A01E158D1190A01E144D1030A01E139
:100A900041D1010A01E13ED1070A01E13BD1010A3E
:100AA00001E138D1030A01E135D1010A01E132D176
:100AB0000F0A01E12FD1390A01E116D1030A01E140
:100AC00013D1010A01E110D1070A01E10DD1010A98
:100AD00001E10AD1030A01E107D1010A01E104D1D0
:100AE0000F0A01E101D1190A01E1E8D0030A01E18D
:100AF000E5D0010A01E1E2D0070A01E1DFD0010AF5
:100B000001E1DCD0030A01E1D9D0010A01E1D6D02C
:100B10000F0A01E1D3D0790A01E1B5D0030A01E15E
:100B2000B2D0010A01E1AFD0070A01E1ACD0010A5D
:100B300001E1A9D0030A01E1A6D0010A01E1A3D095
:100B40000F0A01E1A0D01D0A74E0010A48E0070A7B
:100B500043E0020A3EE0010A31E0330A2AE0010ADA
:100B600025E0030A17E0010A06E0100A01E0CAD1F5
:100B70000C0E6A6ECBD13F0E8114E66ECFEC0AF0FC
:100B8000E552E66EF6EC0AF0E5520101006F00C195
:100B90006AFFBCD13F0E9314E81CE66ECFEC0AF05E
:100BA000E5520101016F01C16AFFB0D102C16AFFC4
:100BB000ADD13F0E010103156A6EA8D123EC0CF0F4
:100BC000E66E5EEC0CF0E5520101046F04C16AFFB1
:100BD0009DD105C16AFF9AD106C16AFF97D1010173
:100BE0000E51800DF3CF3BF001010D51400DF3CFBD
:100BF0003AF001010C51200DF3CF39F001010B390E
:100C0000F00B386E01010A51080DF3CF37F00101E6
:100C10000951040DF3CF36F001010851E824010118
:100C2000071136103710381039103A103B106A6E21
:100C30006DD101019051800DF3CF3BF001018F5137
:100C4000400DF3CF3AF001018E51200DF3CF39F072
:100C500001018D39F00B386E01018C51080DF3CF75
:100C600037F001018B51040DF3CF36F001018A51A9
:100C7000E8240101891136103710381039103A1064
:100C80003B106A6E43D1310E0101DC5DE66E310E20
:100C90000101DC5DE96EEA6AD890E936EA362F0E8A
:100CA000E926010EEA22EECFE6FFEFCFE6FF4AEC9F
:100CB00012F0E552E552E5526A6E28D1410E01016B
:100CC000DC5DE66E410E0101DC5DEA6A4F0FE96E04
:100CD000010EEA22EF50E66EE66A4AEC12F0E552A7
:100CE000E552E5526A6E12D1510E0101DC5DE66EED
:100CF000510E0101DC5DEA6A570FE96E010EEA222E
:100D0000EF50E66EE66A4AEC12F0E552E552E55223
:100D10006A6EFCD0610E0101DC5DEA6A5F0FE96E6C
:100D2000010EEA22EF50E66EE66AF9EC12F0E552A7
:100D3000E5526A6EEBD0710E0101DC5DEA6A670F65
:100D4000E96E010EEA22EF50E66EE66AF9EC12F067
:100D5000E552E5526A6EDAD0810E0101DC5DEA6A85
:100D60006F0FE96E010EEA22EF506A6ECFD0910E3E
:100D70000101DC5DEA6A770FE96E010EEA22EF50AD
:100D80006A6EC4D0920EE66E010EE66E910EE66EAD
:100D9000010EE66EB3EC0DF0E552E552E552E55278
:100DA00092C16AFF91C1DDF1B1D0940EE66E010EE1
:100DB000E66E930EE66E010EE66E6FEC0FF0E552F6
:100DC000E552E552E55294C16AFF93C1DDF19ED030
:100DD00097C16AFF96C1DDF199D099C16AFF98C1A8
:100DE000DDF194D0B10E0101DC5D376E010E37529A
:100DF00004E0E846FE0B3706FCE1366E0101981D63
:100E0000361429E0B10E0101DC5DE96EEA6AD89082
:100E1000E936EA369A0EE926010EEA22EECF36F0DE
:100E2000EFCF37F037C036F0376A36506A6EB10E02
:100E30000101DC5DE96EEA6AD890E936EA369A0E7D
:100E4000E926010EEA22EECF36F0EFCF37F036502A
:100E50000101DD6F03D06A6A0101DD6B57D0B80E66
:100E60000101DC5D376E010E375204E0E846FE0BEF
:100E70003706FCE1366E0101991D361429E0B10EEA
:100E80000101DC5DE96EEA6AD890E936EA369A0E2D
:100E9000E926010EEA22EECF36F0EFCF37F037C069
:100EA00036F0376A36506A6EB10E0101DC5DE96ECC
:100EB000EA6AD890E936EA369A0EE926010EEA2265
:100EC000EECF36F0EFCF37F036500101DD6F03D0B3
:100ED0006A6A0101DD6B1AD0D10E0101DC5DEA6A9C
:100EE000BA0FE96E010EEA22EF506A6E0FD0D50EEE
:100EF0000101DC5DEA6ABE0FE96E010EEA22EF50E5
:100F00006A6E04D06A680101DD6900D0678842D248
:100F100068B440D20101DB5103E16ACFDCF109D0B2
:100F20000101DB51EA6AC40FE96E010EEA226ACFC1
:100F3000EFFF0A0E0101DB5D02E20101DB2B67BC62
:100F4000679C020E0101DB5D01E0F0D10101DC5183
:100F5000D50A01E1DFD1030A01E1DCD1010A01E197
:100F6000D9D10F0A01E1D6D1090A01E1BED1030AA4
:100F700001E1BBD1010A01E1B8D1070A01E1B5D114
:100F8000450A01E1A7D1030A01E1A4D1010A01E167
:100F9000A1D1070A01E19ED1010A01E19BD1030A17
:100FA00001E198D1010A01E195D10F0A01E192D145
:100FB000190A01E184D1030A01E181D1010A01E1A9
:100FC0007ED1070A01E17BD1010A01E178D1030A50
:100FD00001E175D1010A01E172D10F0A01E16FD17E
:100FE000F90A01E159D1030A01E156D1010A01E1EF
:100FF00053D1070A01E150D1010A01E14DD1030AA1
:1010000001E14AD1010A01E147D10F0A01E144D1CE
:10101000190A01E12ED1030A01E12BD1010A01E1F4
:1010200028D1070A01E125D1010A01E122D1030AF1
:1010300001E11FD1010A01E11CD10F0A01E119D11F
:10104000390A01E1FED0030A01E1FBD0010A01E106
:10105000F8D0070A01E1F5D0010A01E1F2D0030A54
:1010600001E1EFD0010A01E1ECD00F0A01E1E9D082
:10107000190A01E1CED0030A01E1CBD0010A01E156
:10108000C8D0070A01E1C5D0010A01E1C2D0030AB4
:1010900001E1BFD0010A01E1BCD00F0A01E1B9D0E2
:1010A000790A73E0030A71E0010A6FE0070A6DE054
:1010B000010A6BE0030A69E0010A67E00F0A65E0D4
:1010C0001D0A62E0010A55E0070A50E0020A46E004
:1010D000010A3CE0330A34E0010A26E0030A13E087
:1010E000010A01E022D13F0E0101C5150101006F87
:1010F00000C1E6FFA8EC0AF0E552366EC00E8A1475
:1011000036108A6E13D13F0E0101C5150101016F22
:1011100001C1E6FFA8EC0AF0E552E81C366EC00EED
:1011200093143610936E02D1010E0101C515010111
:10113000026F0101025102E0F19E01D0F18EF6D062
:101140003F0E0101C5150101036FF0D0C5C104F1C7
:1011500004C1E6FFCDEC0BF0E552E8D0C5C105F1C6
:1011600005C1E6FF44EC0BF0E552E0D0C5C106F145
:10117000DDD0C5C1E6FF71EC0CF0E55205C1E6FF1C
:1011800044EC0BF0E552D2D0D1D00101C55110E1B1
:10119000310E0101DC5DEA6A070FE96E010EEA22F9
:1011A000010EEF6E05C1E6FF44EC0BF0E55209D0ED
:1011B000310E0101DC5DEA6A070FE96E010EEA22D9
:1011C000EF6A310E0101DC5DE66EC5C1E6FFCCECD5
:1011D00011F0E552E552F3CF36F0F4CF37F0310E8F
:1011E0000101DC5DE96EEA6AD890E936EA362F0E35
:1011F000E926010EEA2236C0EEFF37C0EDFF310EC0
:101200000101DC5DEA6A810FE96E010EEA22EF6AF4
:101210008DD0410E0101DC5DE66EC5C1E6FFCCEC70
:1012200011F0E552E552F350E66E410E0101DC5D2E
:10123000EA6A4F0FE96E010EEA22E552E750EF6EBF
:1012400075D0510E0101DC5DE66EC5C1E6FFCCEC48
:1012500011F0E552E552F350E66E510E0101DC5DEE
:10126000EA6A570FE96E010EEA22E552E750EF6E87
:101270005DD0C5C1E6FFE1EC12F0E552F350E66E39
:10128000610E0101DC5DEA6A5F0FE96E010EEA2280
:10129000E552E750EF6E4AD0C5C1E6FFE1EC12F02F
:1012A000E552F350E66E710E0101DC5DEA6A670FEC
:1012B000E96E010EEA22E552E750EF6E37D0810E5B
:1012C0000101DC5DEA6A6F0FE96E010EEA22C5C119
:1012D000EFFF2CD0910E0101DC5DEA6A770FE96E19
:1012E000010EEA22C5C1EFFF21D0D10E0101DC5D64
:1012F000EA6ABA0FE96E010EEA22C5C1EFFFC5C165
:10130000E6FFD10E0101DC5DE66E5BEC13F0E55209
:10131000E5520CD0D50E0101DC5DEA6ABE0FE96E24
:10132000010EEA22C5C1EFFF01D000D0030E01017A
:10133000DB5D30E10101DC51A40A22E0070A1BE079
:10134000020A10E0010A01E024D0C5C191F1C6C132
:1013500092F192C1E6FF91C1E6FFDBEC0CF0E552A1
:10136000E55218D0C6C1E6FFC5C1E6FF45EC0EF058
:10137000E552E5520FD0C5C196F1C6C197F10AD02A
:10138000C6C1E6FFC5C1E6FFF7EC0FF0E552E55236
:1013900001D000D06850200B17E06850040B14E017
:1013A0006850010B11E1DDC16AFF00000000000080
:1013B000000000000000000000000000000000002D
:1013C0000000000000006788A19A72D0BAA06FD018
:1013D000BA90C450386E38C039F0386AC350000132
:1013E0003810366E39C037F0010E36C0DBFF020E02
:1013F00037C0DBFF010EDBCF36F0020EDBCF37F05C
:101400000001800E371404E0010EDB6A020EDB6A75
:101410000101DF51E96EEA6AD890E936EA369A0EA0
:10142000E926010EEA22010EDBCFEEFF020EDBCF32
:10143000EDFF0101DF2B0E0E0101DF5D02E3010173
:10144000DF6BDFC1E6FFC2EC10F0E5520101DE6F99
:101450000101DE511F0BF36EF346F346830EC214F7
:10146000F310C26EC2820101C251C31104E0010136
:10147000C207000EC35B0101E02B000EE123E80E62
:101480000101E01902E1030EE11910E10101E06B35
:10149000E16BDF6A080EDF5C09E2DF50EA6A810F68
:1014A000E96E010EEA22EF2ADF2AF4D701D0FFD736
:1014B000E552E552E552E552E5CFDAFFE7CFD9FF35
:1014C000E55200EE25F0120EE80403E3E5CFEDFF50
:1014D000FBD700EE35F0100EE80403E3E5CFEDFF97
:1014E000FBD7E5CFFAFFE5CFF4FFE5CFF3FFE5CF7C
:1014F000F5FFE5CFF7FFE5CFF6FFE5CFEAFFE5CF54
:04150000E9FF1100EE
:0C1504008F0ED3147009D36E9B8C120064
:101510002F0E926E9368C00E946E6F0E956E030E32
:10152000966E9768270E986EF18E0101026B949C5F
:10153000949E95909592959495969598959E8B9C52
:101540008B9E8C908C928C948C968C988C9E120096
:10155000D9CFE6FFDACFE6FFE1CFD9FFE2CFDAFF5E
:10156000E652DF6AFD0EDBB0DF82FD0EDBB2DF8606
:10157000FD0EDBB4DF8AFD0EDBA602D0000EDB80A1
:10158000FD0EDBB8DF84FD0EDBBADF88DF5000D054
:10159000E552E552E5CFDAFFE7CFD9FF1200D9CF08
:1015A000E6FFDACFE6FFE1CFD9FFE2CFDAFFE6527E
:1015B000DF6AFD0EDBA202D0000EDB80FD0EDBB683
:1015C000DF82FD0EDBBADF84FD0EDBB0DF86FD0EB1
:1015D000DBB4DF88FD0EDBB8DF8ADF5000D0E552D8
:1015E000E552E5CFDAFFE7CFD9FF1200D9CFE6FF0A
:1015F000DACFE6FFE1CFD9FFE2CFDAFFFD0EDB5015
:101600000101031900D0E552E5CFDAFFE7CFD9FF9A
:101610001200D9CFE6FFDACFE6FFE1CFD9FFE2CF64
:10162000DAFFE652DF6A94A403D0010EDF10DF6E0A
:1016300094A603D0020EDF10DF6E94A803D0040E30
:10164000DF10DF6E94AA03D0080EDF10DF6E92ACBD
:1016500003D0100EDF10DF6E92AE03D0200EDF102D
:10166000DF6E94A003D0400EDF10DF6E94A203D093
:10167000800EDF10DF6EDF5000D0E552E552E5CF7F
:10168000DAFFE7CFD9FF1200D9CFE6FFDACFE6FFC6
:10169000E1CFD9FFE2CFDAFF0101070507E1FD0E37
:1016A000DBB002D0948401D0949401D094940101D1
:1016B00008050AE1FD0EDB50020BE8407F0B02E15A
:1016C000948601D0949601D09496010109050BE10E
:1016D000FD0EDB50040BE840E8403F0B02E194882C
:1016E00001D0949801D0949801010A050CE1FD0EF7
:1016F000DB50080BE840E840E8401F0B02E1948A09
:1017000001D0949A01D0949A01010B050AE1FD0ED3
:10171000DB50100BE8380F0B02E1928C01D0929C49
:1017200001D0929C01010C050CE1FD0EDB50200B59
:10173000E00BE838E840000902E1928E01D0929E69
:1017400001D0929E01010D0513E1060E146EFD0EEF
:10175000DB50400B14C0E7FFE75204E0E8427F0B88
:10176000E706FCE1000902E1948001D0949001D0E9
:10177000949001010E050AE1FD0EDB50800BE84458
:10178000010B02E1948201D0949201D09492E5522F
:10179000E5CFDAFFE7CFD9FF1200D9CFE6FFDACFE6
:1017A000E6FFE1CFD9FFE2CFDAFF0101070506E14D
:1017B000FD0EDBA002D0828401D0829401010805D5
:1017C00006E1FD0EDBA202D0828601D082960101E5
:1017D000090506E1FD0EDBA402D0828801D08298C3
:1017E00001010A0506E1FD0EDBA602D0828A01D0C6
:1017F000829A01010B0506E1FD0EDBA802D0808C68
:1018000001D0809C01010C0506E1FD0EDBAA02D08F
:10181000808E01D0809E01010D0506E1FD0EDBAC3E
:1018200002D0828001D0829001010E0506E1FD0EFA
:10183000DBAE02D0828201D08292E552E5CFDAFFA0
:10184000E7CFD9FF1200D9CFE6FFDACFE6FFE1CF2D
:10185000D9FFE2CFDAFFE652DF6A82A403D0010E9D
:10186000DF10DF6E82A603D0020EDF10DF6E82A8CB
:1018700003D0040EDF10DF6E82AA03D0080EDF1043
:10188000DF6E80AC03D0100EDF10DF6E80AE03D0B1
:10189000200EDF10DF6E82A003D0400EDF10DF6E5F
:1018A00082A203D0800EDF10DF6EDF5000D0E55241
:1018B000E552E5CFDAFFE7CFD9FF1200D9CFE6FF37
:1018C000DACFE6FFE1CFD9FFE2CFDAFFFD0EDB5042
:1018D0000101061900D0E552E5CFDAFFE7CFD9FFC5
:1018E0001200D9CFE6FFDACFE6FFE1CFD9FFE2CF92
:1018F000DAFFE652DF6A080EDF5C21E2FD0EDBCF85
:10190000E6FF010EDF5206E0DFCFF3FFE846FE0BF5
:10191000F306FCE1E552E71409E0DF50EA6A070F3D
:10192000E96E010EEA22010EEF6E07D0DF50EA6A7F
:10193000070FE96E010EEA22EF6ADF2ADCD7E552D3
:10194000E552E5CFDAFFE7CFD9FF1200D9CFE6FFA6
:10195000DACFE6FFE1CFD9FFE2CFDAFFE652DF6A66
:10196000080EDF5C21E2FD0EDBCFE6FF010EDF5249
:1019700006E0DFCFF3FFE846FE0BF306FCE1E5529D
:10198000E71408E0DF50EA6A890FE96E010EEA22E7
:10199000EF6A08D0DF50EA6A890FE96E010EEA2289
:1019A000010EEF6EDF2ADCD7E552E552E5CFDAFF14
:1019B000E7CFD9FF1200D9CFE6FFDACFE6FFE1CFBC
:1019C000D9FFE2CFDAFF010E01019815010806E107
:1019D000FD0EDBA002D0868201D08692020E0101AC
:1019E0009815E8407F0B010806E1FD0EDBA202D04E
:1019F000858E01D0859E040E01019815E840E840CF
:101A00003F0B010806E1FD0EDBA402D0858A01D060
:101A1000859A080E01019815E840E840E8401F0B40
:101A2000010806E1FD0EDBA602D0858601D0859671
:101A3000100E01019815E8380F0B010806E1FD0EA4
:101A4000DBA802D0858201D08592200E0101981575
:101A5000E00BE838E840010806E1FD0EDBAA02D001
:101A6000808201D08092060E146E400E01019815FE
:101A700014C0E7FFE75204E0E8427F0BE706FCE111
:101A8000010806E1FD0EDBAC02D0808601D0809615
:101A9000010E01019915010806E1FC0EDBA002D040
:101AA000868401D08694020E01019915E8407F0BCF
:101AB000010806E1FC0EDBA202D0858C01D0859CDA
:101AC000040E01019915E840E8403F0B010806E1CA
:101AD000FC0EDBA402D0858801D08598080E010198
:101AE0009915E840E840E8401F0B010806E1FC0EAC
:101AF000DBA602D0858401D08594100E01019915D2
:101B0000E8380F0B010806E1FC0EDBA802D080804C
:101B100001D08090200E01019915E00BE838E840D3
:101B2000010806E1FC0EDBAA02D0808401D080947B
:101B3000060E146E400E0101991514C0E7FFE7521E
:101B400004E0E8427F0BE706FCE1010806E1FC0E39
:101B5000DBAC02D0808A01D0809AE552E5CFDAFF73
:101B6000E7CFD9FF1200D9CFE6FFDACFE6FFE1CF0A
:101B7000D9FFE2CFDAFFE652E652DF6A010EDB6AF6
:101B800086A203D0010EDF10DF6E85AE03D0020EF9
:101B9000DF10DF6E85AA03D0040EDF10DF6E85A68E
:101BA00003D0080EDF10DF6E85A203D0100EDF1009
:101BB000DF6E80A203D0200EDF10DF6E80A603D080
:101BC000400EDF10DF6E86A407D0010EDB50010946
:101BD000E76E010EE7CFDBFF85AC07D0010EDB50CF
:101BE0000209E76E010EE7CFDBFF85A807D0010EE3
:101BF000DB500409E76E010EE7CFDBFF85A407D0B9
:101C0000010EDB500809E76E010EE7CFDBFF80A075
:101C100007D0010EDB501009E76E010EE7CFDBFFA6
:101C200080A407D0010EDB502009E76E010EE7CF3C
:101C3000DBFF80AA07D0010EDB504009E76E010EE2
:101C4000E7CFDBFF010EDB5001019719E66EFA0EBC
:101C5000DBCFE9FFFB0EDBCFEAFFE552E750EF6E8B
:101C6000DF5001019619E66EFC0EDBCFE9FFFD0E99
:101C7000DBCFEAFFE552E750EF6EE552E552E55261
:101C8000E5CFDAFFE7CFD9FF1200D9CFE6FFDACFF1
:101C9000E6FFE1CFD9FFE2CFDAFF010E010198158F
:101CA000010808E1FD0EDB50010B010802E19892EA
:101CB00001D09882020E01019815E8407F0B0108BF
:101CC0000AE1FD0EDB50020BE8407F0B010802E148
:101CD000979E01D0978E040E01019815E840E840C8
:101CE0003F0B01080BE1FD0EDB50040BE840E84020
:101CF0003F0B010802E1979A01D0978A080E010173
:101D00009815E840E840E8401F0B01080CE1FD0E83
:101D1000DB50080BE840E840E8401F0B010802E1F7
:101D2000979601D09786100E01019815E8380F0B91
:101D300001080AE1FD0EDB50100BE8380F0B01081B
:101D400002E1979201D09782200E01019815E00BD5
:101D5000E838E84001080BE1FD0EDB50200BE00BFA
:101D6000E838E840010802E1929201D09282060E22
:101D7000146E400E0101981514C0E7FFE75204E00D
:101D8000E8427F0BE706FCE1010812E1060E146E43
:101D9000FD0EDB50400B14C0E7FFE75204E0E842C1
:101DA0007F0BE706FCE1010802E1929601D09286E2
:101DB000010E01019915010808E1FC0EDB50010B31
:101DC000010802E1989401D09884020E010199154E
:101DD000E8407F0B01080AE1FC0EDB50020BE840F3
:101DE0007F0B010802E1979C01D0978C040E010142
:101DF0009915E840E8403F0B01080BE1FC0EDB5071
:101E0000040BE840E8403F0B010802E1979801D03D
:101E10009788080E01019915E840E840E8401F0B3B
:101E200001080CE1FC0EDB50080BE840E840E840FC
:101E30001F0B010802E1979401D09784100E010155
:101E40009915E8380F0B01080AE1FC0EDB50100B66
:101E5000E8380F0B010802E1929001D09280200E29
:101E600001019915E00BE838E84001080BE1FC0E90
:101E7000DB50200BE00BE838E840010802E19294C7
:101E800001D09284060E146E400E0101991514C003
:101E9000E7FFE75204E0E8427F0BE706FCE10108B8
:101EA00012E1060E146EFC0EDB50400B14C0E7FF6F
:101EB000E75204E0E8427F0BE706FCE1010802E19B
:101EC000929A01D0928AFD0EDBCF93F1FC0EDBCF0C
:101ED00094F1E552E5CFDAFFE7CFD9FF1200D9CF71
:101EE000E6FFDACFE6FFE1CFD9FFE2CFDAFFE65235
:101EF000E652DF6A010EDB6A98B203D0010EDF10F2
:101F0000DF6E97BE03D0020EDF10DF6E97BA03D0EC
:101F1000040EDF10DF6E97B603D0080EDF10DF6E01
:101F200097B203D0100EDF10DF6E92B203D0200EF6
:101F3000DF10DF6E92B603D0400EDF10DF6E98B474
:101F400007D0010EDB500109E76E010EE7CFDBFF82
:101F500097BC07D0010EDB500209E76E010EE7CFF8
:101F6000DBFF97B807D0010EDB500409E76E010EC6
:101F7000E7CFDBFF97B407D0010EDB500809E76E0F
:101F8000010EE7CFDBFF92B007D0010EDB50100946
:101F9000E76E010EE7CFDBFF92B407D0010EDB50F6
:101FA0002009E76E010EE7CFDBFF92BA07D0010EE2
:101FB000DB504009E76E010EE7CFDBFFFC0EDBCF05
:101FC000E9FFFD0EDBCFEAFFDFCFEFFFFA0EDBCF3D
:101FD000E9FFFB0EDBCFEAFF010EDBCFEFFFE5529F
:101FE000E552E552E5CFDAFFE7CFD9FF1200D9CFAE
:101FF000E6FFDACFE6FFE1CFD9FFE2CFDAFFFD0E51
:10200000DBB003D00F01238702D00F012397FD0E11
:10201000DB50020BE8407F0B03E10F01258B02D060
:102020000F01258BFD0EDB50040BE840E8403F0B11
:1020300003E10F01248502D00F012495FD0EDB5032
:10204000080BE840E840E8401F0B03E10F01248142
:1020500002D00F012491FD0EDB50100BE8380F0B5E
:1020600003E10F01258D02D00F01259DFD0EDB50F0
:10207000200BE00BE838E840000903E10F0125835D
:1020800002D00F012593060E146EFD0EDB50400B9F
:1020900014C0E7FFE75204E0E8427F0BE706FCE1EB
:1020A000000903E10F01258702D00F012597FC0EDF
:1020B000DBB003D00F01238502D00F012395FC0E66
:1020C000DB50020BE8407F0B03E10F01248702D0B5
:1020D0000F012497FC0EDB50040BE840E8403F0B57
:1020E00003E10F01248302D00F012493FC0EDB5087
:1020F000080BE840E840E8401F0B03E10F01258F83
:1021000002D00F01259FFC0EDB50100BE8380F0B9F
:1021100003E10F01258102D00F012591FC0EDB5058
:10212000200BE00BE838E840000903E10F012585AA
:1021300002D00F012595060E146EFC0EDB50400BED
:1021400014C0E7FFE75204E0E8427F0BE706FCE13A
:10215000000903E10F01258902D00F012599FD0E29
:10216000DBCF98F1FC0EDBCF99F194C1E6FF93C170
:10217000E6FF8BDDE552E552E552E5CFDAFFE7CF2A
:10218000D9FF1200D9CFE6FFDACFE6FFE1CFD9FFC2
:10219000E2CFDAFFFD0EDB50EA6A000FE96E0F0EA8
:1021A000EA22EF5000D0E552E5CFDAFFE7CFD9FFC2
:0221B00012001B
:0E21B200D9CFE6FFDACFE6FFE1CFD9FFE2CFCB
:1021C000DAFFE652870ECA140009CA6EFC0ECA1462
:1021D0000009CA6ECC6AFE0ECB6ECA843F0EB114E3
:1021E0000009B16ECF0EB1143009B16EB1823C0E50
:1021F000B36EAF0EB26EA192A082A282B180870EA2
:102200006B1418096B6EFC0E6B1403096B6EFA0EDF
:102210006C6E6D6ABA90B980D2906B84DF6A080EDA
:10222000DF5C01E3AED0DF50EA6A070FE96E010E12
:10223000EA22EF6AEA6ADF34FE0BEA36E96E0F0E35
:10224000E926010EEA22A00EEE6E0F0EED6EEA6A8E
:10225000DF34FE0BEA36E96E1F0EE926010EEA2294
:10226000D00EEE6E070EED6EDFCFE6FF800EE66E4F
:1022700093D8E552E552F3CF14F0F4CF15F0EA6AA3
:10228000DF34FE0BEA36E96E2F0EE926010EEA2254
:1022900014C0EEFF15C0EDFFDFCFE6FFE6687CD887
:1022A000E552E552F350E66EDF50EA6A4F0FE96EF1
:1022B000010EEA22E552E750EF6EDFCFE6FF010E96
:1022C000E66E6AD8E552E552F350E66EDF50EA6AF0
:1022D000570FE96E010EEA22E552E750EF6EE6680D
:1022E00070D9E552F350E66EDF50EA6A5F0FE96E8F
:1022F000010EEA22E552E750EF6EE66862D9E55238
:10230000F350E66EDF50EA6A670FE96E010EEA22CB
:10231000E552E750EF6EDF50EA6A6F0FE96E010E8B
:10232000EA22EF6ADFCFE6FF800EE66E35D8E5528F
:10233000E552F3CF14F0F4CF15F0EA6ADF34FE0B68
:10234000EA36E96E3F0EE926010EEA2214C0EEFFDE
:1023500015C0EDFFDF50EA6A810FE96E010EEA2237
:10236000EF6ADF50EA6A770FE96E010EEA22EF6A40
:10237000DF50EA6A890FE96E010EEA22EF6ADF2A6E
:102380004ED701017F6B0101806BE552E552E5CF2D
:10239000DAFFE7CFD9FF1200D9CFE6FFDACFE6FFA9
:1023A000E1CFD9FFE2CFDAFFFC0EEA6ADB34FE0BA5
:1023B000EA36E96E1F0EE926010EEA22EECF18F08A
:1023C000EFCF19F01A6A1B6AFD0EDBCF22F0236AE9
:1023D000246A256AFC0EEA6ADB34FE0BEA36E96EF3
:1023E0000F0EE926010EEA22EECF20F0EFCF21F00A
:1023F000FC0EEA6ADB34FE0BEA36E96E1F0EE926B4
:10240000010EEA22EE50205C1C6EEE5021581D6E2B
:102410001E6A1F6A1CC02AF01DC02BF01EC02CF0C3
:102420001FC02DF022C02FF023C030F024C031F0A7
:1024300025C032F061EC14F026C02AF027C02BF042
:1024400028C02CF029C02DF02F6A010E306E316AA1
:10245000326AD0EC14F018502A24146E19502B2034
:10246000156E1A502C20166E1B502D20176E020E62
:102470001426000E1522000E1622000E172214C07C
:10248000F3FF15C0F4FF00D0E552E5CFDAFFE7CF48
:10249000D9FF1200D9CFE6FFDACFE6FFE1CFD9FFAF
:1024A000E2CFDAFFFC0EDBCF14F0FD0EDBCF15F030
:1024B000FB0EEA6ADB34FE0BEA36E96E1F0EE926F4
:1024C000010EEA22EECF16F0EFCF17F01450165C93
:1024D0001550175802E3000E6ED0FC0EDBCF14F03F
:1024E000FD0EDBCF15F0FB0EEA6ADB34FE0BEA369D
:1024F000E96E0F0EE926010EEA22EECF16F0EFCFBD
:1025000017F01650145C1750155802E3FF0E53D005
:10251000FB0EEA6ADB34FE0BEA36E96E0F0EE926A3
:10252000010EEA22EECF1EF0EFCF1FF0FB0EEA6A9B
:10253000DB34FE0BEA36E96E1F0EE926010EEA22B5
:10254000EE501E5C1A6EEE501F581B6E1C6A1D6A00
:10255000FC0EDBCF18F0FD0EDBCF19F0FB0EEA6AA4
:10256000DB34FE0BEA36E96E1F0EE926010EEA2285
:10257000EE50185C146EEE501958156E166A176AF4
:1025800016C017F015C016F014C015F0146A14C068
:102590002AF015C02BF016C02CF017C02DF01AC071
:1025A0002FF01BC030F01CC031F01DC032F0D0EC59
:1025B00014F02A5000D0E552E5CFDAFFE7CFD9FF7B
:1025C0001200D9CFE6FFDACFE6FFE1CFD9FFE2CFA5
:1025D000DAFFFD0EDB38F00B146E156A14C0F3FF42
:1025E00015C0F4FF00D0E552E5CFDAFFE7CFD9FF01
:1025F0001200D9CFE6FFDACFE6FFE1CFD9FFE2CF75
:10260000DAFFFC0EDBCF14F0FD0EDBCF15F0040E6D
:10261000D89015321432E804FBE1145000D0E55292
:0A262000E5CFDAFFE7CFD9FF120083
:06262A000F012D972D9910
:102630002D9B0F012C9D2C9F0F012C990F012C9588
:102640000F012C912C930F012B990F012B950F014A
:102650002B912B930F014F6B786A756A726A6F6AC0
:102660000F01476B0F01446B0F01416B0F014E913E
:102670004E934E854E87F00E77140C09776EF00E50
:1026800074140C09746EF00E71140C09716EF00E56
:102690006E140C096E6E0F0146914693468546876F
:1026A0000F0143914393438543870F01409140932A
:1026B000408540871200D9CFE6FFDACFE6FFE1CFB1
:1026C000D9FFE2CFDAFFFD0EDB50020A01E178D03C
:1026D000010A4FE0030A26E0010A01E09CD0FC0E4B
:1026E000DB5003E1786A756A1CD0FC0EDB50800871
:1026F00003E17868756815D0FC0EDB50800807E2AE
:10270000FC0EDB50800FE824786E756A0AD0786A78
:10271000FC0EDBCFE6FF800EE552D880E754E824BC
:10272000756E7AD0FC0EDB5004E1726A0F014F6BBC
:102730001FD0FC0EDB50800804E172680F014F6966
:1027400017D0FC0EDB50800808E2FC0EDB50800F37
:10275000E824726E0F014F6B0BD0726AFC0EDBCF58
:10276000E6FF800EE552D880E754E8240F014F6F52
:1027700053D0FC0EDB5004E16F6A0F01476B1FD092
:10278000FC0EDB50800804E16F680F01476917D029
:10279000FC0EDB50800808E2FC0EDB50800FE824C2
:1027A0006F6E0F01476B0BD06F6AFC0EDBCFE6FF3D
:1027B000800EE552D880E754E8240F01476F2CD0F3
:1027C000FC0EDB5005E10F01446B0F01416B22D081
:1027D000FC0EDB50800805E10F0144690F014169DF
:1027E00019D0FC0EDB50800809E2FC0EDB50800F94
:1027F000E8240F01446F0F01416B0CD00F01446BB3
:10280000FC0EDBCFE6FF800EE552D880E754E824CB
:102810000F01416F01D000D0E552E5CFDAFFE7CFDD
:04282000D9FF1200CA
:0C2824001E0EF66E000EF76E000EF86E31
:1028300001010900F550D36F0900F550D46F03E191
:10284000D36701D03DD00900F550CE6F0900F55097
:10285000CF6F0900F550D06F09000900F550E96EFF
:102860000900F550EA6E090009000900F550D16F22
:102870000900F550D26F09000900F6CFD5F1F7CF66
:10288000D6F1F8CFD7F1CEC1F6FFCFC1F7FFD0C157
:10289000F8FF0101D15302E1D25307E00900F550DE
:1028A000EE6ED107F8E2D207F9D7D5C1F6FFD6C14F
:1028B000F7FFD7C1F8FF0101D307000ED45BBFD7E4
:0228C000120004
:0E28C2002A502F02F3CF26F0F4CF27F0300279
:1028D000F3502726000EF420286E2A503102F350C0
:1028E0002826000EF420296E2A503202F3502926A1
:1028F0002B502F02F3502726F4502822000E2922B5
:102900002B503002F3502826F45029222B5031024C
:10291000F35029262C502F02F3502826F450292258
:102920002C503002F35029262D502F02F350292627
:02293000120093
:0E293200D9CFE6FFDACFE6FFE1CFD9FFE2CF43
:10294000DAFFE652C08EE66AE66AF7EC0FF0E5526F
:10295000E552F80EC0140609C06EC70EC01438093F
:10296000C06EC280E66AE66A45EC0EF0E552E552BA
:10297000DF6A0E0EDF5C0DE2EA6ADF34FE0BEA3638
:10298000E96E9A0EE926010EEA22EE6AED6ADF2A66
:10299000F0D7E552E552E5CFDAFFE7CFD9FF1200D5
:1029A000296A286A276A266A200EE76ED8902A3696
:1029B0002B362C362D3626362736283629362F50FC
:1029C000265C30502758315028583250295809E396
:1029D0002F50265E3050275A3150285A3250295AEB
:0829E0002A2AE72EE4D71200B9
:0829E80089880101E80EC26FAD
:1029F000030EC36F1200F29C0101C251C31106E124
:102A000007D80101E80EC26F030EC36FF28C1200EB
:042A100089781200AF
:0C2A140082EC0AF088EC0AF03CEC15F0B3
:102A200099EC14F0D9EC10F015EC13F022EC00F056
:0C2A3000F4EC14F0FBEC14F0FDD71200E5
:042A3C00160EF36E11
:102A400000EE00F00F0E01D81200EA6002D0EE6A2C
:0C2A5000FCD7F350E9601200EE6AFCD7DE
:042A5C001EEE00F07A
:102A60002EEE00F0F86A359C12EC14F003EC00F046
:082A70000AEC15F0FBD712007F
:082A7800958A958CF00E67149D
:102A80000609676E380E696EA19AA08AA29A678AB3
:022A9000120032
:0E2A9200000000000000000000000000000036
:102AA0000000000000000000000000000000000026
:102AB0000000000000000000000000000000000016
:102AC0000000000000000000000000000000000006
:102AD00000000000000000000000000000000000F6
:102AE00000000000000000000000000000000000E6
:102AF00000000000000000000000000000000000D6
:102B000000020000000000000000000000000000C3
:102B100000000000000000000000000000000000B5
:102B200000000000000000000000000000000000A5
:102B30000000000000000000000000000000000095
:102B40000000000000000000000000000000000085
:062B50000200000000007D
:0A2B560013050A08060103120B091B
:042B60000700020464
:020000040030CA
:0100000010EF
:010001009866
:0100020003FA
:0100030000FC
:0100040000FB
:010005008872
:0100060000F9
:010008000FE8
:01000900C036
:01000A000FE6
:01000B00E014
:01000C000FE4
:01000D0040B2
:00000001FF
