:020000040000FA
:06000000FAEF12F01200FD
:020006001200E6
:0600080026EF00F01200DB
:02000E000000F0
:080010000000000000000000E8
:0600180069EF04F0120084
:02001E000300DD
:100020000E000000D40100000A000000EA260000D3
:10003000000F00000E0000002A2600000001000052
:04004000C0000000FC
:0C004400D08EF28CF28E1200E9CFE4FFA7
:10005000EACFE4FFF6CFE4FFF7CFE4FFF5CFE4FF0C
:10006000F3CFE4FFF4CFE4FFFACFE4FF00EE26F095
:10007000100EE80403E3EECFE4FFFBD700EE14F02C
:10008000120EE80403E3EECFE4FFFBD7E652D9CF2C
:10009000E6FFDACFE6FFE1CFD9FFE2CFDAFF070EC6
:1000A000E12402E3E168E652E16EDE6ADD6A030EF6
:1000B000DB6A040EDB6A050EDB6A060EDB6AA1A2B0
:1000C000DAD30101805101E1A3D001017F51070A78
:1000D0001DE0010A19E0030A15E0010A11E0070A10
:1000E0000DE0010A09E0030A05E0010A01E010D071
:1000F00082940FD082960DD082980BD0829A09D02C
:10010000809C07D0809E05D0829003D0829201D03F
:1001100000D00101806B04680568066A076A700EEA
:100120000C6E170E0D6E0E6A0F6A01017F51E96E9B
:10013000EA6AD890E936EA363F0EE926010EEA224D
:10014000EECF10F0EFCF11F0126A136A10500C5C72
:10015000086E11500D58096E12500E580A6E135049
:100160000F580B6E0850045C006E09500558016E64
:100170000A500658026E0B500758036E030E00C05B
:10018000DBFF040E01C0DBFF030EDBCF00F0040E2B
:10019000DBCF01F001C000F0016A0050B36EFF0E2A
:1001A000E76E030EDBCF00F0040EDBCF01F0E7506B
:1001B0000016016A0050B26E700E046E170E056EC6
:1001C000066A076A01017F51E96EEA6AD890E9364A
:1001D000EA363F0EE926010EEA22EECF08F0EFCF15
:1001E00009F00A6A0B6A0850045C006E0950055851
:1001F000016E0A500658026E0B500758036E0050ED
:100200000101D42701500101D52301017F2B31D3F6
:10021000080E01017F5D01E3DED201017F51EA6A30
:10022000890FE96E010EEA22EF5052E001017F5181
:10023000EA6A810FE96E010EEA22EFCF00F00101B8
:100240007F51EA6A6F0FE96E010EEA22EF50D88003
:1002500000543EE201017F51EA6A070FE96E010E88
:10026000EA22EF6A7FC1E6FF800EE66E94EC0FF0A3
:10027000E552E552F3CF00F0F4CF01F001017F51D8
:10028000E96EEA6AD890E936EA362F0EE926010EC1
:10029000EA2200C0EEFF01C0EDFF7FC1E6FF800E45
:1002A000E66E94EC0FF0E552E552F3CF00F0F4CF98
:1002B00001F001017F51E96EEA6AD890E936EA3629
:1002C0003F0EE926010EEA2200C0EEFF01C0EDFF5D
:1002D00001017F51EA6A070FE96E010EEA22EF5031
:1002E00001E176D201017F51EA6A770FE96E010ED2
:1002F000EA22EF5001E118D101017F51E96EEA6A6B
:10030000D890E936EA362F0EE926010EEA22EECF22
:1003100000F0EFCF01F001017F51E96EEA6AD89059
:10032000E936EA360F0EE926010EEA22EECF02F098
:10033000EFCF03F00250005C0350015826E20101A8
:100340007F51EA6A770FE96E010EEA22EF508008CA
:100350001CE201017F51EA6A770FE96E010EEA2281
:10036000EF50800F040DF350006E016A01017F51C0
:10037000E96EEA6AD890E936EA362F0EE926010ED0
:10038000EA220050EE260150ED2201017F51E96E74
:10039000EA6AD890E936EA362F0EE926010EEA22FB
:1003A000EECF00F0EFCF01F001017F51E96EEA6A74
:1003B000D890E936EA361F0EE926010EEA22EECF82
:1003C00002F0EFCF03F00050025C015003582AE224
:1003D00001017F51EA6A770FE96E010EEA22EFCF41
:1003E00004F0800E045C1EE2800E026E01017F515B
:1003F000EA6A770FE96E010EEA22EF50025C040D03
:10040000F350006E016A01017F51E96EEA6AD890EB
:10041000E936EA362F0EE926010EEA220050EE5E9A
:100420000150ED5A01017F51E96EEA6AD890E93630
:10043000EA362F0EE926010EEA22EECF00F0EFCFCA
:1004400001F001017F51E96EEA6AD890E936EA3697
:100450001F0EE926010EEA22EECF02F0EFCF03F0E5
:100460000250005C035001581EE201017F51E96E09
:10047000EA6AD890E936EA361F0EE926010EEA222A
:10048000EECF00F0EFCF01F001017F51E96EEA6A93
:10049000D890E936EA362F0EE926010EEA2200C08E
:1004A000EEFF01C0EDFF01017F51E96EEA6AD890CD
:1004B000E936EA362F0EE926010EEA22EECF00F0E9
:1004C000EFCF01F001017F51E96EEA6AD890E93679
:1004D000EA360F0EE926010EEA22EECF02F0EFCF48
:1004E00003F00050025C015003581EE201017F51ED
:1004F000E96EEA6AD890E936EA360F0EE926010E6F
:10050000EA22EECF00F0EFCF01F001017F51E96E5A
:10051000EA6AD890E936EA362F0EE926010EEA2279
:1005200000C0EEFF01C0EDFF01017F51EA6A890FB3
:10053000E96E010EEA22EF5001E1C1D001017F51C5
:10054000E96EEA6AD890E936EA362F0EE926010EFE
:10055000EA22EECF02F0EFCF03F001017F51E96E06
:10056000EA6AD890E936EA363F0EE926010EEA2219
:10057000EE50025C006EEE500358016E00C0DEFFCC
:1005800001C0DDFFDECF00F0DDCF01F001017F51C2
:10059000EA6A5F0FE96E010EEA22EF50026E036A0B
:1005A0000050025C015003580AE201017F51EA6ADF
:1005B0005F0FE96E010EEA22EF50DE6EDD6ADECFDC
:1005C00000F0DDCF01F001017F51E96EEA6AD890B9
:1005D000E936EA363F0EE926010EEA220050EE2601
:1005E0000150ED2201017F51E96EEA6AD890E936A7
:1005F000EA363F0EE926010EEA22EECF00F0EFCFF9
:1006000001F001017F51EA6A4F0FE96E010EEA2203
:10061000EF50026E036A0050025C0150035818E26A
:1006200001017F51EA6A4F0FE96E010EEA22EF5095
:10063000E66E01017F51E96EEA6AD890E936EA3642
:100640003F0EE926010EEA22E552E750EE6EED6A12
:1006500001017F51E96EEA6AD890E936EA363F0E29
:10066000E926010EEA22EECF00F0EFCF01F0010102
:100670007F51EA6A570FE96E010EEA22EF50026ECF
:10068000036A0250005C0350015818E201017F51D7
:10069000EA6A570FE96E010EEA22EF50E66E010199
:1006A0007F51E96EEA6AD890E936EA363F0EE926CC
:1006B000010EEA22E552E750EE6EED6A1ED001010E
:1006C0007F51E96EEA6AD890E936EA362F0EE926BC
:1006D000010EEA22EECF00F0EFCF01F001017F51D1
:1006E000E96EEA6AD890E936EA363F0EE926010E4D
:1006F000EA2200C0EEFF01C0EDFF01017F51070AB1
:100700001DE0010A19E0030A15E0010A11E0070AD9
:100710000DE0010A09E0030A05E0010A01E010D03A
:1007200082840FD082860DD082880BD0828A09D035
:10073000808C07D0808E05D0828003D0828201D049
:1007400000D001017F51E96EEA6AD890E936EA36B5
:100750003F0EE926010EEA22EECF00F0EFCF01F0C6
:10076000FF0ED8800056FF0E0156030E00C0DBFFBF
:10077000040E01C0DBFF030EDBCF00F0040EDBCF65
:1007800001F001C000F0016A0050B36EFF0EE76E89
:10079000030EDBCF00F0040EDBCF01F0E7500016B4
:1007A000016A0050B26E01017F51E96EEA6AD89089
:1007B000E936EA363F0EE926010EEA22EE50010143
:1007C000D427EE500101D5230101010E806F03D023
:1007D00001017F2B1DD5010180514BE101017F6B90
:1007E00004680568066A076A500E0C6EC30E0D6E2B
:1007F0000E6A0F6AD4C110F0D5C111F0126A136AE3
:1008000010500C5C086E11500D58096E12500E58A5
:100810000A6E13500F580B6E0850045C006E09509E
:100820000558016E0A500658026E0B500758036EA9
:10083000030E00C0DBFF040E01C0DBFF030EDBCFA5
:1008400000F0040EDBCF01F001C000F0016A00509F
:10085000B36EFF0EE76E030EDBCF00F0040EDBCFAE
:1008600001F0E7500016016A0050B26E0101D46B2E
:10087000D56BA19201D0FFD7070EE15C02E2E16ADD
:10088000E552E16EE552E5CFDAFFE7CFD9FFE55259
:1008900000EE25F0120EE80403E3E5CFEDFFFBD7F1
:1008A00000EE35F0100EE80403E3E5CFEDFFFBD7D3
:1008B000E5CFFAFFE5CFF4FFE5CFF3FFE5CFF5FF96
:1008C000E5CFF7FFE5CFF6FFE5CFEAFFE5CFE9FF9C
:1008D0001100E9CFE4FFEACFE4FFF6CFE4FFF7CF62
:1008E000E4FFF5CFE4FFF3CFE4FFF4CFE4FFFACF6A
:1008F000E4FF00EE26F0100EE80403E3EECFE4FF81
:10090000FBD700EE14F0120EE80403E3EECFE4FF91
:10091000FBD7E652D9CFE6FFDACFE6FFE1CFD9FF2A
:10092000E2CFDAFFE652E652E652A1AAE4EF09F07E
:1009300068A0C8EF09F068BA83D26ACFD6F167BC65
:10094000679C0101D76B68B403D00101D86B77D2E3
:100950000101D96B0101D851D10A01E160D2030A2A
:1009600001E15DD2010A01E15AD2070A01E157D241
:10097000650A01E12BD2030A01E128D2010A01E153
:1009800025D2070A01E122D2010A01E11FD2030A9E
:1009900001E11CD2010A01E119D20F0A01E116D2CC
:1009A000010A01E113D2030A01E110D2010A01E1B7
:1009B0000DD2070A01E10AD2010A01E107D2030AB6
:1009C00001E104D21A0A01E1FCD1070A01E1F4D1E4
:1009D000020A01E1DED1010A01E1C8D1310A01E1D7
:1009E000BAD1030A01E1B7D1010A01E1B4D1070A82
:1009F00001E1B1D1010A01E1AED1030A01E1ABD1BC
:100A0000010A01E1A8D10F0A01E1A5D1190A01E10A
:100A100097D1030A01E194D1010A01E191D1070ABA
:100A200001E18ED1010A01E18BD1030A01E188D1F4
:100A3000010A01E185D10F0A01E182D1F90A01E140
:100A40006ED1030A01E16BD1010A01E168D1070A05
:100A500001E165D1010A01E162D1030A01E15FD13F
:100A6000010A01E15CD10F0A01E159D1190A01E142
:100A700045D1030A01E142D1010A01E13FD1070A50
:100A800001E13CD1010A01E139D1030A01E136D18A
:100A9000010A01E133D10F0A01E130D1390A01E144
:100AA00017D1030A01E114D1010A01E111D1070AAA
:100AB00001E10ED1010A01E10BD1030A01E108D1E4
:100AC000010A01E105D10F0A01E102D1190A01E190
:100AD000E9D0030A01E1E6D0010A01E1E3D0070A07
:100AE00001E1E0D0010A01E1DDD0030A01E1DAD041
:100AF000010A01E1D7D00F0A01E1D4D0790A01E15E
:100B0000B6D0030A01E1B3D0010A01E1B0D0070A6F
:100B100001E1ADD0010A01E1AAD0030A01E1A7D0A9
:100B2000010A01E1A4D00F0A01E1A1D01D0A76E07B
:100B3000010A4BE0070A46E0020A3DE0010A30E004
:100B4000330A29E0010A24E0030A17E0010A06E05B
:100B5000100A01E06FD1070E6A6E70D13F0E81144A
:100B6000E66ED4EC0AF0E552E66EFBEC0AF0E552D4
:100B70000101006F00C16AFF61D13F0E9314E66E60
:100B8000D4EC0AF0E5520101016F01C16AFF56D1B0
:100B900002C16AFF53D13F0E010103156A6E4ED1A7
:100BA000C5EC0BF0E66E00EC0CF0E5520101046FB1
:100BB00004C16AFF43D10EEC0BF00101056F05C1C2
:100BC0006AFF3CD106C16AFF39D10101075123E117
:100BD00001010851E8241FE101010951040DF350FE
:100BE0001AE101010A51080DF35015E101010B3919
:100BF000F00B11E101010C51200DF3500CE101014A
:100C00000D51400DF35007E101010E51800DF350DD
:100C100002E1000E01D0010E6A6E10D1010189516E
:100C200023E101018A51E8241FE101018B51040DE8
:100C3000F3501AE101018C51080DF35015E1010147
:100C40008D39F00B11E101018E51200DF3500CE1B3
:100C500001018F51400DF35007E101019051800DCA
:100C6000F35002E1000E01D0010E6A6EE7D0310EA2
:100C70000101D85DE66E310E0101D85DE96EEA6AC8
:100C8000D890E936EA362F0EE926010EEA22EECF99
:100C9000E6FFEFCFE6FF12EC10F0E552E552E55229
:100CA0006A6ECCD0410E0101D85DE66E410E0101A5
:100CB000D85DEA6A4F0FE96E010EEA22EF50E66E48
:100CC000E66A12EC10F0E552E552E5526A6EB6D0D3
:100CD000510E0101D85DE66E510E0101D85DEA6A40
:100CE000570FE96E010EEA22EF50E66EE66A12EC4B
:100CF00010F0E552E552E5526A6EA0D0610E010196
:100D0000D85DEA6A5F0FE96E010EEA22EF50E66EE7
:100D1000E66AC1EC10F0E552E5526A6E8FD0710EB2
:100D20000101D85DEA6A670FE96E010EEA22EF5011
:100D3000E66EE66AC1EC10F0E552E5526A6E7ED0CE
:100D4000810E0101D85DEA6A6F0FE96E010EEA2299
:100D5000EF506A6E73D0910E0101D85DEA6A770F89
:100D6000E96E010EEA22EF506A6E68D0920EE66ECE
:100D7000010EE66E910EE66E010EE66E75EC0CF05D
:100D8000E552E552E552E55292C16AFF91C1D9F1AF
:100D900055D0940EE66E010EE66E930EE66E010ED1
:100DA000E66E6FEC0DF0E552E552E552E55294C166
:100DB0006AFF93C1D9F142D097C16AFF96C1D9F1B8
:100DC0003DD099C16AFF98C1D9F138D0B10E010167
:100DD000D85DE96EEA6AD890E936EA369A0EE926D5
:100DE000010EEA22EECF36F0EFCF37F037C036F003
:100DF000376A36506A6EB10E0101D85DE96EEA6A53
:100E0000D890E936EA369A0EE926010EEA22EECFAC
:100E100036F0EFCF37F036500101D96F0FD0D10E39
:100E20000101D85DEA6ABA0FE96E010EEA22EF50BD
:100E30006A6E04D06A680101D96900D06788A8D2B7
:100E400068B4A6D20101D75103E16ACFD8F109D025
:100E50000101D751EA6AC00FE96E010EEA226ACF9A
:100E6000EFFF0A0E0101D75D02E20101D72B67BC3B
:100E7000679C020E0101D75D01E056D20101D851F5
:100E8000D10A01E13BD2030A01E138D2010A01E1B2
:100E900035D2070A01E132D2450A01E124D2030A20
:100EA00001E121D2010A01E11ED2070A01E11BD2B0
:100EB000010A01E118D2030A01E115D2010A01E198
:100EC00012D20F0A01E10FD2190A01E101D2030A7D
:100ED00001E1FED1010A01E1FBD1070A01E1F8D1EC
:100EE000010A01E1F5D1030A01E1F2D1010A01E1B0
:100EF000EFD10F0A01E1ECD1F90A01E1D6D1030AE1
:100F000001E1D3D1010A01E1D0D1070A01E1CDD13C
:100F1000010A01E1CAD1030A01E1C7D1010A01E1D5
:100F2000C4D10F0A01E1C1D1190A01E1ABD1030A11
:100F300001E1A8D1010A01E1A5D1070A01E1A2D18D
:100F4000010A01E19FD1030A01E19CD1010A01E1FB
:100F500099D10F0A01E196D1390A01E17BD1030A47
:100F600001E178D1010A01E175D1070A01E172D1ED
:100F7000010A01E16FD1030A01E16CD1010A01E12B
:100F800069D10F0A01E166D1190A01E14BD1030AC7
:100F900001E148D1010A01E145D1070A01E142D14D
:100FA000010A01E13FD1030A01E13CD1010A01E15B
:100FB00039D10F0A01E136D1790A01E1F4D0030AEF
:100FC00001E1F1D0010A01E1EED0070A01E1EBD025
:100FD000010A01E1E8D0030A01E1E5D0010A01E1DB
:100FE000E2D00F0A01E1DFD01D0A01E199D0010A28
:100FF00054E0070A4FE0020A45E0010A3BE0330AE9
:1010000033E0010A25E0030A13E0010A01E08BD175
:101010003F0E0101C1150101006F00C1E6FFADECFB
:101020000AF0E552366EC00E931436108A6E7CD1EB
:101030003F0E0101C1150101016F01C1E6FFADECD9
:101040000AF0E552366EC00E93143610936E6CD1D2
:10105000010E0101C1150101026F0101025102E0FF
:10106000F19E01D0F18E60D13F0E0101C115010149
:10107000036F5AD1C1C104F104C1E6FF87EC0BF044
:10108000E55252D1C1C105F105C1E6FF49EC0BF0B3
:10109000E5524AD1C1C106F147D1010E0101C11586
:1010A0000101076F020E0101C115E8407F0B01012C
:1010B000086F040E0101C115E840E8403F0B010133
:1010C000096F080E0101C115E840E840E8401F0B18
:1010D00001010A6F100E0101C115E8380F0B010163
:1010E0000B6F200E0101C115E00BE838E84001014B
:1010F0000C6F060E366E400E0101C11536C0E7FFBB
:10110000E75204E0E8427F0BE706FCE101010D6FC6
:10111000800E0101C115E844010B01010E6F04D1DD
:10112000010E0101C1150101896F020E0101C115F6
:10113000E8407F0B01018A6F040E0101C115E840F0
:10114000E8403F0B01018B6F080E0101C115E8401B
:10115000E840E8401F0B01018C6F100E0101C11522
:10116000E8380F0B01018D6F200E0101C115E00B56
:10117000E838E84001018E6F060E366E400E010120
:10118000C11536C0E7FFE75204E0E8427F0BE706EF
:10119000FCE101018F6F800E0101C115E844010BD4
:1011A0000101906FC1D00101C1510AE1310E01016D
:1011B000D85DEA6A070FE96E010EEA22EF6A0AD0EB
:1011C000310E0101D85DEA6A070FE96E010EEA22CD
:1011D000010EEF6E310E0101D85DE66EC1C1E6FF72
:1011E00094EC0FF0E552E552F3CF36F0F4CF37F040
:1011F000310E0101D85DE96EEA6AD890E936EA3627
:101200002F0EE926010EEA2236C0EEFF37C0EDFFB1
:10121000310E0101D85DEA6A810FE96E010EEA2202
:10122000EF6A82D0410E0101D85DE66EC1C1E6FFD2
:1012300094EC0FF0E552E552F350E66E410E0101D9
:10124000D85DEA6A4F0FE96E010EEA22E552E750D7
:10125000EF6E6AD0510E0101D85DE66EC1C1E6FFA6
:1012600094EC0FF0E552E552F350E66E510E010199
:10127000D85DEA6A570FE96E010EEA22E552E7509F
:10128000EF6E52D0C1C1E6FFA9EC10F0E552F35069
:10129000E66E610E0101D85DEA6A5F0FE96E010E2C
:1012A000EA22E552E750EF6E3FD0C1C1E6FFA9EC5C
:1012B00010F0E552F350E66E710E0101D85DEA6A56
:1012C000670FE96E010EEA22E552E750EF6E2CD06F
:1012D000810E0101D85DEA6A6F0FE96E010EEA2204
:1012E000C1C1EFFF21D0910E0101D85DEA6A770FED
:1012F000E96E010EEA22C1C1EFFF16D0D10E010145
:10130000D85DEA6ABA0FE96E010EEA22C1C1EFFFA9
:10131000C1C1E6FFD10E0101D85DE66E23EC11F0EC
:10132000E552E55201D000D0030E0101D75D30E156
:101330000101D851A40A22E0070A1BE0020A10E0CA
:10134000010A01E024D0C1C191F1C2C192F192C160
:10135000E6FF91C1E6FF13EC0CF0E552E55218D020
:10136000C2C1E6FFC1C1E6FF07EC0DF0E552E55250
:101370000FD0C1C196F1C2C197F10AD0C2C1E6FF38
:10138000C1C1E6FFF7EC0DF0E552E55201D000D007
:101390006850200B17E06850040B14E06850010BF4
:1013A00011E1D9C16AFF0000000000000000000048
:1013B000000000000000000000000000000000002D
:1013C00000006788A19A72D0BAA06FD0BA90C450BA
:1013D000386E38C039F0386AC35000013810366EA4
:1013E00039C037F0010E36C0DBFF020E37C0DBFF1D
:1013F000010EDBCF36F0020EDBCF37F00001800E9E
:10140000371404E0010EDB6A020EDB6A0101DB51D6
:10141000E96EEA6AD890E936EA369A0EE926010EB4
:10142000EA22010EDBCFEEFF020EDBCFEDFF010162
:10143000DB2B0E0E0101DB5D02E30101DB6BDBC187
:10144000E6FF89EC0EF0E5520101DA6F0101DA5195
:101450001F0BF36EF346F346830EC214F310C26EF5
:10146000C2820101BE51BF1104E00101BE07000E9E
:10147000BF5B0101DC2B000EDD23E80E0101DC194E
:1014800002E1030EDD1910E10101DC6BDD6BDF6AA7
:10149000080EDF5C09E2DF50EA6A810FE96E010E97
:1014A000EA22EF2ADF2AF4D701D0FFD7E552E5522E
:1014B000E552E552E5CFDAFFE7CFD9FFE55200EE7E
:1014C00025F0120EE80403E3E5CFEDFFFBD700EEB5
:1014D00035F0100EE80403E3E5CFEDFFFBD7E5CFD1
:1014E000FAFFE5CFF4FFE5CFF3FFE5CFF5FFE5CF5A
:1014F000F7FFE5CFF6FFE5CFEAFFE5CFE9FF110003
:101500008F0ED3147009D36E9B8C12002F0E926E27
:101510009368C00E946E6F0E956E030E966E97686C
:10152000270E986E7F0EE66E7F0EE66E70DAE5523D
:10153000E552F18E0101026B949C949E95909592D8
:10154000959495969598959E8B9C8B9E8C908C925D
:101550008C948C968C988C9E1200D9CFE6FFDACFB3
:10156000E6FFE1CFD9FFE2CFDAFFE652DF6AFD0EF8
:10157000DBB0DF82FD0EDBB2DF86FD0EDBB4DF8A7F
:10158000FD0EDBA602D0000EDB80FD0EDBB8DF8493
:10159000FD0EDBBADF88DF5000D0E552E552E5CF23
:1015A000DAFFE7CFD9FF1200D9CFE6FFDACFE6FFA7
:1015B000E1CFD9FFE2CFDAFFE652DF6AFD0EDBA210
:1015C00002D0000EDB80FD0EDBB6DF82FD0EDBBA43
:1015D000DF84FD0EDBB0DF86FD0EDBB4DF88FD0EA1
:1015E000DBB8DF8ADF5000D0E552E552E5CFDAFF05
:1015F000E7CFD9FF1200D9CFE6FFDACFE6FFE1CF80
:10160000D9FFE2CFDAFFFD0EDB500101031900D054
:10161000E552E5CFDAFFE7CFD9FF1200D9CFE6FFD9
:10162000DACFE6FFE1CFD9FFE2CFDAFFE652DF6A99
:1016300094A403D0010EDF10DF6E94A603D0020E37
:10164000DF10DF6E94A803D0040EDF10DF6E94AAC3
:1016500003D0080EDF10DF6E92AC03D0100EDF1047
:10166000DF6E92AE03D0200EDF10DF6E94A003D0A9
:10167000400EDF10DF6E94A203D0800EDF10DF6E0D
:10168000DF5000D0E552E552E5CFDAFFE7CFD9FFD2
:101690001200D9CFE6FFDACFE6FFE1CFD9FFE2CFE4
:1016A000DAFFFD0EDBA002D0948401D09494FD0EED
:1016B000DBA202D0948601D09496FD0EDBA402D06A
:1016C000948801D09498FD0EDBA602D0948A01D0B4
:1016D000949AFD0EDBA802D0928C01D0929CFD0E54
:1016E000DBAA02D0928E01D0929EFD0EDBAC02D01E
:1016F000948001D09490FD0EDBAE02D0948201D094
:101700009492E552E5CFDAFFE7CFD9FF1200D9CFA7
:10171000E6FFDACFE6FFE1CFD9FFE2CFDAFFFD0E39
:10172000DBA002D0828401D08294FD0EDBA202D025
:10173000828601D08296FD0EDBA402D0828801D081
:101740008298FD0EDBA602D0828A01D0829AFD0E1D
:10175000DBA802D0808C01D0809CFD0EDBAA02D0D9
:10176000808E01D0809EFD0EDBAC02D0828001D045
:101770008290FD0EDBAE02D0828201D08292E552D1
:10178000E5CFDAFFE7CFD9FF1200D9CFE6FFDACFF6
:10179000E6FFE1CFD9FFE2CFDAFFE652DF6A82A4AB
:1017A00003D0010EDF10DF6E82A603D0020EDF1021
:1017B000DF6E82A803D0040EDF10DF6E82AA03D092
:1017C000080EDF10DF6E80AC03D0100EDF10DF6E6E
:1017D00080AE03D0200EDF10DF6E82A003D0400E5B
:1017E000DF10DF6E82A203D0800EDF10DF6EDF50CD
:1017F00000D0E552E552E5CFDAFFE7CFD9FF12007E
:10180000D9CFE6FFDACFE6FFE1CFD9FFE2CFDAFFAB
:10181000FD0EDB500101061900D0E552E5CFDAFFDD
:10182000E7CFD9FF1200D9CFE6FFDACFE6FFE1CF4D
:10183000D9FFE2CFDAFFFD0EDBA002D0868201D015
:101840008692FD0EDBA202D0858E01D0859EFD0E14
:10185000DBA402D0858A01D0859AFD0EDBA602D0DA
:10186000858601D08596FD0EDBA802D0858201D049
:101870008592FD0EDBAA02D0808201D08092FD0EFF
:10188000DBAC02D0808601D08096FC0EDBA002D0BB
:10189000868401D08694FC0EDBA202D0858C01D018
:1018A000859CFC0EDBA402D0858801D08598FC0EB7
:1018B000DBA602D0858401D08594FC0EDBA802D083
:1018C000808001D08090FC0EDBAA02D0808401D001
:1018D0008094FC0EDBAC02D0808A01D0809AE55265
:1018E000E5CFDAFFE7CFD9FF1200D9CFE6FFDACF95
:1018F000E6FFE1CFD9FFE2CFDAFFE652E652DF6A38
:10190000010EDB6A86A203D0010EDF10DF6E85AE0A
:1019100003D0020EDF10DF6E85AA03D0040EDF10A5
:10192000DF6E85A603D0080EDF10DF6E85A203D020
:10193000100EDF10DF6E80A203D0200EDF10DF6EEE
:1019400080A603D0400EDF10DF6E86A407D0010E04
:10195000DB500109E76E010EE7CFDBFF85AC07D056
:10196000010EDB500209E76E010EE7CFDBFF85A811
:1019700007D0010EDB500409E76E010EE7CFDBFF55
:1019800085A407D0010EDB500809E76E010EE7CFF2
:10199000DBFF80A007D0010EDB501009E76E010EBF
:1019A000E7CFDBFF80A407D0010EDB502009E76EF4
:1019B000010EE7CFDBFF80AA07D0010EDB50400904
:1019C000E76E010EE7CFDBFF010EDB500101971937
:1019D000E66EFA0EDBCFE9FFFB0EDBCFEAFFE55246
:1019E000E750EF6EDF5001019619E66EFC0EDBCF7B
:1019F000E9FFFD0EDBCFEAFFE552E750EF6EE5525F
:101A0000E552E552E5CFDAFFE7CFD9FF1200D9CF93
:101A1000E6FFDACFE6FFE1CFD9FFE2CFDAFFFD0E36
:101A2000DBA002D0988201D09892FD0EDBA202D0FA
:101A3000978E01D0979EFD0EDBA402D0978A01D02D
:101A4000979AFD0EDBA602D0978601D09796FD0EE1
:101A5000DBA802D0978201D09792FD0EDBAA02D0BC
:101A6000928201D09292FD0EDBAC02D0928601D020
:101A70009296FC0EDBA002D0988401D09894FC0EC4
:101A8000DBA202D0978C01D0979CFC0EDBA402D085
:101A9000978801D09798FC0EDBA602D0978401D0DE
:101AA0009794FC0EDBA802D0928001D09290FC0E9D
:101AB000DBAA02D0928401D09294FC0EDBAC02D05F
:101AC000928A01D0929AFD0EDBCF93F1FC0EDBCF10
:101AD00094F1E552E5CFDAFFE7CFD9FF1200D9CF75
:101AE000E6FFDACFE6FFE1CFD9FFE2CFDAFFE65239
:101AF000E652DF6A010EDB6A98A203D0010EDF1006
:101B0000DF6E97AE03D0020EDF10DF6E97AA03D010
:101B1000040EDF10DF6E97A603D0080EDF10DF6E15
:101B200097A203D0100EDF10DF6E92A203D0200E1A
:101B3000DF10DF6E92A603D0400EDF10DF6E98A498
:101B400007D0010EDB500109E76E010EE7CFDBFF86
:101B500097AC07D0010EDB500209E76E010EE7CF0C
:101B6000DBFF97A807D0010EDB500409E76E010EDA
:101B7000E7CFDBFF97A407D0010EDB500809E76E23
:101B8000010EE7CFDBFF92A007D0010EDB5010095A
:101B9000E76E010EE7CFDBFF92A407D0010EDB500A
:101BA0002009E76E010EE7CFDBFF92AA07D0010EF6
:101BB000DB504009E76E010EE7CFDBFFFC0EDBCF09
:101BC000E9FFFD0EDBCFEAFFDFCFEFFFFA0EDBCF41
:101BD000E9FFFB0EDBCFEAFF010EDBCFEFFFE552A3
:101BE000E552E552E5CFDAFFE7CFD9FF1200D9CFB2
:101BF000E6FFDACFE6FFE1CFD9FFE2CFDAFFFD0E55
:101C0000DBCF98F1FC0EDBCF99F1FD0EDBA004D009
:101C10000F012387988202D00F012397FD0EDBA2CC
:101C200004D00F01258B978E02D00F01259BFD0E4E
:101C3000DBA404D00F012485978A02D00F012495DC
:101C4000FD0EDBA604D00F012481978602D00F0180
:101C50002491FD0EDBA804D00F01258D978202D0C0
:101C60000F01259DFD0EDBAA04D00F012583928272
:101C700002D00F012593FD0EDBAC04D00F012587A8
:101C8000928602D00F012597FC0EDBA004D00F0135
:101C90002385988402D00F012395FC0EDBA204D08B
:101CA0000F012487978C02D00F012497FC0EDBA430
:101CB00004D00F012483978802D00F012493FC0ED7
:101CC000DBA604D00F01258F978402D00F01259F3A
:101CD000FC0EDBA804D00F012581928002D00F01F9
:101CE0002591FC0EDBAA04D00F012585928402D039
:101CF0000F012595FC0EDBAC04D00F012589928ADB
:101D000002D00F012599E552E5CFDAFFE7CFD9FFE1
:101D10001200D9CFE6FFDACFE6FFE1CFD9FFE2CF5D
:101D2000DAFFFD0EDB50EA6A000FE96E0F0EEA22C1
:101D3000EF5000D0E552E5CFDAFFE7CFD9FF120030
:101D4000D9CFE6FFDACFE6FFE1CFD9FFE2CFDAFF66
:101D5000E652870ECA140009CA6EFC0ECA140009A6
:101D6000CA6ECC6AFE0ECB6ECA843F0EB114000957
:101D7000B16ECF0EB1143009B16EB1823C0EB36EAC
:101D8000AF0EB26EA192A082A282B180870E6B14B8
:101D900018096B6EFC0E6B1403096B6EFA0E6C6EF9
:101DA0006D6ABA90B980D2906B84DF6A080EDF5CEE
:101DB00001E3AFD0DF50EA6A070FE96E010EEA22B5
:101DC000010EEF6EEA6ADF34FE0BEA36E96E0F0EA3
:101DD000E926010EEA22A00EEE6E0F0EED6EEA6A03
:101DE000DF34FE0BEA36E96E1F0EE926010EEA2209
:101DF000D00EEE6E070EED6EDFCFE6FF800EE66EC4
:101E000093D8E552E552F3CF14F0F4CF15F0EA6A17
:101E1000DF34FE0BEA36E96E2F0EE926010EEA22C8
:101E200014C0EEFF15C0EDFFDFCFE6FFE6687CD8FB
:101E3000E552E552F350E66EDF50EA6A4F0FE96E65
:101E4000010EEA22E552E750EF6EDFCFE6FF010E0A
:101E5000E66E6AD8E552E552F350E66EDF50EA6A64
:101E6000570FE96E010EEA22E552E750EF6EE66881
:101E700070D9E552F350E66EDF50EA6A5F0FE96E03
:101E8000010EEA22E552E750EF6EE66862D9E552AC
:101E9000F350E66EDF50EA6A670FE96E010EEA2240
:101EA000E552E750EF6EDF50EA6A6F0FE96E010E00
:101EB000EA22EF6ADFCFE6FF800EE66E35D8E55204
:101EC000E552F3CF14F0F4CF15F0EA6ADF34FE0BDD
:101ED000EA36E96E3F0EE926010EEA2214C0EEFF53
:101EE00015C0EDFFDF50EA6A810FE96E010EEA22AC
:101EF000EF6ADF50EA6A770FE96E010EEA22EF6AB5
:101F0000DF50EA6A890FE96E010EEA22EF6ADF2AE2
:101F10004DD701017F6B0101806BE552E552E5CFA2
:101F2000DAFFE7CFD9FF1200D9CFE6FFDACFE6FF1D
:101F3000E1CFD9FFE2CFDAFFFC0EEA6ADB34FE0B19
:101F4000EA36E96E1F0EE926010EEA22EECF18F0FE
:101F5000EFCF19F01A6A1B6AFD0EDBCF22F0236A5D
:101F6000246A256AFC0EEA6ADB34FE0BEA36E96E67
:101F70000F0EE926010EEA22EECF20F0EFCF21F07E
:101F8000FC0EEA6ADB34FE0BEA36E96E1F0EE92628
:101F9000010EEA22EE50205C1C6EEE5021581D6EA0
:101FA0001E6A1F6A1CC02AF01DC02BF01EC02CF038
:101FB0001FC02DF022C02FF023C030F024C031F01C
:101FC00025C032F064EC12F026C02AF027C02BF0B6
:101FD00028C02CF029C02DF02F6A010E306E316A16
:101FE000326A9CEC12F018502A24146E19502B20DF
:101FF000156E1A502C20166E1B502D20176E020ED7
:102000001426000E1522000E1622000E172214C0F0
:10201000F3FF15C0F4FF00D0E552E5CFDAFFE7CFBC
:10202000D9FF1200D9CFE6FFDACFE6FFE1CFD9FF23
:10203000E2CFDAFFFC0EDBCF14F0FD0EDBCF15F0A4
:10204000FB0EEA6ADB34FE0BEA36E96E1F0EE92668
:10205000010EEA22EECF16F0EFCF17F01450165C07
:102060001550175802E3000E6ED0FC0EDBCF14F0B3
:10207000FD0EDBCF15F0FB0EEA6ADB34FE0BEA3611
:10208000E96E0F0EE926010EEA22EECF16F0EFCF31
:1020900017F01650145C1750155802E3FF0E53D07A
:1020A000FB0EEA6ADB34FE0BEA36E96E0F0EE92618
:1020B000010EEA22EECF1EF0EFCF1FF0FB0EEA6A10
:1020C000DB34FE0BEA36E96E1F0EE926010EEA222A
:1020D000EE501E5C1A6EEE501F581B6E1C6A1D6A75
:1020E000FC0EDBCF18F0FD0EDBCF19F0FB0EEA6A19
:1020F000DB34FE0BEA36E96E1F0EE926010EEA22FA
:10210000EE50185C146EEE501958156E166A176A68
:1021100016C017F015C016F014C015F0146A14C0DC
:102120002AF015C02BF016C02CF017C02DF01AC0E5
:102130002FF01BC030F01CC031F01DC032F09CEC01
:1021400012F02A5000D0E552E5CFDAFFE7CFD9FFF1
:102150001200D9CFE6FFDACFE6FFE1CFD9FFE2CF19
:10216000DAFFFD0EDB38F00B146E156A14C0F3FFB6
:1021700015C0F4FF00D0E552E5CFDAFFE7CFD9FF75
:102180001200D9CFE6FFDACFE6FFE1CFD9FFE2CFE9
:10219000DAFFFC0EDBCF14F0FD0EDBCF15F0040EE2
:1021A000D89015321432E804FBE1145000D0E55207
:0A21B000E5CFDAFFE7CFD9FF1200F8
:0621BA000F012D972D9985
:1021C0002D9B0F012C9D2C9F0F012C990F012C95FD
:1021D0000F012C912C930F012B990F012B950F01BF
:1021E0002B912B930F014F6B786A756A726A6F6A35
:1021F0000F01476B0F01446B0F01416B0F014E91B3
:102200004E934E854E87F00E77140C09776EF00EC4
:1022100074140C09746EF00E71140C09716EF00ECA
:102220006E140C096E6E0F014691469346854687E3
:102230000F0143914393438543870F01409140939E
:10224000408540871200D9CFE6FFDACFE6FFE1CF25
:10225000D9FFE2CFDAFFFD0EDB50020A01E178D0B0
:10226000010A4FE0030A26E0010A01E09CD0FC0EBF
:10227000DB5003E1786A756A1CD0FC0EDB508008E5
:1022800003E17868756815D0FC0EDB50800807E222
:10229000FC0EDB50800FE824786E756A0AD0786AED
:1022A000FC0EDBCFE6FF800EE552D880E754E82431
:1022B000756E7AD0FC0EDB5004E10F014F6B726A31
:1022C0001FD0FC0EDB50800804E10F014F697268DB
:1022D00017D0FC0EDB50800808E2FC0EDB50800FAC
:1022E000E8240F014F6F726A0BD00F014F6BFC0E89
:1022F000DBCFE6FF800EE552D880E754E824726E0B
:1023000053D0FC0EDB5004E16F6A0F01476B1FD006
:10231000FC0EDB50800804E16F680F01476917D09D
:10232000FC0EDB50800808E2FC0EDB50800FE82436
:102330006F6E0F01476B0BD06F6AFC0EDBCFE6FFB1
:10234000800EE552D880E754E8240F01476F2CD067
:10235000FC0EDB5005E10F01446B0F01416B22D0F5
:10236000FC0EDB50800805E10F0144690F01416953
:1023700019D0FC0EDB50800809E2FC0EDB50800F08
:10238000E8240F01446F0F01416B0CD00F01446B27
:10239000FC0EDBCFE6FF800EE552D880E754E82440
:1023A0000F01416F01D000D0E552E5CFDAFFE7CF52
:0423B000D9FF12003F
:0C23B4001E0EF66E000EF76E000EF86EA6
:1023C00001010900F550CF6F0900F550D06F03E10E
:1023D000CF6701D03DD00900F550CA6F0900F55014
:1023E000CB6F0900F550CC6F09000900F550E96E7C
:1023F0000900F550EA6E090009000900F550CD6F9B
:102400000900F550CE6F09000900F6CFD1F1F7CFE2
:10241000D2F1F8CFD3F1CAC1F6FFCBC1F7FFCCC1DF
:10242000F8FF0101CD5302E1CE5307E00900F5505A
:10243000EE6ECD07F8E2CE07F9D7D1C1F6FFD2C1D3
:10244000F7FFD3C1F8FF0101CF07000ED05BBFD764
:02245000120078
:0E245200D9CFE6FFDACFE6FFE1CFD9FFE2CF28
:10246000DAFFE652C08E7F0EE66E7F0EE66EF7EC68
:102470000DF0E552E552F80EC0140609C06EC70E05
:10248000C0143809C06EC2807F0EE66E7F0EE66E05
:1024900007EC0DF0E552E552DF6A0E0EDF5C0DE24F
:1024A000EA6ADF34FE0BEA36E96E9A0EE926010E7F
:1024B000EA22EE6AED6ADF2AF0D7E552E552E5CF6F
:0824C000DAFFE7CFD9FF12009B
:0824C8002A502F02F3CF26F089
:1024D000F4CF27F03002F3502726000EF420286EA8
:1024E0002A503102F3502826000EF420296E2A507B
:1024F0003202F35029262B502F02F3502726F45096
:102500002822000E29222B503002F3502826F450A6
:1025100029222B503102F35029262C502F02F35040
:102520002826F45029222C503002F35029262D5011
:082530002F02F35029261200CE
:08253800296A286A276A266A55
:10254000200EE76ED8902A362B362C362D362636BE
:102550002736283629362F50265C305027583150E0
:1025600028583250295809E32F50265E3050275AF8
:102570003150285A3250295A2A2AE72EE4D712001D
:1025800089880101E80EBE6F030EBF6F1200F29C36
:102590000101BE51BF1106E107D80101E80EBE6F6F
:0C25A000030EBF6FF28C1200897812004D
:0425AC0080EC0AF0C5
:1025B00086EC0AF008EC13F029EC12F0A0EC0EF017
:1025C000DDEC10F022EC00F0C0EC12F0C7EC12F0E1
:0425D000FDD7120021
:0C25D400160EF36E00EE00F00F0E01D8A2
:1025E0001200EA6002D0EE6AFCD7F350E9601200F4
:0425F000EE6AFCD7BC
:0C25F4001EEE00F02EEE00F0F86A359CA0
:10260000DAEC11F003EC00F0D6EC12F0FBD712007C
:10261000958A958CF00E67140609676E380E696E00
:0A262000A19AA08AA29A678A12000C
:06262A00000000000000AA
:10263000000000000000000000000000000000009A
:10264000000000000000000000000000000000008A
:10265000000000000000000000000000000000007A
:10266000000000000000000000000000000000006A
:10267000000000000000000000000000000000005A
:10268000000000000000000000000000000000004A
:10269000000000000000000000000000000000003A
:1026A000000000000000000000000000000000002A
:1026B000000000000000000000000000000000001A
:1026C000000000000000000000000000000000000A
:1026D00000000000000000000000000000000000FA
:0A26E00000000000000000000000F0
:0626EA0013050A080601B9
:0826F00003120B0907000204AC
:020000040030CA
:0100000010EF
:010001009866
:0100020003FA
:0100030000FC
:0100040000FB
:010005008872
:0100060000F9
:010008000FE8
:01000900C036
:01000A000FE6
:01000B00E014
:01000C000FE4
:01000D0040B2
:00000001FF
